:020000040800F2
:10000000680C002099610008F9020008FB02000852
:10001000FF020008030300080703000800000000B7
:100020000000000000000000000000000B030008BA
:100030000D030008000000000F0300081103000872
:10004000B3610008B3610008B3610008B361000840
:10005000B3610008B3610008B3610008B361000830
:10006000B3610008555D00089B5D0008B36100089E
:10007000B3610008B3610008B3610008B361000810
:10008000B3610008B3610008B3610008B361000800
:10009000B3610008B3610008B3610008B3610008F0
:1000A000B3610008B3610008B3610008B3610008E0
:1000B00043470008B3610008B3610008B36100085A
:1000C000B3610008B3610008B3610008B3610008C0
:1000D000B36100082960000855610008B361000899
:1000E000B3610008B3610008B3610008B3610008A0
:1000F000B3610008B3610008B3610008B361000890
:10010000B3610008B3610008B3610008B36100087F
:10011000B3610008B3610008B3610008B36100086F
:10012000B3610008B3610008B3610008B36100085F
:10013000B3610008B3610008B3610008B36100084F
:10014000B3610008B3610008B3610008B36100083F
:10015000B3610008B3610008B3610008B36100082F
:10016000B3610008B3610008B3610008B36100081F
:10017000B3610008B3610008B3610008B36100080F
:10018000B3610008B361000800F002F800F064F801
:100190000AA090E8000C82448344AAF10107DA45E2
:1001A00001D100F059F8AFF2090EBAE80F0013F0D0
:1001B000010F18BFFB1A43F001031847C8A700003E
:1001C000E8A700000A444FF0000C10F8013B13F0C0
:1001D000070408BF10F8014B1D1108BF10F8015BA0
:1001E000641E05D010F8016B641E01F8016BF9D193
:1001F00013F0080F1EBF10F8014BAD1C0C1B09D1EA
:100200006D1E58BF01F801CBFAD505E014F8016B5B
:1002100001F8016B6D1EF9D59142D6D370470000ED
:100220000023002400250026103A28BF78C1FBD8FF
:10023000520728BF30C148BF0B607047642908F0DF
:100240005181632908F03A82002070471FB508F0F9
:10025000A5FF1FBD10B510BD08F06EFA1146FFF7DF
:10026000F5FF00F009F808F08CFA03B4FFF7F2FF8D
:1002700003BC05F079FE00004FF4A06005F0ACFF70
:10028000A82005F0EFFD4FF4E13005F07AFE00F014
:1002900049F900F0D8FD03F08DFC154AA72140F282
:1002A000E73003F009FD124A532140F2E73003F032
:1002B000BCFD04F0BDFC04F045FC04F07EFC03F042
:1002C000FFFE03F051FE05F026FC05F003FD05F0EE
:1002D000C3FB05F0FEF805F083FD06A008F098F8D2
:1002E00005E005F031F904F021FF05F08EF8F8E79C
:1002F0000000002032000000704700BFFEE700BF92
:10030000FEE700BFFEE700BFFEE77047704770479B
:10031000704700000CB500200190009076480068FE
:1003200040F480307449086000BF7348006800F4EE
:10033000003000900198401C0190009818B9019875
:10034000B0F5A04FF1D16C48006800F4003010B156
:100350000120009001E0002000900098012846D183
:1003600065484030006840F0805063494031086083
:100370006248006840F44040604908605E480830C8
:1003800000685D49083108600846006840F4004094
:1003900008600846006840F4A05008605848091FEB
:1003A0000860081F006840F08070091F086000BFE7
:1003B0005148006800F000700028F9D040F2057044
:1003C000504908604C480830006820F003004A4952
:1003D000083108600846006840F00200086000BF6D
:1003E00045480830006800F00C000828F8D10CBD22
:1003F00010B54548006840F47000434908603E4825
:10040000006840F001003C49086000203A4908318A
:100410000860394800683D490840374908603C4851
:10042000091D0860081F006820F48020091F08606B
:10043000002031490C310860FFF76CFF4FF000607D
:1004400031498039086010BD70B5002000220223B8
:1004500000240221284D08352D6805F00C0020B13C
:10046000042806D0082834D107E02A4D2A4E3560EA
:1004700033E02A4D284E35602FE01F4D2D1D2D688D
:10048000C5F380541C4D2D1D2D6805F03F0154B15E
:10049000224DB5FBF1F5184E361D3668C6F38816A9
:1004A00005FB06F209E01B4DB5FBF1F5124E361DBA
:1004B0003668C6F3881605FB06F20F4D2D1D2D6814
:1004C000C5F301456D1C6B00B2FBF3F5124E3560B0
:1004D00003E0104D104E356000BF00BF064D0835DB
:1004E0002D68C5F303150E4E705D0B4D2D68C5408C
:1004F000094E356070BD00000038024000700040B9
:1005000008544007003C024088ED00E0FFFFF6FE83
:10051000103000240024F4001000002000127A00A3
:10052000140000201CB50121202006F0CDFC4FF462
:10053000C060009001208DF8040000208DF80600B6
:1005400003208DF8050001208DF807006946044856
:1005500005F038FF4FF4C061014805F0AFFF1CBD46
:100560000014024001B5BDF800000090BDF8000085
:10057000FE49088008BD01B5BDF800000090BDF837
:100580000000FA49891C088008BD08B5F748801C9E
:1005900000880090BDF8000008BDF44A10804FF0BC
:1005A000D842A2F88010704710B504462046FFF7E5
:1005B000D9FF052005F070FCFFF7E7FF10BDEC4800
:1005C0000089EA4908807047E849891C088070471B
:1005D00030B5014601F01F04C1F34513CA0AE50214
:1005E00005EB43151544A8B230BD00BF011EA0F1B4
:1005F0000102D0B2FAD1704710B502460C46DC4871
:10060000808841F66311884247D1D9488079A8B9DA
:10061000D7480088401E801A82B2D5494889FFF722
:10062000A1FF0020FFF7A7FF0020FFF7A4FF101293
:10063000FFF7A1FFD0B2FFF79EFF16E0CC49488933
:10064000FFF790FF1012FFF796FFD0B2FFF793FF6E
:10065000C7490988491EC1F30F20FFF78CFFC44921
:100660000978491EC8B2FFF786FFC1498889FFF79C
:1006700079FF2012FFF77FFFE0B2FFF77CFFBC4954
:100680004988491EC1F30F20FFF775FFB8498978E3
:10069000491EC8B2FFF76FFF3AE0B548808845F2BF
:1006A0001051884220D1B2494889FFF75BFF1012F0
:1006B000FFF761FFAE494989491C88B2FFF752FF35
:1006C000D0B2FFF758FFAA498889FFF74BFF2012E5
:1006D000FFF751FFA6498989491C88B2FFF742FFFD
:1006E000E0B2FFF748FF13E0A1494889FFF73AFF5E
:1006F0001012FFF740FFD0B2FFF73DFF9C498889F9
:10070000FFF730FF2012FFF736FFE0B2FFF733FFAD
:1007100010BD2DE9F04105460E4600240027A046F5
:1007200093480088A84203DD91484088B04202DC2B
:100730000020BDE8F08131462846FFF75DFF8C4878
:10074000808845F21051884204D14FF43850FFF7A9
:1007500009FF02E02E20FFF705FFFFF716FF044612
:100760008348808841F66311884201D12046E0E742
:10077000FFF70BFF0446FFF708FF8046E7B24FF68E
:10078000FF7000EA0727E012C002B91240EA4110E8
:1007900040EAE820CDE700B57548808845F2105161
:1007A000884204D14FF42450FFF7DCFE02E02920F8
:1007B000FFF7D8FE00BD00B56D48808845F21051A6
:1007C000884204D14FF42050FFF7CCFE02E02820ED
:1007D000FFF7C8FE00BDF0B50546002400276448B9
:1007E0008079012805D16248808841F663118842EA
:1007F00008D15F488079F0B95D48808841F663117F
:10080000884218D1082D15D2DFE805F00406080A41
:100810000C0E101206250DE007250BE0042509E05B
:10082000052507E0012505E0002503E0032501E09B
:10083000022500BF00BF082D1CD2DFE805F004062A
:10084000090C0F12151800BF14E044F0800411E0E9
:1008500044F040040EE044F0C0040BE044F02004F7
:1008600008E044F0600405E044F0A00402E044F035
:10087000E00400BF00BF3E48808845F21051884226
:1008800002D14FF4585700E036273948808849F2A2
:100890004131884205D03648808847F289718842C4
:1008A00001D144F0080421463846FFF776FE30486F
:1008B000808841F6631188421DD004F0200068B1A1
:1008C0002B4800882A494988884214DA2848068833
:1008D000408827490880084646800CE02448008864
:1008E00023494988884206DD2148068840882049F6
:1008F0000880084646801E48808845F2105188428C
:1009000057D11B494889FFF72DFE0020FFF733FE22
:1009100017494989491C88B2FFF724FE0020FFF7D8
:100920002AFE13494989891C88B2FFF71BFE10492A
:100930000988491EC1F30F20FFF71DFE0C494989A4
:10094000C91C88B2FFF70EFE09490978491EC8B2D2
:10095000FFF711FE06498889FFF704FE0020FFF724
:100960000AFE03498989491C88B203E07E00006CB5
:1009700058020020FFF7F6FD0020FFF7FCFDFE49BE
:100980008989891C88B2FFF7EDFDFB494988491E1A
:10099000C1F30F20FFF7EFFDF7498989C91C88B221
:1009A000FFF7E0FDF4498978491EC8B2FFF7E3FD7F
:1009B0002DE0F1494889FFF7D5FD0020FFF7DBFD69
:1009C0000020FFF7D8FDEC490988491EC1F30F202C
:1009D000FFF7D1FDE8490978491EC8B2FFF7CBFD02
:1009E000E5498889FFF7BEFD0020FFF7C4FD002020
:1009F000FFF7C1FDE0494988491EC1F30F20FFF709
:100A0000BAFDDD498978491EC8B2FFF7B4FDF0BDD3
:100A100030B504460D4629462046FFF7EDFDFFF7A9
:100A2000CEFDD6480088D649088030BD30B5044692
:100A30000D46D148808845F21051884220D1CE49D8
:100A40004889FFF78FFD2012FFF795FDCA494989B4
:100A5000491C88B2FFF786FDE0B2FFF78CFDC6495E
:100A60008889FFF77FFD2812FFF785FDC249898934
:100A7000491C88B2FFF776FDE8B2FFF77CFD42E043
:100A8000BD48808841F66311884228D1BA488079F0
:100A900020B9B9480088401E001B84B2B649488975
:100AA000FFF760FD2012FFF766FDE0B2FFF763FD80
:100AB0002012FFF760FDE0B2FFF75DFDAE498889C7
:100AC000FFF750FD2812FFF756FDE8B2FFF753FD80
:100AD0002812FFF750FDE8B2FFF74DFD13E0A649DD
:100AE0004889FFF73FFD2012FFF745FDE0B2FFF711
:100AF00042FDA1498889FFF735FD2812FFF73BFD2C
:100B0000E8B2FFF738FD9C4800899D49891E08809E
:100B10004FF0D840A0F8802030BD70B52DED048B8B
:100B20000446BE20FFF71EFD0520FFF724FD2046EA
:100B300008F0C6F841EC190B9FED920B53EC102B0B
:100B400008F00EF941EC180B08F076F885B228464B
:100B5000FFF711FD0120FFF70EFDFF20FFF70BFD52
:100B60000020FFF708FD0020FFF705FDBDEC048B1A
:100B700070BD10B5044680488471002C45D1F0202A
:100B80007D4908804FF4A07048800846808845F26F
:100B90001051884210D14FF43050774908814FF4FA
:100BA000285048814FF42C5088814FF4F070088011
:100BB0004FF4487048801AE06F48808841F663110E
:100BC00088420DD12C206C4908812B2048812A2095
:100BD00088814FF4F07008804FF44870488006E038
:100BE0002C20654908812A2048812B208881624871
:100BF000808845F2103188424CD14FF4A0705E4994
:100C000008804FF4F070488044E04FF4A0705A49D7
:100C10000880F02048800846808845F210518842BC
:100C200010D14FF43050544908814FF42850488176
:100C30004FF42C5088814FF4487008804FF4F070C6
:100C400048801AE04C48808841F6631188420DD1F3
:100C50002C20494908812A2048812B2088814FF483
:100C6000487008804FF4F070488006E02C2042491C
:100C700008812A2048812B2088813F48808845F2BE
:100C80001031884206D14FF4F0703B4908804FF490
:100C9000A07048800020FFF79EFD10BD2DE9F041B7
:100CA00004460D461E46A018401E87B2A819401ED5
:100CB0001FFA80F83048808841F66311884231D1AC
:100CC0002D48807901282DD02B480088801A001BE0
:100CD00084B2A819401E86B227494889FFF742FC12
:100CE0002012FFF748FCE0B2FFF745FCA118491EAF
:100CF000C1F30F20FFF73FFCA118491EC8B2FFF750
:100D00003AFC1D498889FFF72DFC2812FFF733FCB8
:100D1000E8B2FFF730FC3012FFF72DFCF0B2FFF71E
:100D20002AFC79E01448808845F21051884251D15C
:100D300011494889FFF716FC2012FFF71CFC0E49E9
:100D40004989491C88B2FFF70DFCE0B2FFF713FC9C
:100D500009494989891C88B2FFF704FC3812FFF75A
:100D60000AFC05494989C91C88B2FFF7FBFBF8B2A8
:100D7000FFF701FC004909E0580200202400002090
:100D80008000006C66666666666604408889FFF7C8
:100D9000E9FB2812FFF7EFFBFD498989491C88B25E
:100DA000FFF7E0FBE8B2FFF7E6FBF9498989891C08
:100DB00088B2FFF7D7FB4FEA2820FFF7DCFBF449A6
:100DC0008989C91C88B2FFF7CDFB08F0FF00FFF747
:100DD000D2FB21E0EE494889FFF7C4FB2012FFF760
:100DE000CAFBE0B2FFF7C7FB3812FFF7C4FBF8B24B
:100DF000FFF7C1FBE6498889FFF7B4FB2812FFF72C
:100E0000BAFBE8B2FFF7B7FB4FEA2820FFF7B3FBC6
:100E100008F0FF00FFF7AFFBBDE8F08170B50446B6
:100E20000026DB4805884088454300210846FFF737
:100E3000E3FBFFF7C4FB00BF02E0D6480480761C4A
:100E4000AE42FAD370BD00B5A1B0002020900121C0
:100E50007A2006F039F80121084606F06DF84FF4C3
:100E600000401E9001208DF87C0000208DF87E004F
:100E700002208DF87D0001208DF87F001EA9C64854
:100E800005F0A0FA4CF233701E9002208DF87C0021
:100E900000208DF87E0003208DF87D0001208DF864
:100EA0007F001EA9BD4805F08DFA4FF680701E9098
:100EB00002208DF87C0000208DF87E0003208DF844
:100EC0007D0001208DF87F001EA9B54805F07AFA53
:100ED0004FF480501E9002208DF87C0000208DF889
:100EE0007E0003208DF87D0001208DF87F001EA973
:100EF000AC4805F067FA4FF480501E9002208DF840
:100F00007C0000208DF87E0003208DF87D000120FC
:100F10008DF87F001EA9A44805F054FA0C22002188
:100F20009E4805F0DAFA0C2201219C4805F0D5FA1A
:100F30000C220421994805F0D0FA0C22052197488B
:100F400005F0CBFA0C220821944805F0C6FA0C22D1
:100F50000921924805F0C1FA0C220A218F4805F0B8
:100F6000BCFA0C220E218D4805F0B7FA0C220F2195
:100F70008A4805F0B2FA0C220721894805F0ADFA3B
:100F80000C220821864805F0A8FA0C220921844881
:100F900005F0A3FA0C220A21814805F09EFA0C22E2
:100FA0000B217F4805F099FA0C2211467C4805F088
:100FB00094FA0C220D217A4805F08FFA0C220E21AA
:100FC000774805F08AFA0C220F21754805F085FA5A
:100FD0000C221146734805F080FA0C221146724823
:100FE00005F07BFA0F200890002009903C200A9021
:100FF00000200B900C900D900E9009200190002085
:10100000029008200390002004900590069007901D
:1010100006200F90002010901190102012900020B8
:10102000139015901490169017904FF480501890CC
:10103000002019904FF480401A9000201B9008A8BF
:101040001C9001A81D900FA805F09BFA0121062015
:1010500005F022FB322004F067FFD320FFF782FA6D
:10106000FFF793FA4A498880FFF78FFA484988804A
:10107000FFF78BFA46498880084680884FF6FF7153
:1010800001EA002042498880FFF77FFA40498988B9
:1010900008433F4988800846808849F241318842A8
:1010A00075D00420FFF75EFAFFF76FFA38498880A1
:1010B000FFF76BFA36498880FFF767FA3449888072
:1010C000084680884FF6FF7101EA00203049888089
:1010D000FFF75BFA2E49898808432D498880084626
:1010E000808848F25251884203D147F289702849DA
:1010F00088802748808847F289718842D0D0D420E0
:10110000FFF730FAFFF741FA21498880FFF73DFAEF
:101110001F498880FFF739FA1D4988800846808872
:101120004FF6FF7101EA002019498880FFF72DFA78
:10113000174989880843164988800846808845F2FF
:101140001031884279D055214FF47040FFF725FACD
:10115000AA214FF20100FFF720FA52214FF20200BC
:10116000FFF71BFA08214FF20300FFF716FA0121DF
:101170004FF20400FFF711FA4FF44540FFF7F2F980
:10118000FFF703FA02498880084680880EE054E0A1
:10119000580200208000006C00040240000C024055
:1011A0000010024000140240001802404FF6FF7188
:1011B00001EA0020FE4988804CF20150FFF7D2F985
:1011C000FFF7E3F9FA4989880843F949888005203F
:1011D00004F0AAFEF6488088B0F5004F03D145F22E
:1011E0001050F3498880F248808845F210518842B7
:1011F00023D0A120FFF7B6F9FFF7C7F9EC498880A3
:10120000FFF7C3F9EA498880084680884FF6FF71E6
:1012100001EA0020E6498880FFF7B7F9E4498988A8
:101220000843E34988800846808845F26171884216
:1012300003D141F66310DE498880DD48808849F299
:101240004131884217D0DA48808847F28971884254
:1012500011D0D748808845F2103188420BD0D4484D
:10126000808845F21051884205D0D148808841F6E7
:10127000631188422CD1CF48006820F00F004FF056
:101280002041C1F81C010846D0F81C0120F4706010
:10129000C1F81C010846D0F81C0140F00300C1F859
:1012A0001C01C348808847F28971884208D1C1482F
:1012B000006840F440704FF02041C1F81C0107E085
:1012C000BC48006840F400704FF02041C1F81C0198
:1012D000B748808849F2413188427CD1CF20FFF75E
:1012E00041F90020FFF747F9C120FFF744F930200A
:1012F000FFF741F9ED20FFF735F96420FFF73BF9DF
:101300000320FFF738F91220FFF735F98120FFF7A6
:1013100032F9E820FFF726F98520FFF72CF9102095
:10132000FFF729F97A20FFF726F9CB20FFF71AF902
:101330003920FFF720F92C20FFF71DF90020FFF7D7
:101340001AF93420FFF717F90220FFF714F9F720F4
:10135000FFF708F92020FFF70EF9EA20FFF702F95E
:101360000020FFF708F90020FFF705F9C020FFF77C
:10137000F9F81B20FFF7FFF8C120FFF7F3F8012071
:10138000FFF7F9F8C520FFF7EDF83020FFF7F3F885
:101390003020FFF7F0F8C720FFF7E4F8B720FFF799
:1013A000EAF83620FFF7DEF84820FFF7E4F83A20A5
:1013B000FFF7D8F85520FFF7DEF8B120FFF7D2F895
:1013C0000020FFF7D8F81A20FFF7D5F8B620FFF76E
:1013D000C9F80A2000E099E0FFF7CDF8A220FFF756
:1013E000CAF8F220FFF7BEF80020FFF7C4F8262065
:1013F000FFF7B8F80120FFF7BEF8E020FFF7B2F8DA
:101400000F20FFF7B8F82A20FFF7B5F82820FFF7DC
:10141000B2F80820FFF7AFF80E20FFF7ACF808206D
:10142000FFF7A9F85420FFF7A6F8A920FFF7A3F8C3
:101430004320FFF7A0F80A20FFF79DF80F20FFF7E1
:101440009AF80020FFF797F80020FFF794F80020A3
:10145000FFF791F80020FFF78EF8E120FFF782F800
:101460000020FFF788F81520FFF785F81720FFF711
:1014700082F80720FFF77FF81120FFF77CF806209D
:10148000FFF779F82B20FFF776F85620FFF773F86F
:101490003C20FFF770F80520FFF76DF81020FFF7EC
:1014A0006AF80F20FFF767F83F20FFF764F83F2046
:1014B000FFF761F80F20FFF75EF82B20FFF752F8D7
:1014C0000020FFF758F80020FFF755F80120FFF73C
:1014D00052F83F20FFF74FF82A20FFF743F800208B
:1014E000FFF749F80020FFF746F80020FFF743F820
:1014F000EF20FFF740F81120FFF734F8782004F0D0
:1015000013FD2920FFF72EF802F0ABB82848808899
:1015100047F2897188427DD11120FFF723F87820A6
:1015200004F002FD3620FFF71DF80020FFF723F836
:101530003A20FFF717F80520FFF71DF8B220FFF754
:1015400011F80C20FFF717F80C20FFF714F8002013
:10155000FFF711F83320FFF70EF83320FFF70BF8F1
:10156000B720FEF7FFFF3520FFF705F8BB20FEF799
:10157000F9FF3220FEF7FFFFC020FEF7F3FF0C203B
:10158000FEF7F9FFC220FEF7EDFF0120FEF7F3FFA3
:10159000C320FEF7E7FF1020FEF7EDFFC420FEF7A3
:1015A000E1FF2020FEF7E7FFC620FEF7DBFF03E0A8
:1015B000580200201C0100A00F20FEF7DCFFD02005
:1015C000FEF7D0FFA420FEF7D6FFA120FEF7D3FF41
:1015D000E020FEF7C7FFD020FEF7CDFF0020FEF78A
:1015E000CAFF0220FEF7C7FF0720FEF7C4FF0A204C
:1015F000FEF7C1FF2820FEF7BEFF3220FEF7BBFF3B
:101600004420FEF7B8FF4220FEF7B5FF0620FEF7A4
:10161000B2FF00E05AE00E20FEF7ADFF1220FEF709
:10162000AAFF1420FEF7A7FF1720FEF7A4FFE12072
:10163000FEF798FFD020FEF79EFF0020FEF79BFFED
:101640000220FEF798FF0720FEF795FF0A20FEF71D
:1016500092FF2820FEF78FFF3120FEF78CFF5420E9
:10166000FEF789FF4720FEF786FF0E20FEF783FF77
:101670001C20FEF780FF1720FEF77DFF1B20FEF7E2
:101680007AFF1E20FEF777FF2A20FEF76BFF00206F
:10169000FEF771FF0020FEF76EFF0020FEF76BFFE4
:1016A000EF20FEF768FF2B20FEF75CFF0020FEF71F
:1016B00062FF0020FEF75FFF0120FEF75CFF3F2086
:1016C000FEF759FF2920FEF74DFF1DE7FE488088F1
:1016D00045F21031884240F07C87ED20FEF742FF52
:1016E0000120FEF748FFFE20FEF745FFEE20FEF743
:1016F00039FFDE20FEF73FFF2120FEF73CFFF120FF
:10170000FEF730FF0120FEF736FFDF20FEF72AFF4D
:101710001020FEF730FFC420FEF724FF8F20FEF7D5
:101720002AFFC620FEF71EFF0020FEF724FFE2205E
:10173000FEF721FFE220FEF71EFFE220FEF71BFF6F
:10174000BF20FEF70FFFAA20FEF715FFB020FEF71F
:1017500009FF0D20FEF70FFF0020FEF70CFF0D2004
:10176000FEF709FF0020FEF706FF1120FEF703FF3A
:101770000020FEF700FF1920FEF7FDFE0020FEF717
:10178000FAFE2120FEF7F7FE0020FEF7F4FE2D20E2
:10179000FEF7F1FE0020FEF7EEFE3D20FEF7EBFE29
:1017A0000020FEF7E8FE5D20FEF7E5FE0020FEF7D4
:1017B000E2FE5D20FEF7DFFE0020FEF7DCFEB1203A
:1017C000FEF7D0FE8020FEF7D6FE0020FEF7D3FE07
:1017D0008B20FEF7D0FE0020FEF7CDFE9620FEF710
:1017E000CAFE0020FEF7C7FEB220FEF7BBFE0020B7
:1017F000FEF7C1FE0020FEF7BEFE0220FEF7BBFE94
:101800000020FEF7B8FE0320FEF7B5FE0020FEF72D
:10181000B2FEB320FEF7A6FE0020FEF7ACFE0020CD
:10182000FEF7A9FE0020FEF7A6FE0020FEF7A3FEAD
:101830000020FEF7A0FE0020FEF79DFE0020FEF730
:101840009AFE0020FEF797FE0020FEF794FE00208F
:10185000FEF791FE0020FEF78EFE0020FEF78BFEC5
:101860000020FEF788FE0020FEF785FE0020FEF730
:1018700082FE0020FEF77FFE0020FEF77CFE0020A7
:10188000FEF779FE0020FEF776FE0020FEF773FEDD
:101890000020FEF770FE0020FEF76DFE0020FEF730
:1018A0006AFE0020FEF767FEB420FEF75BFE8B2089
:1018B000FEF761FE0020FEF75EFE9620FEF75BFE5F
:1018C0000020FEF758FEA120FEF755FE0020FEF78F
:1018D00052FEB520FEF746FE0220FEF74CFE002029
:1018E000FEF749FE0320FEF746FE0020FEF743FE0A
:1018F0000420FEF740FE0020FEF73DFEB620FEF776
:1019000031FE0020FEF737FE0020FEF734FEB72040
:10191000FEF728FE0020FEF72EFE0020FEF72BFE2D
:101920003F20FEF728FE0020FEF725FE5E20FEF792
:1019300022FE0020FEF71FFE6420FEF71CFE0020A2
:10194000FEF719FE8C20FEF716FE0020FEF713FEB0
:10195000AC20FEF710FE0020FEF70DFEDC20FEF7A7
:101960000AFE0020FEF707FE7020FEF704FE0020AE
:10197000FEF701FE9020FEF7FEFD0020FEF7FBFDC6
:10198000EB20FEF7F8FD0020FEF7F5FDDC20FEF76A
:10199000F2FD0020FEF7EFFDB820FEF7E3FD00208A
:1019A000FEF7E9FD0020FEF7E6FD0020FEF7E3FD6F
:1019B0000020FEF7E0FD0020FEF7DDFD0020FEF731
:1019C000DAFD0020FEF7D7FD0020FEF7D4FDBA2097
:1019D000FEF7C8FD2420FEF7CEFD0020FEF7CBFD6C
:1019E0000020FEF7C8FD0020FEF7C5FDC120FEF770
:1019F000B9FD2020FEF7BFFD0020FEF7BCFD5420FE
:101A0000FEF7B9FD0020FEF7B6FDFF20FEF7B3FD9F
:101A10000020FEF7B0FDC220FEF7A4FD0A20FEF76D
:101A2000AAFD0020FEF7A7FD0420FEF7A4FD00207C
:101A3000FEF7A1FDC320FEF795FD3C20FEF79BFDC0
:101A40000020FEF798FD3A20FEF795FD0020FEF7F6
:101A500092FD3920FEF78FFD0020FEF78CFD372028
:101A6000FEF789FD0020FEF786FD3C20FEF783FD92
:101A70000020FEF780FD3620FEF77DFD0020FEF7FA
:101A80007AFD3220FEF777FD0020FEF774FD2F204F
:101A9000FEF771FD0020FEF76EFD2C20FEF76BFDBA
:101AA0000020FEF768FD2920FEF765FD0020FEF707
:101AB00062FD2620FEF75FFD0020FEF75CFD24207E
:101AC000FEF759FD002001E058020020FEF753FD0B
:101AD0002420FEF750FD0020FEF74DFD2320FEF7E9
:101AE0004AFD0020FEF747FD3C20FEF744FD0020A4
:101AF000FEF741FD3620FEF73EFD0020FEF73BFDE0
:101B00003220FEF738FD0020FEF735FD2F20FEF7CE
:101B100032FD0020FEF72FFD2C20FEF72CFD0020CB
:101B2000FEF729FD2920FEF726FD0020FEF723FD04
:101B30002620FEF720FD0020FEF71DFD2420FEF7E5
:101B40001AFD0020FEF717FD2420FEF714FD0020EB
:101B5000FEF711FD2320FEF70EFD0020FEF70BFD22
:101B6000C420FEF7FFFC6220FEF705FD0020FEF713
:101B700002FD0520FEF7FFFC0020FEF7FCFC8420A0
:101B8000FEF7F9FC0020FEF7F6FCF020FEF7F3FC70
:101B90000020FEF7F0FC1820FEF7EDFC0020FEF719
:101BA000EAFCA420FEF7E7FC0020FEF7E4FC182086
:101BB000FEF7E1FC0020FEF7DEFC5020FEF7DBFC28
:101BC0000020FEF7D8FC0C20FEF7D5FC0020FEF725
:101BD000D2FC1720FEF7CFFC0020FEF7CCFC9520AE
:101BE000FEF7C9FC0020FEF7C6FCF320FEF7C3FC9D
:101BF0000020FEF7C0FCE620FEF7BDFC0020FEF74B
:101C0000BAFCC520FEF7AEFC3220FEF7B4FC002083
:101C1000FEF7B1FC4420FEF7AEFC0020FEF7ABFC63
:101C20006520FEF7A8FC0020FEF7A5FC7620FEF755
:101C3000A2FC0020FEF79FFC8820FEF79CFC002001
:101C4000FEF799FCC620FEF78DFC2020FEF793FCE2
:101C50000020FEF790FC1720FEF78DFC0020FEF719
:101C60008AFC0120FEF787FC0020FEF784FCC720D9
:101C7000FEF778FC0020FEF77EFC0020FEF77BFCE0
:101C80000020FEF778FC0020FEF775FCC820FEF768
:101C900069FC0020FEF76FFC0020FEF76CFC0020C2
:101CA000FEF769FC0020FEF766FCC920FEF75AFC2F
:101CB0000020FEF760FC0020FEF75DFC0020FEF730
:101CC0005AFC0020FEF757FC0020FEF754FC0020D1
:101CD000FEF751FC0020FEF74EFC0020FEF74BFC07
:101CE0000020FEF748FC0020FEF745FC0020FEF730
:101CF00042FC0020FEF73FFC0020FEF73CFC0020E9
:101D0000FEF739FC0020FEF736FC0020FEF733FC1E
:101D1000E020FEF727FC1620FEF72DFC0020FEF742
:101D20002AFC1C20FEF727FC0020FEF724FC2120C3
:101D3000FEF721FC0020FEF71EFC3620FEF71BFC00
:101D40000020FEF718FC4620FEF715FC0020FEF7E9
:101D500012FC5220FEF70FFC0020FEF70CFC642062
:101D6000FEF709FC0020FEF706FC7A20FEF703FCD4
:101D70000020FEF700FC8B20FEF7FDFB0020FEF7A5
:101D8000FAFB9920FEF7F7FB0020FEF7F4FBA820F2
:101D9000FEF7F1FB0020FEF7EEFBB920FEF7EBFBB0
:101DA0000020FEF7E8FBC420FEF7E5FB0020FEF76D
:101DB000E2FBCA20FEF7DFFB0020FEF7DCFBD220AF
:101DC000FEF7D9FB0020FEF7D6FBD920FEF7D3FBA8
:101DD0000020FEF7D0FBE020FEF7CDFB0020FEF751
:101DE000CAFBF320FEF7C7FB0020FEF7C4FBE1208F
:101DF000FEF7B8FB1620FEF7BEFB0020FEF7BBFB8C
:101E00001C20FEF7B8FB0020FEF7B5FB2220FEF7F2
:101E1000B2FB0020FEF7AFFB3620FEF7ACFB002044
:101E2000FEF7A9FB4520FEF7A6FB0020FEF7A3FB6B
:101E30005220FEF7A0FB0020FEF79DFB6420FEF77A
:101E40009AFB0020FEF797FB7A20FEF794FB002018
:101E5000FEF791FB8B20FEF78EFB0020FEF78BFB3D
:101E60009920FEF788FB0020FEF785FBA820FEF7EF
:101E700082FB0020FEF77FFBB920FEF77CFB0020F1
:101E8000FEF779FBC420FEF776FB0020FEF773FB1C
:101E9000CA20FEF770FB0020FEF76DFBD220FEF794
:101EA0006AFB0020FEF767FBD820FEF764FB0020EA
:101EB000FEF761FBE020FEF75EFB0020FEF75BFB18
:101EC000F320FEF758FB0020FEF755FBE220FEF75B
:101ED00049FB0520FEF74FFB0020FEF74CFB0B20D3
:101EE000FEF749FB0020FEF746FB1B20FEF743FBF5
:101EF0000020FEF740FB3420FEF73DFB0020FEF7FC
:101F00003AFB4420FEF737FB0020FEF734FB4F205E
:101F1000FEF731FB0020FEF72EFB6120FEF72BFBC6
:101F20000020FEF728FB7920FEF725FB0020FEF7B6
:101F300022FB8820FEF71FFB0020FEF71CFB9720EA
:101F4000FEF719FB0020FEF716FBA620FEF713FB99
:101F50000020FEF710FBB720FEF70DFB0020FEF778
:101F60000AFBC220FEF707FB0020FEF704FBC72098
:101F7000FEF701FB0020FEF7FEFAD120FEF7FBFA88
:101F80000020FEF7F8FAD620FEF7F5FA0020FEF75B
:101F9000F2FADD20FEF7EFFA0020FEF7ECFAF3206C
:101FA000FEF7E9FA0020FEF7E6FAE320FEF7DAFA98
:101FB0000520FEF7E0FA0020FEF7DDFA0A20FEF722
:101FC000DAFA0020FEF7D7FA1C20FEF7D4FA002038
:101FD000FEF7D1FA3320FEF7CEFA0020FEF7CBFA57
:101FE0004420FEF7C8FA0020FEF7C5FA5020FEF79D
:101FF000C2FA0020FEF7BFFA6220FEF7BCFA00200A
:10200000FEF7B9FA7820FEF7B6FA0020FEF7B3FA29
:102010008820FEF7B0FA0020FEF7ADFA9720FEF711
:10202000AAFA0020FEF7A7FAA620FEF7A4FA0020DD
:10203000FEF7A1FAB720FEF79EFA0020FEF79BFA02
:10204000C220FEF798FA0020FEF795FAC720FEF7A7
:1020500092FA0020FEF78FFAD120FEF78CFA0020CA
:10206000FEF789FAD520FEF786FA0020FEF783FAFC
:10207000DD20FEF780FA0020FEF77DFAF320FEF760
:102080007AFA0020FEF777FAE420FEF76BFA0120D7
:10209000FEF771FA0020FEF76EFA0120FEF76BFAE8
:1020A0000020FEF768FA0220FEF765FA0020FEF72E
:1020B00062FA2A20FEF75FFA0020FEF75CFA3C2065
:1020C000FEF759FA0020FEF756FA4B20FEF753FAB6
:1020D0000020FEF750FA5D20FEF74DFA0020FEF7D3
:1020E0004AFA7420FEF747FA0020FEF744FA8420EB
:1020F000FEF741FA0020FEF73EFA9320FEF73BFA86
:102100000020FEF738FAA220FEF735FA0020FEF78D
:1021100032FAB320FEF72FFA0020FEF72CFABE2089
:10212000FEF729FA0020FEF726FAC420FEF723FA6C
:102130000020FEF720FACD20FEF71DFA0020FEF762
:102140001AFAD320FEF717FA0020FEF714FADD2062
:10215000FEF711FA0020FEF70EFAF320FEF70BFA55
:102160000020FEF708FAE520FEF7FCF90020FEF754
:1021700002FA0020FEF7FFF90020FEF7FCF900202C
:10218000FEF7F9F90220FEF7F6F90020FEF7F3F961
:102190002920FEF7F0F90020FEF7EDF93C20FEF7CC
:1021A000EAF90020FEF7E7F94B20FEF7E4F90020FA
:1021B000FEF7E1F95D20FEF7DEF90020FEF7DBF91E
:1021C0007420FEF7D8F90020FEF7D5F98420FEF739
:1021D000D2F90020FEF7CFF99320FEF7CCF90020CA
:1021E000FEF7C9F9A220FEF7C6F90020FEF7C3F9F1
:1021F000B320FEF7C0F90020FEF7BDF9BE20FEF7C0
:10220000BAF90020FEF7B7F9C420FEF7B4F90020B0
:10221000FEF7B1F9CD20FEF7AEF90020FEF7ABF9DD
:10222000D320FEF7A8F90020FEF7A5F9DC20FEF781
:10223000A2F90020FEF79FF9F320FEF79CF9002099
:10224000FEF799F9E620FEF78DF91120FEF793F9D4
:102250000020FEF790F93420FEF78DF90020FEF7FC
:102260008AF95620FEF787F90020FEF784F97620D8
:10227000FEF781F90020FEF77EF97720FEF77BF963
:102280000020FEF778F96620FEF775F90020FEF7CA
:1022900072F98820FEF76FF90020FEF76CF999209B
:1022A000FEF769F90020FEF766F9BB20FEF763F937
:1022B0000020FEF760F99920FEF75DF90020FEF797
:1022C0005AF96620FEF757F90020FEF754F9552019
:1022D000FEF751F90020FEF74EF95520FEF74BF9B5
:1022E0000020FEF748F94520FEF745F90020FEF7EB
:1022F00042F94320FEF73FF90020FEF73CF9442065
:10230000FEF739F90020FEF736F9E720FEF72AF943
:102310003220FEF730F90020FEF72DF95520FEF7A8
:102320002AF90020FEF727F97620FEF724F900208D
:10233000FEF721F96620FEF71EF90020FEF71BF9D3
:102340006720FEF718F90020FEF715F96720FEF761
:1023500012F90020FEF70FF98720FEF70CF9002094
:10236000FEF709F99920FEF706F90020FEF703F9B8
:10237000BB20FEF700F90020FEF7FDF89920FEF7DC
:10238000FAF80020FEF7F7F87720FEF7F4F80020BF
:10239000FEF7F1F84420FEF7EEF80020FEF7EBF828
:1023A0005620FEF7E8F80020FEF7E5F82320FEF7B8
:1023B000E2F80020FEF7DFF83320FEF7DCF800201B
:1023C000FEF7D9F84520FEF7D6F80020FEF7D3F83F
:1023D000E820FEF7C7F80020FEF7CDF80020FEF752
:1023E000CAF89920FEF7C7F80020FEF7C4F8872046
:1023F000FEF7C1F80020FEF7BEF88820FEF7BBF814
:102400000020FEF7B8F87720FEF7B5F80020FEF7B9
:10241000B2F86620FEF7AFF80020FEF7ACF888208F
:10242000FEF7A9F80020FEF7A6F8AA20FEF7A3F809
:102430000020FEF7A0F8BB20FEF79DF80020FEF775
:102440009AF89920FEF797F80020FEF794F8662096
:10245000FEF791F80020FEF78EF85520FEF78BF876
:102460000020FEF788F85520FEF785F80020FEF7DB
:1024700082F84420FEF77FF80020FEF77CF8442025
:10248000FEF779F80020FEF776F85520FEF773F88E
:102490000020FEF770F8E920FEF764F8AA20FEF7A6
:1024A0006AF80020FEF767F80020FEF764F80020C5
:1024B000FEF761F80020FEF755F8AA20FEF75BF85A
:1024C000CF20FEF74FF80020FEF755F80020FEF76A
:1024D00052F80020FEF74FF80020FEF74CF80020DD
:1024E000FEF749F80020FEF746F80020FEF743F813
:1024F0000020FEF740F80020FEF73DF80020FEF730
:102500003AF80020FEF737F80020FEF734F80020F4
:10251000FEF731F80020FEF72EF80020FEF72BF82A
:102520000020FEF728F80020FEF725F8F020FEF73F
:1025300019F80020FEF71FF85020FEF71CF80020C5
:10254000FEF719F80020FEF716F80020FEF713F842
:10255000F320FEF707F80020FEF70DF8F920FEF74C
:1025600001F80620FEF707F81020FEF704F82920EE
:10257000FEF701F80020FDF7FEFF3A20FDF7F2FF1D
:102580005520FDF7F8FF1120FDF7ECFF642003F064
:10259000CBFC2920FDF7E6FF3520FDF7E3FF002007
:1025A000FDF7E9FF5120FDF7DDFFFF20FDF7E3FF19
:1025B0005320FDF7D7FF2C20FDF7DDFF5520FDF759
:1025C000D1FF8220FDF7D7FF2C20FDF7CBFF01F0D4
:1025D00048B8FE48808845F2105188427ED1552186
:1025E0004FF47040FDF7D9FFAA214FF20100FDF72B
:1025F000D4FF52214FF20200FDF7CFFF08214FF226
:102600000300FDF7CAFF01214FF20400FDF7C5FFEB
:102610000D214FF43040FDF7C0FF0D214BF20100BA
:10262000FDF7BBFF0D214BF20200FDF7B6FF342191
:102630004FF43640FDF7B1FF34214BF20160FDF756
:10264000ACFF34214BF20260FDF7A7FF0D214FF4E0
:102650003140FDF7A2FF0D214BF20110FDF79DFF68
:102660000D214BF20210FDF798FF34214FF4374053
:10267000FDF793FF34214BF20170FDF78EFF3421FB
:102680004BF20270FDF789FF00214FF43240FDF755
:1026900084FF00214BF20120FDF77FFF00214BF268
:1026A0000220FDF77AFF24214FF43840FDF775FF33
:1026B00024214BF60100FDF770FF24214BF60200A8
:1026C000FDF76BFF01214FF43F40FDF766FF0F213F
:1026D0004FF43340FDF761FF0F2100E0FEE34BF2C2
:1026E0000130FDF75AFF0F214BF20230FDF755FF85
:1026F00034214FF43940FDF750FF34214BF60110DF
:10270000FDF74BFF34214BF60210FDF746FF082181
:102710004FF43540FDF741FF08214BF20150FDF722
:102720003CFF08214BF20250FDF737FF03214FF425
:102730004240FDF732FF24214FF43A40FDF72DFFD0
:1027400024214BF60120FDF728FF24214BF602201F
:10275000FDF723FF00214FF43C40FDF71EFF7821D9
:102760004BF60140FDF719FF00214BF60240FDF743
:1027700014FF00214FF43D40FDF70FFF78214BF689
:102780000150FDF70AFF00214BF60250FDF705FF4F
:1027900000214FF43E40FDF700FF64214BF601603D
:1027A000FDF7FBFE00214FF45140FDF7F6FE33210B
:1027B0004DF20110FDF7F1FE00214DF20210FDF780
:1027C000ECFE34214DF20310FDF7E7FE00214DF23F
:1027D0000410FDF7E2FE3A214DF20510FDF7DDFE93
:1027E00000214DF20610FDF7D8FE4A214DF20710E8
:1027F000FDF7D3FE00214DF20810FDF7CEFE5C215F
:102800004DF20910FDF7C9FE00214DF20A10FDF747
:10281000C4FE81214DF20B10FDF7BFFE00214DF2E9
:102820000C10FDF7BAFEA6214DF20D10FDF7B5FE16
:1028300000214DF20E10FDF7B0FEE5214DF20F1014
:10284000FDF7ABFE01214DF21010FDF7A6FE13219E
:102850004DF21110FDF7A1FE01214DF21210FDF70E
:102860009CFE54214DF21310FDF797FE01214DF20D
:102870001410FDF792FE82214DF21510FDF78DFE2A
:1028800001214DF21610FDF788FECA214DF21710F6
:10289000FDF783FE02214DF21810FDF77EFE0021A8
:1028A0004DF21910FDF779FE02214DF21A10FDF7D5
:1028B00074FE01214DF21B10FDF76FFE02214DF257
:1028C0001C10FDF76AFE34214DF21D10FDF765FE68
:1028D00002214DF21E10FDF760FE67214DF21F1020
:1028E000FDF75BFE02214DF22010FDF756FE84211C
:1028F0004DF22110FDF751FE02214DF22210FDF79D
:102900004CFEA4214DF22310FDF747FE02214DF2AB
:102910002410FDF742FEB7214DF22510FDF73DFED4
:1029200002214DF22610FDF738FECF214DF227107F
:10293000FDF733FE02214DF22810FDF72EFEDE21B9
:102940004DF22910FDF729FE02214DF22A10FDF764
:1029500024FEF2214DF22B10FDF71FFE02214DF255
:102960002C10FDF71AFEFE214DF22D10FDF715FE7D
:1029700003214DF22E10FDF710FE10214DF22F1005
:10298000FDF70BFE03214DF23010FDF706FE33215B
:102990004DF23110FDF701FE03214DF23210FDF72B
:1029A000FCFD6D214DF23310FDF7F7FD00214FF4D2
:1029B0005240FDF7F2FD33214DF20120FDF7EDFD10
:1029C00000214DF20220FDF7E8FD01E05802002051
:1029D00034214DF20320FDF7E0FD00214DF20420EB
:1029E000FDF7DBFD3A214DF20520FDF7D6FD002174
:1029F0004DF20620FDF7D1FD4A214DF20720FDF7EB
:102A0000CCFD00214DF20820FDF7C7FD5C214DF201
:102A10000920FDF7C2FD00214DF20A20FDF7BDFDA2
:102A200081214DF20B20FDF7B8FD00214DF20C2065
:102A3000FDF7B3FDA6214DF20D20FDF7AEFD0021FF
:102A40004DF20E20FDF7A9FDE5214DF20F20FDF717
:102A5000A4FD01214DF21020FDF79FFD13214DF241
:102A60001120FDF79AFD01214DF21220FDF795FD91
:102A700054214DF21320FDF790FD01214DF2142059
:102A8000FDF78BFD82214DF21520FDF786FD01211A
:102A90004DF21620FDF781FDCA214DF21720FDF7FA
:102AA0007CFD02214DF21820FDF777FD00214DF24B
:102AB0001920FDF772FD02214DF21A20FDF76DFD80
:102AC00001214DF21B20FDF768FD02214DF21C2073
:102AD000FDF763FD34214DF21D20FDF75EFD02215F
:102AE0004DF21E20FDF759FD67214DF21F20FDF725
:102AF00054FD02214DF22020FDF74FFD84214DF2BF
:102B00002120FDF74AFD02214DF22220FDF745FD6F
:102B1000A4214DF22320FDF740FD02214DF2242097
:102B2000FDF73BFDB7214DF22520FDF736FD0221D3
:102B30004DF22620FDF731FDCF214DF22720FDF784
:102B40002CFD02214DF22820FDF727FDDE214DF25C
:102B50002920FDF722FD02214DF22A20FDF71DFD5F
:102B6000F2214DF22B20FDF718FD02214DF22C2011
:102B7000FDF713FDFE214DF22D20FDF70EFD032183
:102B80004DF22E20FDF709FD10214DF22F20FDF70B
:102B900004FD03214DF23020FDF7FFFC33214DF2FF
:102BA0003120FDF7FAFC03214DF23220FDF7F5FC50
:102BB0006D214DF23320FDF7F0FC00214FF453401E
:102BC000FDF7EBFC33214DF20130FDF7E6FC00216F
:102BD0004DF20230FDF7E1FC34214DF20330FDF7F8
:102BE000DCFC00214DF20430FDF7D7FC3A214DF218
:102BF0000530FDF7D2FC00214DF20630FDF7CDFC8B
:102C00004A214DF20730FDF7C8FC00214DF2083093
:102C1000FDF7C3FC5C214DF20930FDF7BEFC00213D
:102C20004DF20A30FDF7B9FC81214DF20B30FDF772
:102C3000B4FC00214DF20C30FDF7AFFCA6214DF2A3
:102C40000D30FDF7AAFC00214DF20E30FDF7A5FC7A
:102C5000E5214DF20F30FDF7A0FC01214DF21030BF
:102C6000FDF79BFC13214DF21130FDF796FC01217D
:102C70004DF21230FDF791FC54214DF21330FDF767
:102C80008CFC01214DF21430FDF787FC82214DF2BE
:102C90001530FDF782FC01214DF21630FDF77DFC69
:102CA000CA214DF21730FDF778FC02214DF21830A1
:102CB000FDF773FC00214DF21930FDF76EFC022187
:102CC0004DF21A30FDF769FC01214DF21B30FDF782
:102CD00064FC02214DF21C30FDF75FFC34214DF203
:102CE0001D30FDF75AFC02214DF21E30FDF755FC58
:102CF00067214DF21F30FDF750FC02214DF22030CC
:102D0000FDF74BFC84214DF22130FDF746FC0221FA
:102D10004DF22230FDF741FCA4214DF22330FDF7A6
:102D20003CFC02214DF22430FDF737FCB7214DF277
:102D30002530FDF732FC02214DF22630FDF72DFC47
:102D4000CF214DF22730FDF728FC02214DF228302B
:102D5000FDF723FCDE214DF22930FDF71EFC022198
:102D60004DF22A30FDF719FCF2214DF22B30FDF720
:102D700014FC02214DF22C30FDF70FFCFE214DF228
:102D80002D30FDF70AFC03214DF22E30FDF705FC36
:102D900010214DF22F30FDF700FC03214DF23030B1
:102DA000FDF7FBFB33214DF23130FDF7F6FB03213C
:102DB0004DF23230FDF7F1FB6D214DF23330FDF76E
:102DC000ECFB00214FF45440FDF7E7FB33214DF2BB
:102DD0000140FDF7E2FB00214DF20240FDF7DDFB73
:102DE00034214DF20340FDF7D8FB00214DF20440A1
:102DF000FDF7D3FB3A214DF20540FDF7CEFB002154
:102E00004DF20640FDF7C9FB4A214DF20740FDF7A0
:102E1000C4FB00214DF20840FDF7BFFB5C214DF2E1
:102E20000940FDF7BAFB00214DF20A40FDF7B5FB62
:102E300081214DF20B40FDF7B0FB00214DF20C401B
:102E4000FDF7ABFBA6214DF20D40FDF7A6FB0021DF
:102E50004DF20E40FDF7A1FBE5214DF20F40FDF7CD
:102E60009CFB01214DF21040FDF797FB13214DF221
:102E70001140FDF792FB01214DF21240FDF78DFB51
:102E800054214DF21340FDF788FB01214DF214400F
:102E9000FDF783FB82214DF21540FDF77EFB0121FA
:102EA0004DF21640FDF779FBCA214DF21740FDF7B0
:102EB00074FB02214DF21840FDF76FFB00214DF22B
:102EC0001940FDF76AFB02214DF21A40FDF765FB40
:102ED00001214DF21B40FDF760FB00E003E30221FE
:102EE0004DF21C40FDF759FB34214DF21D40FDF71A
:102EF00054FB02214DF21E40FDF74FFB67214DF2BE
:102F00001F40FDF74AFB02214DF22040FDF745FB33
:102F100084214DF22140FDF740FB02214DF2224079
:102F2000FDF73BFBA4214DF22340FDF736FB0221C8
:102F30004DF22440FDF731FBB7214DF22540FDF75E
:102F40002CFB02214DF22640FDF727FBCF214DF24D
:102F50002740FDF722FB02214DF22840FDF71DFB23
:102F6000DE214DF22940FDF718FB02214DF22A40E7
:102F7000FDF713FBF2214DF22B40FDF70EFB022172
:102F80004DF22C40FDF709FBFE214DF22D40FDF7DF
:102F900004FB03214DF22E40FDF7FFFA10214DF204
:102FA0002F40FDF7FAFA03214DF23040FDF7F5FA14
:102FB00033214DF23140FDF7F0FA03214DF232405A
:102FC000FDF7EBFA6D214DF23340FDF7E6FA0021F3
:102FD0004FF45540FDF7E1FA33214DF20150FDF772
:102FE000DCFA00214DF20250FDF7D7FA34214DF200
:102FF0000350FDF7D2FA00214DF20450FDF7CDFA4F
:103000003A214DF20550FDF7C8FA00214DF2065065
:10301000FDF7C3FA4A214DF20750FDF7BEFA002131
:103020004DF20850FDF7B9FA5C214DF20950FDF759
:10303000B4FA00214DF20A50FDF7AFFA81214DF2AA
:103040000B50FDF7AAFA00214DF20C50FDF7A5FA3E
:10305000A6214DF20D50FDF7A0FA00214DF20E50C1
:10306000FDF79BFAE5214DF20F50FDF796FA01218D
:103070004DF21050FDF791FA13214DF21150FDF76A
:103080008CFA01214DF21250FDF787FA54214DF2CE
:103090001350FDF782FA01214DF21450FDF77DFA2D
:1030A00082214DF21550FDF778FA01214DF21650AC
:1030B000FDF773FACA214DF21750FDF76EFA02219F
:1030C0004DF21850FDF769FA00214DF21950FDF745
:1030D00064FA02214DF21A50FDF75FFA01214DF218
:1030E0001B50FDF75AFA02214DF21C50FDF755FA1C
:1030F00034214DF21D50FDF750FA02214DF21E50C1
:10310000FDF74BFA67214DF21F50FDF746FA0221F9
:103110004DF22050FDF741FA84214DF22150FDF788
:103120003CFA02214DF22250FDF737FAA4214DF26C
:103130002350FDF732FA02214DF22450FDF72DFA0B
:10314000B7214DF22550FDF728FA02214DF2265005
:10315000FDF723FACF214DF22750FDF71EFA022189
:103160004DF22850FDF719FADE214DF22950FDF7F6
:1031700014FA02214DF22A50FDF70FFAF2214DF216
:103180002B50FDF70AFA02214DF22C50FDF705FAFB
:10319000FE214DF22D50FDF700FA03214DF22E5085
:1031A000FDF7FBF910214DF22F50FDF7F6F9032141
:1031B0004DF23050FDF7F1F933214DF23150FDF76A
:1031C000ECF903214DF23250FDF7E7F96D214DF294
:1031D0003350FDF7E2F900214FF45640FDF7DDF9D9
:1031E00033214DF20160FDF7D8F900214DF2026064
:1031F000FDF7D3F934214DF20360FDF7CEF900213C
:103200004DF20460FDF7C9F93A214DF20560FDF772
:10321000C4F900214DF20660FDF7BFF94A214DF2D5
:103220000760FDF7BAF900214DF20860FDF7B5F926
:103230005C214DF20960FDF7B0F900214DF20A6002
:10324000FDF7ABF981214DF20B60FDF7A6F90021E6
:103250004DF20C60FDF7A1F9A6214DF20D60FDF7CE
:103260009CF900214DF20E60FDF797F9E5214DF232
:103270000F60FDF792F901214DF21060FDF78DF915
:1032800013214DF21160FDF788F901214DF2126012
:10329000FDF783F954214DF21360FDF77EF901210A
:1032A0004DF21460FDF779F982214DF21560FDF7BA
:1032B00074F901214DF21660FDF76FF9CA214DF244
:1032C0001760FDF76AF902214DF21860FDF765F904
:1032D00000214DF21960FDF760F902214DF21A60EC
:1032E000FDF75BF901214DF21B60FDF756F9022154
:1032F0004DF21C60FDF751F934214DF21D60FDF7D0
:103300004CF902214DF21E60FDF747F967214DF29D
:103310001F60FDF742F902214DF22060FDF73DF9F3
:1033200084214DF22160FDF738F902214DF222602F
:10333000FDF733F9A4214DF22360FDF72EF90221A8
:103340004DF22460FDF729F9B7214DF22560FDF714
:1033500024F902214DF22660FDF71FF9CF214DF22D
:103360002760FDF71AF902214DF22860FDF715F9E3
:10337000DE214DF22960FDF710F902214DF22A609D
:10338000FDF70BF9F2214DF22B60FDF706F9022152
:103390004DF22C60FDF701F9FE214DF22D60FDF795
:1033A000FCF803214DF22E60FDF7F7F810214DF2E5
:1033B0002F60FDF7F2F803214DF23060FDF7EDF8D4
:1033C00033214DF23160FDF7E8F803214DF2326010
:1033D000FDF7E3F86D214DF23360FDF7DEF855217E
:1033E0004FF47040FDF7D9F8AA214FF20100FDF724
:1033F000D4F852214FF20200FDF7CFF808214FF226
:103400000300FDF7CAF800214FF20400FDF7C5F8EC
:10341000CC214FF43140FDF7C0F800214BF20110F0
:10342000FDF7BBF805214FF43640FDF7B6F87021E3
:103430004FF43740FDF7B1F870214BF20170FDF702
:10344000ACF801214FF43840FDF7A7F803214BF603
:103450000100FDF7A2F803214BF60200FDF79DF8ED
:1034600003214BF60300FDF798F802214FF43C408E
:10347000FDF793F800214BF60140FDF78EF800218F
:103480004BF60240FDF789F8D0214FF44940FDF793
:1034900084F802214CF60110FDF77FF850214CF61C
:1034A0000210FDF77AF850214CF60310FDF775F87D
:1034B00050214CF60410FDF770F800214FF45450E1
:1034C000FDF76BF855214FF46850FDF766F84FF49F
:1034D0008850FDF747F8782002F0DEFC4FF42450C6
:1034E000FDF740F8BDE0FE48808841F66311884250
:1034F000F8D1E220FDF736F81D20FDF73CF8022058
:10350000FDF739F80420FDF736F8642002F0C4FC1A
:10351000E020FDF727F80120FDF72DF80A2002F042
:1035200003FDE020FDF71EF80320FDF724F80C2032
:1035300002F0FAFC0120FDF715F80A2002F0F4FC75
:10354000E620FDF70FF82F20FDF715F8FF20FDF717
:1035500012F8FF20FDF70FF8B020FDF703F8202048
:10356000FDF709F80020FDF706F80320FDF703F842
:1035700040F21F30FCF7FFFF0120FCF7FCFF40F298
:10358000DF10FCF7F8FF0020FCF7F5FFB420FCF794
:10359000E9FF0420FCF7EFFF40F21F40FCF7EBFFD0
:1035A0000020FCF7E8FF2E20FCF7E5FF0020FCF7E9
:1035B000E2FF0020FCF7DFFF0020FCF7DCFF00202B
:1035C000FCF7D9FFB620FCF7CDFF0220FCF7D3FFB4
:1035D0004FF40370FCF7CFFF0020FCF7CCFF17205F
:1035E000FCF7C9FF1520FCF7C6FF0020FCF7C3FF5E
:1035F0000020FCF7C0FFF020FCF7B4FF0320FCF72D
:10360000BAFF2920FCF7AEFFD020FCF7ABFF00206B
:10361000FCF7B1FFBE20FCF7A5FF0520FCF7ABFFD0
:10362000FE20FCF7A8FF0120FCF7A5FF0020FCF717
:10363000A2FF0020FCF79FFF0020FCF79CFFB820B2
:10364000FCF790FF0320FCF796FF0120FCF793FFA7
:10365000BA20FCF787FF0120FCF78DFF6420FDF7FF
:103660005CFA0020FDF785FA01209E4908604FF6BC
:10367000FF70FDF7D3FB21B000BD2DE9F04F0546EB
:103680000E4617469846DDF824A04FF0000B781B35
:10369000401C1FFA80FB344614E021462846FCF704
:1036A000ABFFFCF78CFF4FF0000907E04FF0D8406C
:1036B000A0F880A009F101001FFA80F9D945F5DBD7
:1036C000601C84B24445E8DDBDE8F08F2DE9F84F79
:1036D00007460D4690469946DDF828B0A8EB07004E
:1036E000401C1FFA80FAA9EB0500401C80B2009034
:1036F000002414E0281981B23846FCF77DFFFCF75E
:103700005EFF002607E004FB0A603BF810007649E4
:103710000880701C86B25645F5DB601C84B20098A8
:103720008442E7DBBDE8F88F2DE9FF4F84B0814686
:103730008A460020039002900698A0EB090507989E
:10374000A0EB0A06CDF80490CDF800A0002D01DD15
:10375000012705E00DB9002702E04FF0FF376D4269
:10376000002E02DD4FF0010806E016B94FF0000808
:1037700002E04FF0FF387642B54201DD2C4600E012
:1037800034464FF0000B21E0009A91B2019A90B2BA
:10379000FDF73EF9039828440390029830440290C4
:1037A0000398A04205DD0398001B0390019838445C
:1037B00001900298A04205DD0298001B029000983B
:1037C000404400900BF101001FFA80FB601C834510
:1037D000DADD08B0BDE8F08FF0B504460D461646B8
:1037E0001F462B46324629462046FFF79DFF3B46A3
:1037F000224629462046FFF797FF3B463246394688
:103800002046FFF791FF3B46324629463046FFF7F8
:103810008BFFF0BD2DE9F04306460F46904600248D
:1038200045460320A0EB48093CE07A1B91B23219CF
:1038300090B2FDF7EDF83A1B91B2721990B2FDF714
:10384000E7F83A1991B2721990B2FDF7E1F87A19D6
:1038500091B2321990B2FDF7DBF87A1991B2321BAE
:1038600090B2FDF7D5F83A1991B2721B90B2FDF7FC
:10387000CFF87A1B91B2321B90B2FDF7C9F83A1B10
:1038800091B2721B90B2FDF7C3F8641CB9F1000F3E
:1038900003DAA000801D814404E0601B80000A3030
:1038A00081446D1EAC42C0DDBDE8F0832DE9F84FC8
:1038B00080460E4617461C46B3462046E31704EBE7
:1038C0005373DB1021464FEAE47C04EB5C7C4FEA47
:1038D000EC0CA4EBCC0CBCF1000F0AD006E000000D
:1038E00058020020BC8240428000006C4FF0010C66
:1038F00001E04FF0000C6344224604EBD27C4FEA17
:103900006C0C03FB0CF3DBB20093A7F12000C7B2F1
:10391000002556E00C2C07D107EB47009F4901EB2F
:10392000800010F8059013E0102C05D19C4800EBA6
:10393000071010F805900BE0182C07D107EBC70013
:10394000984901EB800010F8059001E0BDE8F88F80
:103950004FF0000A2FE009F0800030B19248028851
:1039600031464046FDF762F807E00A9828B98F48CB
:10397000028831464046FDF759F84FEA49604FEA60
:103980001069701C86B28A484088B04200DCDDE7CE
:10399000A6EB0B00A0420AD15E4608F101001FFA17
:1039A00080F883480088404500DCCFE706E00AF154
:1039B000010000F0FF0ABAF1080FCCDB00BF681C61
:1039C000C5B200988542A5DB00BFBFE710B502462F
:1039D000012000E050430B1EA1F10104E1B2F9D136
:1039E00010BD2DE9FF4F81B0074691461E460E9D42
:1039F0004FF0000A002439E0301B401EC1B20A20FB
:103A0000FFF7E4FFB9FBF0F00A21B0FBF1F201FB94
:103A10001208BAF1000F16D1701EA04213DDB8F1E2
:103A2000000F0ED10020AB4605EBDB71491001FB06
:103A30000471009088B22B4620220299FFF736FFCE
:103A400012E04FF0010A0020AB4605EBDB71491094
:103A500001FB0471009088B208F13001CAB22B4614
:103A60000299FFF723FF00BF601CC4B2B442C3DB5E
:103A700005B0BDE8F08F2DE9FF4F82B006469246B3
:103A80001F46DDE90F480020019000254DE0781B1E
:103A9000401EC1B20A20FFF799FFBAFBF0F00A21DD
:103AA000B0FBF1F201FB1209019850BB781EA8424D
:103AB00027DDB9F1000F22D108F0800078B108F0BD
:103AC0000100A34604EBDB71491001FB0561009086
:103AD00088B2234630220399FFF7E8FE0EE008F093
:103AE0000100A34604EBDB71491001FB0561009066
:103AF00088B2234620220399FFF7D8FE13E0012065
:103B0000019008F00100A34604EBDB71491001FBB2
:103B10000561009088B209F13001CAB223460399C9
:103B2000FFF7C4FE00BF681CC5B2BD42AFDB06B0E4
:103B3000BDE8F08F2DE9F84704460D4690469946BA
:103B4000DDE9096704F0FF0A08EB04001FFA80F8BA
:103B500009EB05001FFA80F916E0444502DB5446E4
:103B6000A81985B24D4500DB14E0002000903A789A
:103B7000334629462046FFF799FE304606EBD071C2
:103B800004EB61018CB27F1C38787E2802DC387827
:103B90002028E2DA00BFBDE8F8870000A6910008FF
:103BA0001A9600080A9C0008240000202600002025
:103BB000580200201CB50121112003F085F91C20BA
:103BC000009000208DF8040003208DF805000120EE
:103BD0008DF807006946354802F0F4FB012000909B
:103BE00002208DF807006946314802F0EBFB1CBD4E
:103BF00010B5044614B101202E4908702D480078F4
:103C0000002837D01021294802F03EFC78B1082165
:103C1000264802F039FC50B10421244802F034FC5B
:103C200028B10121224802F02FFC012822D11420C2
:103C300002F07AF900201F49087010211B4802F099
:103C400023FC08B9012010BD0821184802F01CFC13
:103C500008B90220F7E70421144802F015FC08B95E
:103C60000320F0E70121124802F00EFC01281BD1CD
:103C70000420E8E710210D4802F006FC012813D1CA
:103C800008210A4802F000FC01280DD10421074850
:103C900002F0FAFB012807D10121054802F0F4FBEC
:103CA00010B90120034908700020CCE70010024041
:103CB000000002402800002070B58AB005460E467C
:103CC00014460121022003F059F90121042003F0D8
:103CD000FBF803220621F64802F0FFFB032207212E
:103CE000F34802F0FAFB03220821F14802F0F5FB49
:103CF00003220921EE4802F0F0FB40200890022048
:103D00008DF8240003208DF8250000208DF8260072
:103D100001208DF8270008A9E54802F053FB802018
:103D2000089002208DF8240003208DF82500002043
:103D30008DF8260001208DF8270008A9DC4802F044
:103D400041FB4FF48070089002208DF8240003207E
:103D50008DF8250000208DF8260001208DF8270021
:103D600008A9D34802F02EFB4FF4007008900220FF
:103D70008DF8240003208DF8250000208DF8260002
:103D800001208DF8270008A9C94802F01BFB05A8EF
:103D900003F043FDADF814600020ADF81600069561
:103DA000ADF81C0005A9C34803F003FD6020ADF881
:103DB00000000120ADF802000020ADF80C002088C2
:103DC00002906946BB4803F089FD0821B94803F019
:103DD00012FF608802906946B64803F0B8FD0821DA
:103DE000B44803F011FFA08802906946B14803F07F
:103DF000FBFD0821AF4803F014FFE08802906946FC
:103E0000AC4803F057FE0821AA4803F013FF012134
:103E1000A84804F048F90121A64803F035FD012126
:103E2000A44803F04FFD0AB070BD70B58AB00546D6
:103E30000E4614460121082003F08FF801210846A0
:103E400003F042F8022200219B4802F046FB0222C6
:103E50000121994802F041FB02221146964802F0E6
:103E60003CFB02220321944802F037FB012008901A
:103E700002208DF8240003208DF8250000208DF805
:103E8000260001208DF8270008A98B4802F09AFA35
:103E9000022008908DF8240003208DF825000020D2
:103EA0008DF8260001208DF8270008A9824802F02D
:103EB00089FA0420089002208DF8240003208DF850
:103EC000250000208DF8260001208DF8270008A984
:103ED000794802F077FA0820089002208DF8240033
:103EE00003208DF8250000208DF8260001208DF894
:103EF000270008A9704802F065FAADF814600020A8
:103F0000ADF816000695ADF81C0005A96B4803F046
:103F100050FC6020ADF800000120ADF80200002048
:103F2000ADF80C00208802906946644803F0D6FC86
:103F3000608802906946614803F009FDA0880290FC
:103F400069465E4803F050FDE088029069465B4890
:103F500003F0B0FD0121594803F096FC01215748B8
:103F600003F0B0FC0AB070BD704710B50446B4F958
:103F70000000002809DDB4F90010504803F007FEE6
:103F800000214E4803F005FE0DE0B4F900000028C2
:103F900009DA0021494803F0FAFDB4F90000414272
:103FA000464803F0F6FDB4F90200002809DDB4F933
:103FB0000210424803F0EFFD0021404803F0EDFD00
:103FC0000DE0B4F90200002809DA00213B4803F0B3
:103FD000E2FDB4F902004142384803F0DEFDB4F9D5
:103FE0000400002809DDB4F90410324803F0CFFDC5
:103FF0000021304803F0CDFD0DE0B4F904000028A5
:1040000009DA00212B4803F0C2FDB4F90400414253
:10401000284803F0BEFDB4F90600002809DDB4F914
:104020000610244803F0B7FD0021224803F0B5FD37
:104030000DE0B4F90600002809DA00211D4803F05C
:10404000AAFDB4F9060041421A4803F0A6FD2088F3
:1040500068BB608858BBA08848BBE08838BB4FF479
:104060007A71164803F093FD4FF47A71134803F008
:1040700090FD4FF47A71114803F08DFD4FF47A7181
:104080000E4803F08AFD4FF47A710A4803F07FFD71
:104090004FF47A71074803F07CFD4FF47A710548BC
:1040A00003F079FD4FF47A71024803F076FD10BDFC
:1040B000000802400004014000000240000C0040E3
:1040C0001FB50121084602F048FF4FF0804004F080
:1040D00056F80020ADF80C00ADF8060049F63F4058
:1040E00002905320ADF8040000208DF80E0001A9C5
:1040F0004FF0804003F05DFB0121880704F00EF8CB
:1041000001221146900703F0F5FF1C208DF80000F6
:1041100001208DF8030002208DF801008DF80200C7
:10412000684602F05EF800214FF0804003F0CAFBC1
:104130001FBD10B500214FF0804003F0C3FB10BD40
:1041400010B50121880703F0BDFB10BD10B52DEDA2
:10415000088B044694ED100B84ED220B94ED242B78
:10416000B0EE420AF0EE620A94ED222BB0EE421A53
:10417000F0EE621A53EC102B51EC110B04F024FFFB
:10418000C4E91C0194ED1C2BB0EE420AF0EE620A69
:1041900094ED202BB0EE421AF0EE621A53EC102B85
:1041A00051EC110B04F00CFBC4E9200194ED282B19
:1041B000B0EE420AF0EE620A94ED202BB0EE421A05
:1041C000F0EE621A53EC102B51EC110B04F0C6FE0A
:1041D00004D294ED280B84ED200B22E094ED281BF3
:1041E000B0EE410AF0EE610A51EC100B04F0DCFA7B
:1041F00041EC180B94ED201BB0EE410AF0EE610A81
:1042000053EC102B04F0AAFE0BD294ED281BB0EE59
:10421000410AF0EE610A51EC100B04F0C5FAC4E952
:10422000200194ED1E2BB0EE420AF0EE620A94EDEE
:104230001C2BB0EE421AF0EE621A53EC102B51EC2C
:10424000110B04F0C1FE41EC1A0B94ED1A1BB0EEF9
:10425000410AF0EE610A53EC102B04F081FD41ECB1
:10426000180B94ED202BB0EE420AF0EE620A94EDAA
:10427000182BB0EE421AF0EE621A53EC102B51ECF0
:10428000110B04F06DFD41EC1A0B94ED1C2BB0EEFC
:10429000420AF0EE620A94ED162BB0EE421AF0EEEE
:1042A000621A53EC102B51EC110B04F059FD41EC48
:1042B0001B0B53EC1A2B04F083FA41EC190B53EC53
:1042C000182B04F07DFAC4E9260194ED2A2BB0EEF8
:1042D000420AF0EE620A94ED262BB0EE421AF0EE9E
:1042E000621A53EC102B51EC110B04F037FE04D280
:1042F00094ED2A0B84ED260B22E094ED2A1BB0EE00
:10430000410AF0EE610A51EC100B04F04DFA41EC59
:10431000180B94ED261BB0EE410AF0EE610A53EC47
:10432000102B04F01BFE0BD294ED2A1BB0EE410AB9
:10433000F0EE610A51EC100B04F036FAC4E92601E4
:1043400094ED1C0B84ED1E0BBDEC088B10BD10B55D
:104350002DED088B044694ED0E2BB0EE420AF0EEE4
:10436000620A94ED0C2BB0EE421AF0EE621A53EC96
:10437000102B51EC110B04F027FEC4E9060194ED5B
:10438000062BB0EE420AF0EE620A94ED0A2BB0EE74
:10439000421AF0EE621A53EC102B51EC110B04F0A0
:1043A0000FFAC4E90A0194ED142BB0EE420AF0EEC4
:1043B000620A94ED0A2BB0EE421AF0EE621A53EC48
:1043C000102B51EC110B04F0C9FD04D294ED140B29
:1043D00084ED0A0B22E094ED141BB0EE410AF0EEDE
:1043E000610A51EC100B04F0DFF941EC180B94ED6D
:1043F0000A1BB0EE410AF0EE610A53EC102B04F0F8
:10440000ADFD0BD294ED141BB0EE410AF0EE610A43
:1044100051EC100B04F0C8F9C4E90A0194ED082B23
:10442000B0EE420AF0EE620A94ED062BB0EE421AAC
:10443000F0EE621A53EC102B51EC110B04F0C4FD9A
:1044400041EC1A0B94ED041BB0EE410AF0EE610A48
:1044500053EC102B04F084FC41EC180B94ED0A2B68
:10446000B0EE420AF0EE620A94ED022BB0EE421A70
:10447000F0EE621A53EC102B51EC110B04F070FCAF
:1044800041EC1A0B94ED062BB0EE420AF0EE620AF4
:1044900094ED002BB0EE421AF0EE621A53EC102BA2
:1044A00051EC110B04F05CFC41EC1B0B53EC1A2B90
:1044B00004F086F941EC190B53EC182B04F080F949
:1044C000C4E9100194ED122BB0EE420AF0EE620A3C
:1044D00094ED102BB0EE421AF0EE621A53EC102B52
:1044E00051EC110B04F03AFD04D294ED120B84ED63
:1044F000100B22E094ED121BB0EE410AF0EE610ABF
:1045000051EC100B04F050F941EC180B94ED101B1A
:10451000B0EE410AF0EE610A53EC102B04F01EFDE0
:104520000BD294ED121BB0EE410AF0EE610A51EC91
:10453000100B04F039F9C4E9100194ED060B84ED79
:10454000080BBDEC088B10BD10B52DED088B044693
:1045500094ED0E2BB0EE420AF0EE620A94ED0C2BB5
:10456000B0EE421AF0EE621A53EC102B51EC110B24
:1045700004F02AFDC4E9060194ED062BB0EE420AD0
:10458000F0EE620A94ED0A2BB0EE421AF0EE621AD7
:1045900053EC102B51EC110B04F012F9C4E90A0191
:1045A00094ED142BB0EE420AF0EE620A94ED0A2B61
:1045B000B0EE421AF0EE621A53EC102B51EC110BD4
:1045C00004F0CCFC04D294ED140B84ED0A0B22E031
:1045D00094ED141BB0EE410AF0EE610A51EC100BA1
:1045E00004F0E2F841EC180B94ED0A1BB0EE410A1E
:1045F000F0EE610A53EC102B04F0B0FC0BD294EDFA
:10460000141BB0EE410AF0EE610A51EC100B04F0FD
:10461000CBF8C4E90A0194ED082BB0EE420AF0EEA3
:10462000620A94ED062BB0EE421AF0EE621A53ECD9
:10463000102B51EC110B04F0C7FC41EC1A0B94ED5C
:10464000041BB0EE410AF0EE610A53EC102B04F0AB
:1046500087FB41EC180B94ED0A2BB0EE420AF0EE0A
:10466000620A94ED022BB0EE421AF0EE621A53EC9D
:10467000102B51EC110B04F073FB41EC1A0B94ED71
:10468000062BB0EE420AF0EE620A94ED002BB0EE7B
:10469000421AF0EE621A53EC102B51EC110B04F09D
:1046A0005FFB41EC1B0B53EC1A2B04F089F841EC37
:1046B000190B53EC182B04F083F8C4E9100194EDA6
:1046C000122BB0EE420AF0EE620A94ED102BB0EE1F
:1046D000421AF0EE621A53EC102B51EC110B04F05D
:1046E0003DFC04D294ED120B84ED100B22E094ED0E
:1046F000121BB0EE410AF0EE610A51EC100B04F00F
:1047000053F841EC180B94ED101BB0EE410AF0EE9B
:10471000610A53EC102B04F021FC0BD294ED121B18
:10472000B0EE410AF0EE610A51EC100B04F03CF8D7
:10473000C4E9100194ED060B84ED080BBDEC088B69
:1047400010BD00B52DED048B83B00121880703F067
:10475000E8FC01287DD1002001900290E948007812
:10476000012877D1E84AE949E94800F099FAE64892
:10477000FFF7EDFDE448FFF7E9FCE34890ED261B69
:10478000B0EE410AF0EE610A51EC100B04F024FA8D
:1047900000B2ADF80400DC4890ED261BB0EE410AF3
:1047A000F0EE610A51EC100B04F016FA00B2ADF80D
:1047B0000800D84AD5490831D74800F071FAD548E1
:1047C000FFF7C5FDD348FFF7C1FCD24890ED261B8B
:1047D000B0EE410AF0EE610A51EC100B04F0FCF966
:1047E00000B2ADF80600CB4890ED261BB0EE410AB2
:1047F000F0EE610A51EC100B04F0EEF900B2ADF8E6
:104800000A00C14890ED061BB0EE410AF0EE610AC5
:104810009FEDC21B53EC112B51EC100B04F09EFBCF
:1048200055D8BC4890ED061BB0EE410AF0EE610A87
:104830009FEDBA1B53EC112B51EC100B04F08EFBC7
:10484000EED89FEDB80BB94880ED0C0BB848007856
:1048500001E053E13CE004F033FAB44AC2E90E014E
:104860001046FFF771FEBDF9060004F012FA41ECA4
:10487000190BAE4890ED101BB0EE410AF0EE610A44
:1048800053EC102B51EC190B04F09EFB41EC180B70
:1048900004F0A2F900B2ADF80600BDF9040004F07E
:1048A000F8F941EC190BA14890ED101BB0EE410A4C
:1048B000F0EE610A53EC102B51EC190B03F080FF62
:1048C00041EC180B04F088F900B2ADF8040056E092
:1048D0008C484078012803D08A48807801284ED13E
:1048E000894A8A498A4800F079FA8748FFF72FFDFC
:1048F0008548FFF72BFC844890ED261BB0EE410A5B
:10490000F0EE610A51EC100B04F066F900B2ADF85C
:1049100004007D4890ED261BB0EE410AF0EE610ADE
:1049200051EC100B04F058F900B2ADF80800794AC8
:1049300076490831784800F051FA7648FFF707FDCC
:104940007448FFF703FC734890ED261BB0EE410A54
:10495000F0EE610A51EC100B04F03EF900B2ADF834
:1049600006006C4890ED261BB0EE410AF0EE610A9D
:1049700051EC100B04F030F900B2ADF80A006248B7
:1049800090ED061BB0EE410AF0EE610A03F002FF63
:10499000B0EE408AF0EE608A9FED660B53EC102B70
:1049A00051EC180B04F0A0F946D25A4890ED061BC2
:1049B000B0EE410AF0EE610A03F0ECFEB0EE408A80
:1049C000F0EE608A9FED5B0B53EC102B51EC180B53
:1049D00004F08AF9E8D24B48007801282DD1002054
:1049E0004849087001200871002004E0002101AA54
:1049F00022F81010401C0428F8DB44480021016014
:104A000041608160C1609FED4D0B3F4880ED0A0B16
:104A10009FED4A0B3F4880ED0A0B9FED480B3A484B
:104A200080ED200B9FED450B3A4880ED200B9FED6C
:104A3000430B3E4880ED0A0B58E03248407801288D
:104A400028D100202F4948700120C870002004E0C0
:104A5000002101AA22F81010401C0428F8DB2B4882
:104A60000021016041608160C1609FED340B2648E8
:104A700080ED0A0B9FED310B264880ED0A0B9FED70
:104A80002F0B214880ED200B9FED2C0B214880ED52
:104A9000200B2BE01B488078012827D100201949E2
:104AA000887001204871002004E0002101AA22F84A
:104AB0001010401C0428F8DB1448002101604160FC
:104AC0008160C1609FED1D0B0F4880ED0A0B9FEDCB
:104AD0001B0B104880ED0A0B9FED180B0A4880ED68
:104AE000200B9FED160B0B4880ED200B01A8FFF764
:104AF0003CFA0121880703F025FB00BF03B0BDECA1
:104B0000048B00BD30000020380000206802002027
:104B100000040040E8000020000800400000000001
:104B200000002E400000000000004B4098010020D3
:104B300042020020000000000000E03F00000000F2
:104B40000000000000B587B00121022002F005FA44
:104B50004FF6FF7005900020ADF81000ADF8120080
:104B6000ADF8180004A9EC4802F023FE01A803F0F8
:104B70002EFA0F20ADF80C000020ADF8040001A9BA
:104B8000E54803F0EDF90F20ADF80C000420ADF876
:104B9000040001A9E04803F0E3F900231A460321C9
:104BA000DD4803F07AFB0021DB4802F04BFE0121D7
:104BB000D94802F087FE07B000BD00B587B00121DB
:104BC000042002F0CAF94FF6FF7005900020ADF8FE
:104BD0001000ADF81200ADF8180004A9CF4802F09B
:104BE000E8FD01A803F0F3F90F20ADF80C00002058
:104BF000ADF8040001A9C94803F0B2F90F20ADF8DF
:104C00000C000420ADF8040001A9C44803F0A8F981
:104C100000231A460321C14803F03FFB0021BF488F
:104C200002F010FE0121BD4802F04CFE07B000BDAD
:104C30001CB50121172002F047F902208DF804006D
:104C4000C020009001208DF8070003208DF805009A
:104C50006946B34801F0B6FB02220621B04801F0D4
:104C60003CFC02220721AE4801F037FC02208DF8FF
:104C700004003020009001208DF8070003208DF8FB
:104C800005006946A64801F09DFB02220421A448C4
:104C900001F023FC02220521A14801F01EFC1CBDED
:104CA0002DE9F0412DED0A8B06460C46154630469F
:104CB00002F0CCFD07B20021304602F0C3FD994856
:104CC00090ED082BB0EE420AF0EE620A90ED062B52
:104CD000B0EE421AF0EE621A53EC102B51EC110BAD
:104CE00004F03EF841EC1B0B384603F0D2FF41ECD8
:104CF0001C0B53EC1B2B03F017FE41EC1A0B8948DD
:104D000090ED001BB0EE410AF0EE610A53EC102B5F
:104D100051EC1A0B04F024F841EC190B9FED820BB7
:104D200053EC102B04F01CF841EC180B9FED800B9A
:104D300053EC102B04F014F8C5E92401794890EDE8
:104D4000082BB0EE420AF0EE620A90ED062BB0EEB0
:104D5000421AF0EE621A53EC102B51EC110B03F0D7
:104D6000FFFF41EC1B0B384603F093FF41EC1C0B9B
:104D700053EC1B2B03F0D8FD41EC1A0B694890ED66
:104D8000001BB0EE410AF0EE610A53EC102B51EC1F
:104D90001A0B03F0E5FF41EC190B9FED630B53EC8D
:104DA000102B03F0DDFF41EC180B94ED001BB0EE6F
:104DB000410AF0EE610A53EC102B03F001FDC4E947
:104DC000000194ED000B85ED0E0BBDEC0A8BBDE8E8
:104DD000F0819FED590B80ED000B70472DE9F041FC
:104DE0002DED0A8B06460C461546304602F02EFD88
:104DF00007B20021304602F025FD4A4890ED082B0D
:104E0000B0EE420AF0EE620A90ED062BB0EE421AC6
:104E1000F0EE621A53EC102B51EC110B03F0A0FFD3
:104E200041EC1B0B384603F034FF41EC1C0B53ECF8
:104E30001B2B03F079FD41EC1A0B3A4890ED001B57
:104E4000B0EE410AF0EE610A53EC102B51EC1A0B54
:104E500003F086FF41EC190B9FED330B53EC102B45
:104E600003F07EFF41EC180B9FED310B53EC102B40
:104E700003F076FFC5E924012A4890ED082BB0EE37
:104E8000420AF0EE620A90ED062BB0EE421AF0EE06
:104E9000621A53EC102B51EC110B03F061FF41EC43
:104EA0001B0B384603F0F5FE41EC1C0B53EC1B2B9F
:104EB00003F03AFD41EC1A0B1A4890ED001BB0EEDE
:104EC000410AF0EE610A53EC102B51EC1A0B03F07F
:104ED00047FF41EC190B9FED140B53EC102B03F023
:104EE0003FFF41EC180B94ED001BB0EE410AF0EED1
:104EF000610A53EC102B03F063FCC4E9000194ED4C
:104F0000000B85ED0E0BBDEC0A8BBDE8F0819FED2B
:104F10000A0B80ED000B70470004004000080040C1
:104F200000040240F00100204AD8124DFB21094044
:104F300000000000000039400000000000000000F8
:104F400010B5FE48007908BBFC484079F0B9FB4831
:104F5000C078D8B9F9480078C0B9F8488078A8B9BD
:104F6000F648407890B9F6A003F052FA3620F54999
:104F700008709FEDF50BF64880ED0C0B9FEDF50BDF
:104F8000F64880ED0C0B0120EC49487010BD10B5BF
:104F9000EA48007908BBE9484079F0B9E748C078A9
:104FA000D8B9E6480078C0B9E4488078A8B9E348A1
:104FB000407890B9E2A003F02BFA3620E14908705E
:104FC0009FEDE40BE24880ED0C0B9FEDDF0BE34817
:104FD00080ED0C0B0120D949487010BD10B5044676
:104FE000D648007918BBD548407900BBD348C07873
:104FF000E8B9D2480078D0B9D0488078B8B9CF485D
:105000004078A0B9D6A003F003FA3620CD49087045
:10501000204603F03EFECE4AC2E90C01204603F0D2
:1050200038FECE4AC2E90C010120C449087010BD07
:1050300010B5C248007908BBC0484079F0B9BF48F4
:10504000C078D8B9BD480078C0B9BC488078A8B944
:10505000BA48407890B9BAA003F0DAF93620B949D5
:1050600008709FEDC00BBA4880ED0C0B9FEDBF0B95
:10507000BA4880ED0C0B0120B049887010BDF0B526
:10508000024600251678002010E00024002306E0E8
:10509000175C12F803C0674500D1641C5B1C8B428F
:1050A000F6DBAC4201DB2546165C401C8842ECDB9B
:1050B0003046F0BD10B50120AE4908701421AE484D
:1050C00003F04CFAAD480078012803D1ACA003F0FE
:1050D0009FF905E0A948007810B9AAA003F098F953
:1050E00000BFA44800780028FBD11421A248FFF794
:1050F000C6FF9449087010BD10B50446FFF7DAFFEB
:1051000090480078332802D1012020700CE08D48AF
:105110000078322802D10120607005E089480078CB
:10512000342801D10120A07010BD704710B59348FC
:10513000807800287DD19448007801287AD17F4872
:10514000007901280BD07D484079012807D07B48A1
:10515000C078012803D0894800780128EAD1FEF7F9
:10516000E8FF0020754908714871C87087490870C8
:1051700082480078012810D1FFF79CFF7148007821
:1051800000F1640182A003F043F900BF6D4800788C
:105190007828FBD10020794908707E4800680079A2
:1051A000012804D17B490968C868FFF7A5FF794841
:1051B00000680078012816D17648006876490860B2
:1051C00074480068C06873490860734800680089C3
:1051D00001B2012000F046FC6F490968098908B254
:1051E000FFF7FCFE2BE06B480068807801280FD1A8
:1051F0006848006868490860664800684069654911
:1052000008600021022000F02DFCFFF7C0FE16E030
:10521000604800684078012811D15E4800685E4906
:1052200008605C48006800695A4908600021032052
:1052300001E0E9E01BE000F015FCFFF781FE5548B6
:105240000068C07801280DD14C4988700020487052
:105250000021042000F006FC5048C0881C3801B230
:105260004E48C180FFF761FFFEF76AFFCCE0464879
:1052700000780028FAD13148007901280BD02F4856
:105280004079012807D02D48C078012803D03B4839
:1052900000780128EAD1FEF74CFF00202749087169
:1052A0004871C8703949087034480078012817D10E
:1052B000FFF700FF002031490870224800783128AC
:1052C00005D1012036490968C968487008E01D48C1
:1052D0000078322804D1012031490968C9688870F2
:1052E0002F4800680078012816D12D4800682D4904
:1052F00008602B480068C068294908602948006890
:10530000008901B2012000F0ADFB26490968098936
:1053100008B2FFF763FE60E021480068807801284A
:1053200047D11F4800681F4908601D480068406950
:105330001B4908600021022036E0000030000020F8
:1053400034000000420200200000000000003F4046
:10535000380000200000000000003FC0E8000020EE
:10536000320000000000000000004F40000000007C
:1053700000004FC01E02002078020020180200200A
:1053800033000000310000001D0200204302002015
:10539000256300002C020020280200208C0200203F
:1053A000340200203002002000F05CFBFFF7EFFD2C
:1053B00013E0F7480068407801280ED1F4480068EF
:1053C000F4490860F24800680069F149086000216A
:1053D000032000F047FBFFF7B3FDED480068C078FD
:1053E00001280DD1EC49887000204870002104206C
:1053F00000F038FBE948C0881C3801B2E748C1809A
:10540000FFF793FEFEF79CFE10BD10B5E248C07892
:10541000012810D1FEF78DFE0020E149087101201E
:10542000DD4948700020C87000F05EFBFFF700FE09
:10543000FEF786FE43E0D848407801283FD1D648A1
:10544000807801283BD1D6480079012807D0D4487C
:105450004079012803D0D248C07801282FD1FEF727
:1054600068FE0020CE4908714871C870CB4840885A
:1054700030B90020C84948708870012008711CE0CC
:1054800000F032FBC74800680078012806D1C54902
:105490000968B1F90200FFF7A1FD0EE0C1480068FC
:1054A0000078022802D1FFF74BFD06E0BD480068F6
:1054B0000078032801D1FFF76AFDFEF741FE10BD19
:1054C0000120B549087070470120B349C870487081
:1054D00070471CB50121242001F0F6FC00208DF856
:1054E00004008DF806000120009000208DF80700D0
:1054F00003208DF805006946AB4800F063FF0120EA
:105500008DF8040000208DF8060002200090002095
:105510008DF8070003208DF805006946A24800F0C9
:1055200051FF01208DF8040000208DF806000120B5
:10553000009000208DF8070003208DF805006946D3
:105540009A4800F03FFF1CBD08B50121964800F0C5
:105550009BFFD0B990488078012816D18E484078BA
:10556000012812D0102000908B4882780223C82195
:105570000846FEF736FA02218B4800F0A1FF4FF4EF
:105580007A7000F0D1FCFFF79FFF83480079012873
:105590003AD10121854800F091FF00207E498870B2
:1055A000AFF2442002F034FF03208149087000F07C
:1055B00091FB00F0B0FA7F487F4908607F4908609E
:1055C0007F48744908607249086000207449087176
:1055D0000870487188704870C8706F49887048704A
:1055E000C870087000F038FA9FED760B774880EDB0
:1055F000060B9FED740B80ED0A0B9FED720B80ED97
:10560000080B00206449087108BD704710B5644854
:10561000007901280BD062484079012807D0604802
:10562000C078012803D05C48007801287BD1FEF7C0
:1056300080FD002066490870594908714871C8709A
:1056400055480078012844D100205349087003E0F0
:10565000032160A002F0DCFE5D4800780228F7DB41
:1056600001204D4948705248007808BB48480068FE
:10567000007801281BD14648006846490860444824
:105680000068C0684249086053480078312803D157
:1056900001200968487007E04F480078322803D19C
:1056A00001203B49096888705520FFF797FCA3E16A
:1056B0003F4800780128FAD1404800683E49086018
:1056C0003E480068C0683D4908609120FFF786FCAD
:1056D00092E12F4800680079012804D0374800681B
:1056E000007901283ED103E001213AA002F090FEAA
:1056F000374800780228F7DB37480078332805D18F
:1057000001202E490968C96808702BE032480078EA
:10571000322812D12648007830B901201C49096886
:10572000C96848701EE087E121480078012819D136
:1057300022490968C968487014E02748007834286D
:1057400010D11B48007828B9012011490968C9689F
:10575000887007E016480078012803D117490968C6
:10576000C968887012480078002870D1084800681D
:10577000C07801287DD007480068007801282DD125
:1057800004480068008901B2012000F06BF938E09C
:105790003402002030020020180200208C02002079
:1057A00030000020240200200008024000140240C3
:1057B0001D02002084030020280200202C0200206B
:1057C000DC02002000000000000000009801002022
:1057D0004302002025640000420200209748006830
:1057E0004078012804D10021022000F03BF908E0B4
:1057F000924800688078012803D10021032000F03E
:1058000031F98F480068007801280FD18C49096868
:10581000098908B2FFF7E2FB8948006887490860F8
:1058200087480068C0688649086053E0844800687B
:10583000407801280CD1FFF783FB814800687F493D
:1058400008607F48006800697D49086042E010E018
:105850007B480068807801283CD1FFF798FB7848A6
:1058600000687649086076480068406974490860B5
:1058700030E07448007868BB71480068C07801283F
:1058800028D16E4800680078012807D16B4800686D
:10589000008901B2012000F0E5F812E067480068D5
:1058A0004078012804D10021022000F0DBF808E054
:1058B000624800688078012803D10021032000F0AD
:1058C000D1F80021042000F0CDF800205E49487096
:1058D000012088705B48007801285BD15B48006834
:1058E000C078012856D05A4800680078012807D1AE
:1058F00057480068008901B2012000F0B3F812E0B7
:10590000534800684078012804D10021022000F0AB
:10591000A9F808E04E4800688078012803D10021EA
:10592000032000F09FF849480068007801280FD153
:1059300046490968098908B2FFF750FB43480068E7
:105940004349086041480068C0684049086053E026
:105950003E480068407801280BD1FFF7F1FA3B4838
:1059600000683B49086039480068006937490860A9
:1059700042E036480068807801283DD1FFF707FBF8
:1059800032480068324908603048006840692F4951
:10599000086031E02B48007801282DD12B480068A1
:1059A000C078012828D12A4800680078012807D14A
:1059B00027480068008901B2012000F053F812E086
:1059C000234800684078012804D10021022000F01B
:1059D00049F808E01E4800688078012803D10021BA
:1059E000032000F03FF80021042000F03BF80020E5
:1059F0001549487001208870154800680078012812
:105A000004D00E4800680078012805D10221AFF2C9
:105A10003C2002F0FDFC07E00421AFF2482002F038
:105A2000F7FC30200B4908700748807810B1064811
:105A3000007908B9FEF784FB10BD00003002002099
:105A4000340200201D020020180200202C02002039
:105A5000280200204202002010B55021B84802F070
:105A60007DFD10BD10B5B64A5288521C12B2B44B1F
:105A70005A80B44A12685180B24A12681070B14A12
:105A80001268121DAF4B1A60AD4AB2F90220521EC5
:105A9000AB4B13F82220B3F90230A94C14F8233091
:105AA0009A4220D12246B2F90220521E234603EB2D
:105AB00082025288B3F9023004EB83035B881A44F4
:105AC00013B22246B2F90220521E04EB8202538026
:105AD0009C4A1268121F9B4B1A6022465288521E23
