:020000040000FA
:10000000780920208D01000091010000930100007B
:1000100000000000000000000000000000000000E0
:10002000000000000000000000000000950100003A
:10003000000000000000000097010000990100008E
:100040009B0100009B0100009B0100009B01000040
:100050009B0100009B0100009B0100009B01000030
:10006000000000009B0100009B0100000000000058
:10007000000000009B0100009B010000412F0000D8
:10008000B92D00009B0100009B0100009B010000B6
:100090009B0100009B010000000000000000000028
:1000A0009B0100009B010000000000000000000018
:1000B0009B010000000000009B0100009B0100006C
:1000C00000F002F800F052F812A030C808382418E6
:1000D0002D18AC4201D100F049F80FCCA246AB4636
:1000E0000CA730CF2D1B083F3F197C427F1E544484
:1000F0002D090426F441641EAC4201D300F036F809
:100100000126334200D0FB1A3343984754465D46DC
:10011000DFE700002C7900004C79000000000000AF
:10012000103A02D378C878C1FAD8520701D330C840
:1001300030C101D504680C60704700000000000069
:100140007047000000000000002300240025002666
:10015000103A01D378C1FBD8520700D330C100D583
:100160000B6070471FB51FBD10B510BD01F07EF8C4
:100170001146FFF7F7FF04F035FE01F096F803B4DF
:10018000FFF7F2FF03BC02F0E1FE00000648004763
:10019000FEE7FEE7FEE7FEE7FEE7FEE70348044969
:1001A000044A054B70470000C1000000780620207B
:1001B00078092020780720207807202000220309D2
:1001C0008B4273D3030A8B4258D3030B8B423CD32D
:1001D000030C8B4221D312E003460B437FD4002251
:1001E00043088B4274D303098B425FD3030A8B42CB
:1001F00044D3030B8B4228D3030C8B420DD309024B
:10020000FF2212BA030C8B4202D31212090265D0EC
:10021000030B8B4219D300E0090AC30B8B4201D3B5
:10022000CB03C01A5241830B8B4201D38B03C01AFC
:100230005241430B8B4201D34B03C01A5241030B73
:100240008B4201D30B03C01A5241C30A8B4201D324
:10025000CB02C01A5241830A8B4201D38B02C01ACF
:100260005241430A8B4201D34B02C01A5241030A46
:100270008B4201D30B02C01A5241CDD2C3098B422B
:1002800001D3CB01C01A524183098B4201D38B01A8
:10029000C01A524143098B4201D34B01C01A52414B
:1002A00003098B4201D30B01C01A5241C3088B4290
:1002B00001D3CB00C01A524183088B4201D38B007B
:1002C000C01A524143088B4201D34B00C01A52411D
:1002D000411A00D201465241104670475DE0CA0FF4
:1002E00000D04942031000D3404253409C460022B4
:1002F00003098B422DD3030A8B4212D38901FC22BE
:1003000012BA030A8B420CD3890192118B4208D393
:10031000890192118B4204D389013AD0921100E0F5
:100320008909C3098B4201D3CB01C01A5241830909
:100330008B4201D38B01C01A524143098B4201D336
:100340004B01C01A524103098B4201D30B01C01A61
:100350005241C3088B4201D3CB00C01A52418308DB
:100360008B4201D38B00C01A5241D9D243088B4231
:1003700001D34B00C01A5241411A00D201465241EA
:10038000104663465B1001D34042002B00D5494222
:10039000704763465B1000D3404201B50449002812
:1003A00002DC491C084000E00846C046C04602BDC9
:1003B000FFFFFF7F70477047704700000246C80F7D
:1003C000C00781434B0030B54B405B009B0D20D0F4
:1003D0001923DB06C91801231B05994220DB0324DE
:1003E000A40704251346AB400BD3002B04D1EB0626
:1003F00013409B00E34204D4012464070023121934
:100400005941FF231B0599420BD2C9000143500FEC
:1004100009E0CB0204D501430803024305D0054897
:1004200030BDFF21C905084330BD08460721090535
:10043000884330BD0000C07FF0B50C46871A9C4150
:100440000D46861A9D4103D2C01BA141D2196341BA
:100450000D0D1F0DC94EEC1BAE435CD07F057F0D0B
:100460000026002F51D02D05AC46A943DD02012303
:10047000ED0A1B051D4320231B1B24D41746E74010
:10048000381871412F46E740CC199D402818314655
:1004900061410C0D27D161449A4013D50023401CC3
:1004A000594152000ED14008400001224B00520534
:1004B000D34207D305204007C14201D5B04900E02F
:1004C000B0493046F0BD6B00002A00D001229A18D6
:1004D0001F23203C1B1B01D5002302E0E540281808
:1004E00071410C0DD7D0012424050919C407CD078B
:1004F00040084908E40F28436144002CD5D000246B
:10050000401C61419A40D0D1CDE76A05520DD9D146
:10051000C90FC907D5E79C4D4E00002801D0012422
:1005200000E0002434195F00002A01D0012600E019
:100530000026BE19954FAC420CD8AE420AD8B44240
:1005400006D001256D05EC42BCD010461946F0BD21
:100550009942FCD000203946F0BDF0B51FB40C46DE
:100560000F46811A9F412546861A9D4106D20125D4
:10057000ED076F40401ABC4152187B41210D1E0D02
:100580008D1BAC467D4D8D437ED075056D0D7CD0A9
:100590000D05AE46AC431B031B0B794D52429D41EA
:1005A000202366469B1B14D31746F74038180026B5
:1005B0000090744160462F460741E41900989D4021
:1005C0002818664116D4714671189A4025D5012322
:1005D00020E093182A466A415200002B00D0521C9A
:1005E0001E23203E9B1B002B61DD3541EE17281892
:1005F0006641E8D5001876415B1C9A4000D3401C48
:100600004B05F3181524E34010D3002B52D071464C
:100610007118D30FC01802D3491C05B0F0BD0123D7
:10062000DB079A42F9D140084000F6E70122520563
:10063000B21801D1002853D00123CC0ADB02994320
:10064000891E002A08D1020C03D0020C00041039C4
:1006500002E00246002020390023550B05D112028A
:100660000823550B01D152010D23550C01D1120164
:100670001B1DD50C01D192009B1C150D01D1520000
:100680005B1C2025EE1A01E02CE022E00546F54037
:1006900015439840CA1AE10769181305C918002ABA
:1006A000BBDA032040070818C10FC9070FE07146E5
:1006B0006118B2E7F10740080843711071444A001D
:1006C0000CD001235B059A42A7D2C90FC9070020AD
:1006D000A3E74905490D26D1002001E00028F4D107
:1006E00000219AE7284D6600002801D0012100E092
:1006F000002171185F00002A01D0012600E00026C9
:10070000BE19224FA94210D8AE420ED8B14208D02D
:1007100001256D05E94206D01946A8024140104660
:100720007BE79C4201D0214677E70020394674E7F9
:1007300010B50C465C4005D50124E4076340FFF783
:100740000CFF10BDFFF778FE10BD30B40C465C40C6
:1007500004D50124E407634030BC6DE630BCFCE600
:1007600070B50124E40761400D465D4002D4FFF7F7
:1007700063FE70BD6340FFF7F0FE70BDFF07000031
:100780000000F0FF0000F07F0000E0FF0000F87FB5
:10079000F0B5F94D0C091E092C402E402F468BB0A8
:1007A000A7437DD0B543FCD0002E7AD0002CFCD0DE
:1007B0000D465D40ED0F2543AC1BFF25AD046419CC
:1007C0000894C502440DC9022143500DDC020443C4
:1007D0000120C00701430443D2020191200C110CF7
:1007E00000958C46010423468B430A916146090417
:1007F000E24D8A430991010A7D44491980390978FB
:1008000005464D4301266D18F605751B6943C90C55
:10081000640B891C4C436418B5012C1B250C2E0459
:10082000B4434C434D43210C691889090591009D3F
:10083000E90701D00121C90704912C4601996708F5
:10084000CD072F434C08059DE10B4D432D0C294648
:100850006646754302950D4645432E46029D7D1B17
:10086000B44100950D465D4301942C0C2F040D46B8
:100870005543AE462D0C3D43029503947546049CAA
:100880002D04641B049406D2029C039D641C002664
:1008900075410395029401AC70CC009F7D1B01E073
:1008A0003EE162E1B4410904009507910194059984
:1008B000A4086143090C0C464443650BE7040C464D
:1008C00066467443A646640B3C4303950294744603
:1008D000049DE4042C1B049406D2029C039D641C1A
:1008E000002675410395029401AC70CC009F7D1BDE
:1008F000B44101940C465C430095650FE7000C463B
:100900005443A646640F3C43039502947446049DE9
:10091000E4002C1B049406D2029C039D641C002658
:1009200075410395029401AC70CC009F7D1BB441CE
:10093000AE09AF06049DC900AD092F43049DA4066E
:10094000AD060495079D344369180791059DE10B99
:100950004D432D0C29466646754302950D46454389
:100960002E46029D7D1BB44100950D465D430194CA
:100970002C0C2F040D465543AE462D0C3D430295DD
:1009800003947546049C2D04641B049406D2029CB7
:10099000039D641C002675410395029401AC70CC44
:1009A000009F7D1BB44101948C050694079C890A25
:1009B000611800950791019C0599A4086143090CF1
:1009C0000D464543680BEF040D46644665436C0BCA
:1009D0003C43049FED047D1BAC4602D20025641C01
:1009E0006841009E019D371B85410846584301958B
:1009F0000C46460FC5005443600F28436546E4008B
:100A00002C1B02D20025401C6E41019D3F1AB541AE
:100A10002846BD09800628438446A009BF064E0229
:100A20000699A40676180743079D002068410A9995
:100A3000079019430020099B00906046FF1913435B
:100A40004041E20F64003A43A4460446D71A8C4161
:100A5000A04203D90120009020463A46C70F9418BF
:100A600040416246D20F2243644664000494009CD5
:100A7000BE466400D71AA446044602978C417746C6
:100A8000002F01D1A04204D96046401C8446029A3E
:100A90002046C40FA64694184041049A0546D20F3A
:100AA000224364466400D31A8D417146002901D166
:100AB000A84202D928461A46641C10430122002885
:100AC00000D0164361020020079B891904465C414F
:100AD0000223002C02DB491813466441089DCE0A0C
:100AE0002D145D194B056705E10A2C050D190899B0
:100AF0003E43C9076940002B08D0934006D300222B
:100B0000761C5141002B01D1760876001C4A002D3D
:100B100043DB154241D0AA433FD030460BB0F0BD75
:100B200006180D464D41174C7642AC411AD3951824
:100B30001C465C41134A6D42A24113D30122520567
:100B40004C00D4420AD15C00D4420BD04B4002D5B9
:100B500092021143E2E749004908DFE75940C90F13
:100B6000C90718E000200849D8E7054801420DD11F
:100B70000342F7D0F2E700000000FF07A056000094
:100B80000000F07F0000E0FF0000F87F11485940AE
:100B90000143C01241400020C0E70123089A9B0690
:100BA0009A4205DC032252078918C90FC907B5E725
:100BB000052252078918074A1143D2125140ADE766
:100BC00070B515461C4602460B4628462146FFF7DF
:100BD000DFFD70BDFFFFFF7F30B50346CA02400D49
:100BE0001043164D164C0A1502D02043002A06DB8E
:100BF000AA1A002A12DDD040FF2A0BDC30BD5205B4
:100C0000520D01D140004008AA1A07D4D0404042FA
:100C1000FF2A01DD002030BD0028FCDD4A00002B4A
:100C200001D0012000E00020101801225205D0421E
:100C3000F0D8C817C043604030BD00001E0400005B
:100C4000000000801F22030C02D10F22000402D0FA
:100C5000030E03D004E00020014670470002083A6A
:100C6000030F01D10001121F830F01D18000921EDA
:100C7000002801DB4000521E120551184205C01227
:100C8000411810467047C10FC90700D040420122E9
:100C900092071143D6E701218907D3E7F0B58B4CC2
:100CA0000F09254689B0BD437BD01D092646AE43BA
:100CB000FAD00E465E402740F60F3E43254071D0E5
:100CC00024012142FBD0FF24AD19A4042D1B039560
:100CD00001252D05DB02DB0AC9022B43C90A294382
:100CE0001E010901040F130F050121431701880B91
:100CF000820391432D098C46A90B1E438A03954319
:100D0000B30B9A0396433F09BA0B9403A743029689
:100D10002E467E430497B6464E19D7190C460196C7
:100D2000544305977E43371B7646BF1B3601B646B4
:100D3000BE0B361900967646BC043719009C01D3C9
:100D4000641C00946400002F01D001263443029EED
:100D5000049F754366467E430496760034196E0000
:100D600034190094029C019E1C196643751BAE4603
:100D7000069465464519059C05956C43594375468F
:100D80000891691A0191049E01465143A41B0491E4
:100D9000611A009C0791E10605D061090122114307
:100DA00002E072E06EE06109089D00272C0A2D0622
:100DB0006918049D7C412A0A2D066918019D62412B
:100DC000AC0DAD026D185441079A910D9202551960
:100DD0006141029A644658435443069B059A5A431C
:100DE000121A131B9A0E9B015B187A41010B000526
:100DF000C3185141220A200644195A419A4200D28E
:100E0000491C01204002814203D315230226F643E8
:100E100002E014230326F6432020C51AA9401746F2
:100E2000AF40DA400A4320460399D84009147318AA
:100E300019055118039A3843D2075140AC4009D0E4
:100E40000122944006D30022401C5141002C01D1C4
:100E5000400840001E4A934212D301220398920692
:100E6000904207DB0520400709181A480143C012C9
:100E7000414004E0032040070818C10FC9070020C3
:100E800009B0F0BD0020F107FAE705180C464C4107
:100E900011486D42A04115D394181A465A410E4884
:100EA000644290410ED301204A004005824209D39A
:100EB0005A00824206D35940C90F084AC907002088
:100EC0001143DDE700200649DAE700000000FF07D4
:100ED000FE070000FFFFFF7F0000E0FF0000F07F43
:100EE0000000F87F0121C9050123411842001B06BB
:100EF000D3185B0E0AD0C1100722D206891840070A
:100F00005242D14201D5520089187047090208D5D2
:100F10000146002A03D0C10FC907002070471046C0
:100F20007047420202D0002002497047072109059C
:100F30000143F4E70000F87F10B501469E2400024B
:100F4000CA15A307002A02D01843002A04DBA21AFC
:100F5000002A0CDDD04010BD1206120E01D1400057
:100F60004008A21A03D4D04040420028F3DDFF22FB
:100F700048001206904201D9002010BDC817C04396
:100F8000584010BD1F22030C02D10F2200041CD0B8
:100F9000030E01D10002083A030F01D10001121F14
:100FA000830F01D18000921E002801DB4000521EF9
:100FB000D2055118021251181922904004D3491C2D
:100FC000002801D14908490008467047C10FC907E8
:100FD00000D04042012292071143D3E70121890743
:100FE000D0E710B500F038F8006810BD10B5044621
:100FF00000F032F8046010BD70B505464800440D9D
:10100000124B0020002C0AD0634008D09A4206DA26
:101010006642B24203DD12054019514170BD002CF9
:1010200008D0002B09D0C90FC907002AF6DB084AEF
:10103000114370BDC90FC90770BD28460A0310438C
:1010400002D00020034970BD284670BDFF07000094
:101050000000F07F0000F87F004870471800202053
:10106000F8B5264C4E00069DA6420AD8A64201D1EC
:10107000002806D15E00A64203D8A6420AD1002A63
:1010800008D00D242404254233D02946002000F046
:1010900014F9F8BD0C461C4311D4994207D0C81A64
:1010A00002D3EFF30080F8BDEFF30080F8BD801AA3
:1010B00002D3EFF30080F8BDEFF30080F8BD092400
:1010C0002407E5008B4207D0581A02D3EFF30080C3
:1010D00006E0EFF3008007E0101A03D3EFF300807F
:1010E000A04303E0EFF30080A043284380F300888F
:1010F000F8BD009500F0F8F8F8BD00000000E0FF32
:10110000F0B53D4B02460C461C400020002C63D03D
:101110003A4D8B4366D000296BDB0B0D1D05A943AF
:1011200001252D0529430124FD33E34001D3921805
:101130004941FF3381339C468B02940D01212343A7
:1011400089074C42920200271B198C105D1A04D4A7
:101150002D1B02D42B466500491992185B41640887
:10116000F4D15C1A08D40125ED07EE175519744126
:1011700002D42A462346491C94185B410122920757
:101180001D46E61B8D4106D4B61A854103D42B4675
:10119000550034467F1924195B415208802AEFD14B
:1011A000234300D0022338460A22D04001D3012233
:1011B00013438A0510436246890A12058918002BD9
:1011C00009D00122D34002D30022401C5141002B00
:1011D00001D140084000F0BD0B03134307D0C90FF5
:1011E000C907F0BD0803104303D1002901DB1046F5
:1011F000F0BD00202946F0BD0000F07F0000F87F20
:1012000010B5FF231B0644009C421DD84C009C4295
:101210001AD80346124A0B4307D4401A02D3EFF3FD
:10122000008010BDEFF3008010BD081A03D3EFF368
:101230000080904305E0EFF3008001219043C9074F
:10124000084380F3008810BD0D231B041A4204D00C
:101250001146002000F031F810BD00F04FF810BD2D
:101260000000009000487047180020207546FFF7E6
:10127000F9FFAE46050069465346C008C0008546E2
:1012800018B020B5FEF78AFF60BCB64600260027DE
:10129000C0C5C0C5C0C5C0C5C0C5C0C5C0C5C0C526
:1012A000403D490849008D46704710B50446C04688
:1012B000C0462046FEF763FF10BDC80212D54803A2
:1012C000400F002804D0C803C04301218840704764
:1012D000EFF300800001000903210907084380F3B0
:1012E000008870470020704710B500200249029A1C
:1012F00000F00CF810BD00000000F87F10B50248A7
:1013000000F004F810BD00000000C07F10B50C46CE
:101310001107090F092904D00A290AD008290CD17C
:1013200004E011460820FFF7C8FF06E0510606D585
:1013300001E0510601D50120C007214610BDD106AC
:1013400007D501010909CC084907000E000604432E
:1013500009E0410F20024907000A0143200E000660
:101360001D22D14101430846E7E7811E091F00BF46
:10137000FCD27047B0B51122120283580C4C1C40AD
:101380000B894D881D438B792B430A4D1D406319F2
:101390008350CB798C881C43097821435D239B00C3
:1013A0001940801842689A4351184160B0BDC04648
:1013B00080CCFFFF7F3300001549401801684907C2
:1013C00008D50168490705D50168490702D50168B4
:1013D0004907F3D4006AC0B27047C04610B5012275
:1013E000120383180C785C604978815010BD0000AE
:1013F000074A80180268920708D40268920705D449
:101400000268920702D402689207F3D5016370471D
:101410001011000070B582B00B794A79002A24D0EF
:10142000174A21242401202B00D070348218002B6D
:1014300000D18824156C3F4E35402D191564556C2C
:1014400035402C1954641468774D2C40146054684E
:101450002C4054600024146254628F24E443156DC0
:1014600025401565556D254055656A4613718B7984
:10147000537109680091114600F004F802B070BD84
:1014800038180000F0B5664A8218294BC31808794D
:1014900020280DD000281DD10C68641E5460D56E24
:1014A000244C25408835D5661646703688251DE0C3
:1014B0000C68641E5460D46E1E4D2C401E4EA41940
:1014C000D466146F2C40A4191467012465071B4CC3
:1014D00016460BE00C6864085460D66E154C264026
:1014E0000525ED017619D666164670363768274011
:1014F0002F433760D46A4C4D2C40D462146B2C407F
:1015000014630024D46414658F24E443D56F25400C
:10151000D5671D6825401D6049790143BD200840FD
:101520001168074B0B40C018801C1060F0BDC0460E
:101530008418000024F93FF001040000FFFFFFCFF2
:101540004000FFCFB0B5364A80184A6842600A783A
:10155000222A57D8930001A4E3589F46FB150000A8
:1015600005160000FB15000005160000051600001A
:1015700005160000051600000516000005160000FF
:1015800005160000051600000516000005160000EF
:10159000051600000516000005160000E9150000FC
:1015A00005160000E91500000516000005160000EC
:1015B00005160000051600000516000005160000BF
:1015C00005160000051600000516000005160000AF
:1015D000051600000516000005160000E9150000BC
:1015E00005160000E915000003231B0704689C434F
:1015F00001235B07E318036004E003231B0704686F
:101600009C4304600B8AC360CB68064C1C40C36AD1
:10161000054D1D402B19C362097A11430160B0BD0D
:1016200004180000777702008888FDFF10B50723B3
:101630009B04194092008018024A84589C43611808
:10164000815010BD3018000010B5029CA400001994
:1016500011431943014A815010BDC0465018000083
:1016600092008018014A81507047C046101800004F
:1016700010B50122120383180C789C604B788350BC
:101680008978014A815010BD0C110000B0B51122BB
:10169000120283580124A34383508B780C881C4387
:1016A0008B882343094C1C408358094D1D402B193E
:1016B00083508B79CC791C43097A21437E231940CE
:1016C000801842689A4351184160B0BD1867000005
:1016D000E798FDFF10B50122120383180C789C6077
:1016E0004978815010BD0000B0B502480346F83378
:1016F000802401E090002020002119701A46083A49
:1017000011701A46103A11701A46183A11701A469A
:10171000203A11701A46283A11701A46303A117060
:101720001A46383A11701A46403A11701A46483A29
:1017300011701A46503A11701A46583A11701A46EA
:10174000603A11701A46683A11701A46703A117070
:101750001A46783A11701A46803A11701A46883A39
:1017600011701A46903A11701A46983A11701A463A
:10177000A03A11701A46A83A11701A46B03A117080
:101780001A46B83A11701A46C03A11701A46C83A49
:1017900011701A46D03A11701A46D83A11701A468A
:1017A000E03A11701A46E83A11701A46F03A117090
:1017B0001A46F83A1170012212029B18203C9BD164
:1017C0000446F934802321702546083D29702546BA
:1017D000103D29702546183D29702546203D297069
:1017E0002546283D29702546303D29702546383D3F
:1017F00029702546403D29702546483D29702546DB
:10180000503D29702546583D29702546603D297078
:101810002546683D29702546703D29702546783D4E
:1018200029702546803D29702546883D297025462A
:10183000903D29702546983D29702546A03D297088
:101840002546A83D29702546B03D29702546B83D5E
:1018500029702546C03D29702546C83D297025467A
:10186000D03D29702546D83D29702546E03D297098
:101870002546E83D29702546F03D2970A518F83C1D
:101880002170203B2C469ED10446FA3480232170DF
:101890002546083D29702546103D29702546183DEE
:1018A00029702546203D29702546283D297025466A
:1018B000303D29702546383D29702546403D297028
:1018C0002546483D29702546503D29702546583DFE
:1018D00029702546603D29702546683D29702546BA
:1018E000703D29702546783D29702546803D297038
:1018F0002546883D29702546903D29702546983D0E
:1019000029702546A03D29702546A83D2970254609
:10191000B03D29702546B83D29702546C03D297047
:101920002546C83D29702546D03D29702546D83D1D
:1019300029702546E03D29702546E83D2970254659
:10194000F03D2970A518F83C2170203B2C469ED113
:101950000446FB34802321702546083D2970254626
:10196000103D29702546183D29702546203D2970D7
:101970002546283D29702546303D29702546383DAD
:1019800029702546403D29702546483D2970254649
:10199000503D29702546583D29702546603D2970E7
:1019A0002546683D29702546703D29702546783DBD
:1019B00029702546803D29702546883D2970254699
:1019C000903D29702546983D29702546A03D2970F7
:1019D0002546A83D29702546B03D29702546B83DCD
:1019E00029702546C03D29702546C83D29702546E9
:1019F000D03D29702546D83D29702546E03D297007
:101A00002546E83D29702546F03D2970A518F83C8B
:101A10002170203B2C469ED10446FC34802321704B
:101A20002546083D29702546103D29702546183D5C
:101A300029702546203D29702546283D29702546D8
:101A4000303D29702546383D29702546403D297096
:101A50002546483D29702546503D29702546583D6C
:101A600029702546603D29702546683D2970254628
:101A7000703D29702546783D29702546803D2970A6
:101A80002546883D29702546903D29702546983D7C
:101A900029702546A03D29702546A83D2970254678
:101AA000B03D29702546B83D29702546C03D2970B6
:101AB0002546C83D29702546D03D29702546D83D8C
:101AC00029702546E03D29702546E83D29702546C8
:101AD000F03D2970A518F83C2170203B2C469ED182
:101AE0000446FD34802321702546083D2970254693
:101AF000103D29702546183D29702546203D297046
:101B00002546283D29702546303D29702546383D1B
:101B100029702546403D29702546483D29702546B7
:101B2000503D29702546583D29702546603D297055
:101B30002546683D29702546703D29702546783D2B
:101B400029702546803D29702546883D2970254607
:101B5000903D29702546983D29702546A03D297065
:101B60002546A83D29702546B03D29702546B83D3B
:101B700029702546C03D29702546C83D2970254657
:101B8000D03D29702546D83D29702546E03D297075
:101B90002546E83D29702546F03D2970A518F83CFA
:101BA0002170203B2C469ED10446FE3480232170B8
:101BB0002546083D29702546103D29702546183DCB
:101BC00029702546203D29702546283D2970254647
:101BD000303D29702546383D29702546403D297005
:101BE0002546483D29702546503D29702546583DDB
:101BF00029702546603D29702546683D2970254697
:101C0000703D29702546783D29702546803D297014
:101C10002546883D29702546903D29702546983DEA
:101C200029702546A03D29702546A83D29702546E6
:101C3000B03D29702546B83D29702546C03D297024
:101C40002546C83D29702546D03D29702546D83DFA
:101C500029702546E03D29702546E83D2970254636
:101C6000F03D2970A518F83C2170203B2C469ED1F0
:101C7000FF30802301700446083C21700446103C6C
:101C800021700446183C21700446203C2170044613
:101C9000283C21700446303C21700446383C2170B9
:101CA0000446403C21700446483C21700446503CA8
:101CB00021700446583C21700446603C2170044663
:101CC000683C21700446703C21700446783C2170C9
:101CD0000446803C21700446883C21700446903CB8
:101CE00021700446983C21700446A03C21700446B3
:101CF000A83C21700446B03C21700446B83C2170D9
:101D00000446C03C21700446C83C21700446D03CC7
:101D100021700446D83C21700446E03C2170044602
:101D2000E83C21700446F03C21708418F8380170BA
:101D3000203B20469ED100F09FFBB0BDF0B581B0A6
:101D4000AE200024214600F0BDFD2046214600F0D3
:101D5000B9FD1020214600F0B5FD40273846214648
:101D600000F0B0FD8120214600F0ACFDCF202146DF
:101D700000F0A8FDA120214600F0A4FDC8202146C6
:101D800000F0A0FDA6263046214600F09BFDA820CD
:101D9000214600F097FD3F20214600F093FDD3201F
:101DA000214600F08FFD2046214600F08BFDD52016
:101DB000214600F087FD80252846214600F082FD5F
:101DC000D920214600F07EFDF120214600F07AFD69
:101DD000DA20214600F076FD1220214600F072FD47
:101DE000DB20214600F06EFD3846214600F06AFDFA
:101DF0002020214600F066FD0220214600F062FD11
:101E00008D20214600F05EFD1420214600F05AFD91
:101E1000A420214600F056FD3046214600F052FD38
:101E200001480246F83201E090002020147011466B
:101E300008390C70114610390C70114618390C70A5
:101E4000114620390C70114628390C701146303972
:101E50000C70114638390C70114640390C7011461F
:101E600048390C70114650390C70114658390C70B5
:101E7000114660390C70114668390C701146703982
:101E80000C70114678390C70114680390C7011466F
:101E900088390C70114690390C70114698390C70C5
:101EA0001146A0390C701146A8390C701146B03992
:101EB0000C701146B8390C701146C0390C701146BF
:101EC000C8390C701146D0390C701146D8390C70D5
:101ED0001146E0390C701146E8390C701146F039A2
:101EE0000C701146F8390C70012109025218203D7E
:101EF0009CD10346F93380221C701D46083D2C708E
:101F00001D46103D2C701D46183D2C701D46203D71
:101F10002C701D46283D2C701D46303D2C701D46F2
:101F2000383D2C701D46403D2C701D46483D2C70A0
:101F30001D46503D2C701D46583D2C701D46603D81
:101F40002C701D46683D2C701D46703D2C701D4642
:101F5000783D2C701D46803D2C701D46883D2C70B0
:101F60001D46903D2C701D46983D2C701D46A03D91
:101F70002C701D46A83D2C701D46B03D2C701D4692
:101F8000B83D2C701D46C03D2C701D46C83D2C70C0
:101F90001D46D03D2C701D46D83D2C701D46E03DA1
:101FA0002C701D46E83D2C701D46F03D2C705D18D0
:101FB000F83B1C70203A2B469ED10346FA33802210
:101FC0001C701D46083D2C701D46103D2C701D4692
:101FD000183D2C701D46203D2C701D46283D2C7050
:101FE0001D46303D2C701D46383D2C701D46403D31
:101FF0002C701D46483D2C701D46503D2C701D46D2
:10200000583D2C701D46603D2C701D46683D2C705F
:102010001D46703D2C701D46783D2C701D46803D40
:102020002C701D46883D2C701D46903D2C701D4621
:10203000983D2C701D46A03D2C701D46A83D2C706F
:102040001D46B03D2C701D46B83D2C701D46C03D50
:102050002C701D46C83D2C701D46D03D2C701D4671
:10206000D83D2C701D46E03D2C701D46E83D2C707F
:102070001D46F03D2C705D18F83B1C70203A2B4635
:102080009ED10346FB3380221C701D46083D2C70F8
:102090001D46103D2C701D46183D2C701D46203DE0
:1020A0002C701D46283D2C701D46303D2C701D4661
:1020B000383D2C701D46403D2C701D46483D2C700F
:1020C0001D46503D2C701D46583D2C701D46603DF0
:1020D0002C701D46683D2C701D46703D2C701D46B1
:1020E000783D2C701D46803D2C701D46883D2C701F
:1020F0001D46903D2C701D46983D2C701D46A03D00
:102100002C701D46A83D2C701D46B03D2C701D4600
:10211000B83D2C701D46C03D2C701D46C83D2C702E
:102120001D46D03D2C701D46D83D2C701D46E03D0F
:102130002C701D46E83D2C701D46F03D2C705D183E
:10214000F83B1C70203A2B469ED10346FC3380227C
:102150001C701D46083D2C701D46103D2C701D4600
:10216000183D2C701D46203D2C701D46283D2C70BE
:102170001D46303D2C701D46383D2C701D46403D9F
:102180002C701D46483D2C701D46503D2C701D4640
:10219000583D2C701D46603D2C701D46683D2C70CE
:1021A0001D46703D2C701D46783D2C701D46803DAF
:1021B0002C701D46883D2C701D46903D2C701D4690
:1021C000983D2C701D46A03D2C701D46A83D2C70DE
:1021D0001D46B03D2C701D46B83D2C701D46C03DBF
:1021E0002C701D46C83D2C701D46D03D2C701D46E0
:1021F000D83D2C701D46E03D2C701D46E83D2C70EE
:102200001D46F03D2C705D18F83B1C70203A2B46A3
:102210009ED10346FD3380221C701D46083D2C7064
:102220001D46103D2C701D46183D2C701D46203D4E
:102230002C701D46283D2C701D46303D2C701D46CF
:10224000383D2C701D46403D2C701D46483D2C707D
:102250001D46503D2C701D46583D2C701D46603D5E
:102260002C701D46683D2C701D46703D2C701D461F
:10227000783D2C701D46803D2C701D46883D2C708D
:102280001D46903D2C701D46983D2C701D46A03D6E
:102290002C701D46A83D2C701D46B03D2C701D466F
:1022A000B83D2C701D46C03D2C701D46C83D2C709D
:1022B0001D46D03D2C701D46D83D2C701D46E03D7E
:1022C0002C701D46E83D2C701D46F03D2C705D18AD
:1022D000F83B1C70203A2B469ED10346FE338022E9
:1022E0001C701D46083D2C701D46103D2C701D466F
:1022F000183D2C701D46203D2C701D46283D2C702D
:102300001D46303D2C701D46383D2C701D46403D0D
:102310002C701D46483D2C701D46503D2C701D46AE
:10232000583D2C701D46603D2C701D46683D2C703C
:102330001D46703D2C701D46783D2C701D46803D1D
:102340002C701D46883D2C701D46903D2C701D46FE
:10235000983D2C701D46A03D2C701D46A83D2C704C
:102360001D46B03D2C701D46B83D2C701D46C03D2D
:102370002C701D46C83D2C701D46D03D2C701D464E
:10238000D83D2C701D46E03D2C701D46E83D2C705C
:102390001D46F03D2C705D18F83B1C70203A2B4612
:1023A0009ED1FF30802204700346083B1C70034618
:1023B000103B1C700346183B1C700346203B1C70EE
:1023C0000346283B1C700346303B1C700346383BD9
:1023D0001C700346403B1C700346483B1C70034680
:1023E000503B1C700346583B1C700346603B1C70FE
:1023F0000346683B1C700346703B1C700346783BE9
:102400001C700346803B1C700346883B1C700346CF
:10241000903B1C700346983B1C700346A03B1C700D
:102420000346A83B1C700346B03B1C700346B83BF8
:102430001C700346C03B1C700346C83B1C7003461F
:10244000D03B1C700346D83B1C700346E03B1C701D
:102450000346E83B1C700346F03B1C704318F838F9
:102460000470203A18469ED100F006F8AF200021F3
:1024700000F028FA01B0F0BDF0B583B00020CD4ED9
:1024800001905038C0B20024214600F01BFA2046CB
:10249000214600F017FA1020214600F013FA022519
:1024A0002A4F3D6001243C60204601F03DFF3D6124
:1024B000204601F039FF3C61204601F035FF7820CD
:1024C00000F0FAFB3D60204601F02EFF3C60204604
:1024D00001F02AFF3C61204601F026FF402000F079
:1024E000EBFB02953D60204601F01EFF3C6020465C
:1024F00001F01AFF3C61204601F016FF802500968E
:10250000307800F0D9FB114F02983860204601F076
:102510000BFF3C60204601F007FF3C61204601F0C4
:1025200003FF6D1E0836002DEAD1029F074D2F6173
:102530002C60204601F0F8FE2F60009E761C01986A
:10254000401C08289CD103B0F0BDC04690120A4040
:10255000F0B58BB00A9103900620082B04460AD0F0
:102560005C07D908002C00D0491C5C084C43E4B23D
:10257000002C00D113E1109F203AD1B200914843C2
:1025800088490A18580801900025039E029308976D
:1025900009E00646079C049A069D641E521C6D1CA9
:1025A000002C00D1FBE0082B104615D0182B09D0C9
:1025B000102B0CD00C2B00D0F1E00C2000994843DC
:1025C0007B4907E0242000994843774902E00098BE
:1025D000000176490818401909900695049207945D
:1025E00007230A9A1046184001252946814005967E
:1025F000F0B2C0006F4C2018D2B2D408065D32464B
:102600000A438E43002F114600D03146002F00D0E0
:1026100016460022099FBA560992D20700D03146C9
:1026200001550A99491CCAB219402F468F40D40857
:10263000065D31463943BE43089F002F0A4600D04D
:102640003246002F00D00E460999890700D5324640
:1026500002550A99891CCAB219402F468F40D408E6
:10266000065D31463943BE43089F002F0A4600D01D
:102670003246002F00D00E460999490700D5324650
:1026800002550A99C91CCAB219402F468F40D40876
:10269000065D31463943BE43089F002F0A4600D0ED
:1026A0003246002F00D00E460999090700D5324660
:1026B00002550A99091DCAB219402F468F40D40805
:1026C000065D31463943BE43089F002F0A4600D0BD
:1026D0003246002F00D00E460999C90600D5324671
:1026E00002550A99491DCAB219402F468F40D40895
:1026F000065D31463943BE43089F002F0A4600D08D
:102700003246002F00D00E460999890600D5324680
:1027100002550A99891DCAB219402F468F40D40824
:10272000065D31463943BE43089F002F0A4600D05C
:102730003246002F00D00E460999490600D5324690
:1027400002550A99C91D0B409D40C9B2CC08025DD3
:102750001146A9431543002F0A4600D02A46002FF0
:10276000029B059E00D00D460999002900D42A46F7
:102770000255701C082B00D10BE7C1B2039A891ACD
:10278000019A9142079C02D10A9A08320A92049A4D
:10279000019DA942039E00D1FEE60646FCE60BB071
:1027A000F0BDC046106000009C6C0000AC660000EC
:1027B0003862000090002020F0B589B008910790A1
:1027C000002B52D01C4615460E984108069008284A
:1027D00000D1891C05910F9804906042A11E0191BF
:1027E0000026C0B20390224F029517E0012128462F
:1027F00002F0B4FC0A21FDF7E1FC049800903022BD
:102800000A430598704307994018C0B20899069B7F
:10281000FFF79EFE761CF0B2A04226D2FF20B04306
:1028200003998842E2D0F04300190199891BC9B28B
:10283000032901D2012108E0FC22024000230121EA
:1028400079431B1DDDB29542FAD103221040029D4F
:10285000CDD0012801D10A2005E0022802D07D2038
:10286000C00000E064204143C1E709B0F0BDC046AC
:1028700010270000F0B583B0064617783846203898
:10288000C0B25E281CD8082B01D05D0800E00625E8
:1028900008980190541C029501980090F0B2FAB289
:1028A0000D461F46FFF754FE3B462946029D76190A
:1028B000601C27783A46203AD2B25F2A0446EBD30E
:1028C00003B0F0BDF0B581B00E460090234F022555
:1028D0003D6001243C60204601F026FD3D6120461C
:1028E00001F022FD3C61204601F01EFD782000F041
:1028F000E3F93D60204601F017FD3C60204601F001
:1029000013FD3C61204601F00FFD701E8641B001B1
:1029100000F0D2F93D60204601F006FD3C60204603
:1029200001F002FD3C61204601F0FEFC009800F041
:10293000C3F93D60204601F0F7FC3C60204601F001
:10294000F3FC3C61204601F0EFFC3D613C60204619
:1029500001F0EAFC3D6001B0F0BDC04690120A40B3
:1029600070B5214A8523936401210C021F4804603D
:10297000D3644C0204605363802303601C4B8624A1
:102980001C600C030460822494601A4C651C556121
:1029900083259D629D60A51C5D60174D1D6381258B
:1029A00095635D63154EDE641E6515605560DC60E1
:1029B0001C615C619C66146654665C655C660246DC
:1029C000303A89051160014640390D4A0A600D49C7
:1029D0000160052080030C490A6802430A600B4825
:1029E00004210160016370BD04804240D0120A409E
:1029F00088804240810004008100010081000600BF
:102A00000300200003006000A0130A40A0320A4027
:102A100010B50D4C0D492046FEF7E0FC0C49204650
:102A2000FEF7A8FC0B4841680B4A0A40511C416064
:102A3000816812220A432D218A43826001680122A3
:102A40000A43026010BDC04600804640F87900008D
:102A5000FA7900000491464000FCFFFF0C48002179
:102A600001600320C1430B480246083A13680B403B
:102A700013600168012291430160110203688B43D6
:102A800003601103001F02680A4302607047C046DA
:102A900008030B4008010B400548042101601F2179
:102AA000416000218160016805220A43026070478D
:102AB00010E000E010B5084C08492046FEF7D8FDAC
:102AC00007492046FEF73EFD0648016801221143F2
:102AD00001600548026010BD00400840047A000013
:102AE000087A0000285008400851084010B5154CDD
:102AF00015492046FEF7EEFD14492046FEF7C6FDB7
:102B00000320C103124802688A4302600169114A26
:102B10000A4011320261416917220A4328218A437F
:102B20004261416801221140436893435918416052
:102B30009102094B1C680C431C6001681143016041
:102B400010BDC046008010401C7A00001E7A0000B4
:102B5000009110400000FFFF2890104080B500F069
:102B60001BF8FFF7FDFEFFF779FF00F03FF8FFF7D6
:102B7000A1FFFFF7BBFFFFF74BFFFFF78DFF2420FF
:102B8000034900220A54B82002490A5480BDC046B5
:102B9000340520205C05202070B50C480C494160AC
:102BA0000C4A51600C4B59600C4C61600C4D6960D3
:102BB0000C4E71600C490160116019602160296040
:102BC00031601020FEF7D1FB70BDC04600080A40FE
:102BD000030000B100280A40000886400048084071
:102BE000008810400088464001000026F0B583B000
:102BF0002D4C2E492046FEF73BFD2D492046FEF781
:102C000009FC642700252046394602972A46FEF72C
:102C100027FD009510262046294632462B46FEF712
:102C200013FD204629462A46FEF700FD01222046D4
:102C3000394617460192FEF713FD009720462946B4
:102C400032462B46FEF700FD204629463A46FEF75F
:102C5000EDFC0227204602993A46FEF701FD009757
:102C60002046294632462B46FEF7EEFC20462946F2
:102C70003A46FEF7DBFC0327204602993A46FEF768
:102C8000EFFC00972046294632462B46FEF7DCFC37
:102C9000204629463A46FEF7C9FC0648019981605C
:102CA0000F21016003B0F0BD00008640287A0000CB
:102CB0002C7A00000011864070B5054640B23D4EAA
:102CC000002802D40220306101E00220306001249B
:102CD000204601F029FB3460204601F025FB3461D9
:102CE000680602D40220306101E0022030602046F4
:102CF00001F01AFB3460204601F016FB3461A8068F
:102D000002D40220306101E002203060204601F050
:102D10000BFB3460204601F007FB3461E80602D467
:102D20000220306101E002203060204601F0FCFA10
:102D30003460204601F0F8FA3461280702D40220FA
:102D4000306101E002203060204601F0EDFA34608D
:102D5000204601F0E9FA3461680702D402203061AC
:102D600001E002203060204601F0DEFA34602046A7
:102D700001F0DAFA3461A80702D40220306101E0E0
:102D800002203060204601F0CFFA3460204601F086
:102D9000CBFA3461E80702D10220306101E0022061
:102DA0003060204601F0C0FA3460204601F0BCFAE1
:102DB000346170BD90120A4070B54E480068C0B2D0
:102DC000012800D095E001F0D1FA4B480068401E80
:102DD000032800D97CE0C04678440079400087444D
:102DE000013917294C4D2868411C29604B4E346825
:102DF0000146F93982294FD95F21890088423DDB9C
:102E00000021204602F044FB002839D045493EE02D
:102E10003E4C206800F0D0F9E6488068216802F056
:102E2000D5FF0121C9078843394902F03CFB00283E
:102E30004BD14DE0314D2968481C2860304800686E
:102E4000EF2910DB2F490A682F4909681438143913
:102E5000143A0CE02F48006800F08EF802F062F897
:102E6000002835D131E027490A682749096800F070
:102E7000DBF802F057F800282AD124E028480DE0BA
:102E80000021204602F0F9FA002805D12649204603
:102E900002F080FE0446306024480068214600F0BD
:102EA0002BF923480068022809D0012804D0002803
:102EB0000ED102F037F804E002F06AF801E002F007
:102EC00087F8012804D1002028601A4801210160F8
:102ED000194C206801280CD1184D2868411C296024
:102EE0004F2806DB01F076FF00F03EF8002020605E
:102EF000286070BD20500840500620201C0520206E
:102F00006C0620205C062020580620207406202015
:102F10000000404068062020600620206406202033
:102F20000000B442000020C20000204270062020B1
:102F300054062020300520201405202020052020C4
:102F4000014800687047C04620901040704700005C
:102F50000120C00302490860024908607047C0466A
:102F600080E200E000E100E0012080050149086006
:102F70007047C046A0120A40F0B585B0044601F083
:102F800073F906462046FDF7ADFF04460D46304670
:102F9000FDF779FE07460E46204A214BFDF77EFEDF
:102FA0000494224603952B46FDF7C2FBFDF714FE61
:102FB00001466320632900DB014602904620462932
:102FC00000DC01460190DA4D002428462246FEF737
:102FD00047FBE443012228462146FEF741FB114B03
:102FE000384631460D4AFDF759FE049A039BFDF71A
:102FF0009FFBFDF7F1FD0146632800DB029946299E
:1030000000DC01990222CA4D2846FEF729FB032263
:1030100028462146FEF724FB05B0F0BD9A99999900
:103020009999E9BF9999E93FF0B585B00492039168
:10303000044601F019F905462046FDF724FE07462F
:103040000E462846FDF71FFE04460D4600229E4B05
:103050000092FDF723FE02973A4601963346FDF7AC
:1030600067FBFDF7B9FD049A9042014600DB11466B
:1030700032273228049700DB04911E4B2046294654
:10308000009C2246FDF70AFE029A019BFDF750FBC9
:10309000FDF7A2FD039A9042014600DB114632285B
:1030A00000DB0F46E543A24C00222046002F04D44B
:1030B0003946FEF7D5FA294603E02946FEF7D0FA4D
:1030C000794201222046FEF7CBFA049E02222046D6
:1030D000002E03D43146FEF7C3FA03E02946FEF77B
:1030E000BFFA7542032220462946FEF7B9FA05B019
:1030F000F0BDC046000012C0F0B585B004466F4870
:10310000806802F063FE05466D4E314602F0C0F95C
:10311000002808D16B4F2846394602F0AEF9002846
:103120002E4600D13E462046FDF7DCFE05460F4602
:103130003046FDF7D7FE0024634B2246FDF7AEFD77
:103140000E46039004952A463D463B46FDF7F0FAAD
:10315000FDF742FD01466320632900DB0146029032
:103160004620462900DC01460190E24F38462246BF
:10317000FEF776FAE443012238462146FEF770FA5C
:1031800004982946039A3346FDF7DFFAFDF724FD3C
:103190000146632800DB0299462900DC01990222DE
:1031A0003846FEF75DFA032238462146FEF758FA04
:1031B00005B0F0BD24052020F0B585B00146D0480B
:1031C000806802F003FE04463D4E314602F060F98D
:1031D000002808D13B4D2046294602F04EF9002830
:1031E000264600D12E463046FDF77CFE0025364BA4
:1031F0002A46FDF753FDFDF7EFFC4622462801461F
:1032000000DB1146401E3C273B28384600D30846C9
:1032100000924521CC43A042014600DC21463B22DE
:10322000D2430295ED4303953B3D019290420495B4
:1032300000D804910120C00746403046FDF752FEF9
:10324000029A214BFDF72AFDFDF7C6FC46280146F0
:1032500000DB0099401E3B28039E00D30F46A74287
:10326000384600DC204601998F4200D80546A14C23
:10327000049F00222046002F04D43946FEF7F0F9BF
:10328000314603E03146FEF7EBF979420122204650
:10329000FEF7E6F902222046002D03D42946FEF768
:1032A000DFF903E03146FEF7DBF96E4203222046E8
:1032B0003146FEF7D5F905B0F0BDC0462405202003
:1032C0000000A0410000A0C100001240F0B581B094
:1032D000824800250560804E012434608048814981
:1032E0000160814F01F094FE38680128FAD13D60F9
:1032F0003560A0057D490860600508617C48046070
:103300007C4E6327304639462A46FEF7A9F93046F7
:1033100039462246FEF7A4F9022230463946FEF726
:103320009FF9032230463946FEF79AF901B0F0BD05
:1033300000008640F0B585B0E648012104910160A7
:10334000E549022003900860E44800250560E44850
:1033500064490160FA4F01F05BFE38680128FAD138
:103360003D60DC480560049CA105DF4802910160D6
:10337000610501910161DD480460DD486326314645
:103380002A46FEF76DF9DA4831462246FEF768F91B
:10339000D7483146039C2246FEF762F90322D448FF
:1033A0003146FEF75DF9322000F09CFFC948046009
:1033B00051485249016001F02BFE38680128FAD1CA
:1033C0003D60C94802990160019901610498C749AB
:1033D00008604B4886683046294602F043F80028CA
:1033E00007D10021304602F053F8002804D14648A6
:1033F00003E04648006805E04248314602F0E6FC3A
:1034000042490860BE49039AB34B1A60B14A049B13
:103410001360B24A1060B248324A02607F20C00591
:1034200021C10D604D6001F0F3FD38680128FAD12B
:103430003D60A8480560AC480299016001990161AE
:103440002A46049DA94805606326A94C20463146BA
:103450000092FEF705F9204631462A46FEF700F9AC
:1034600020463146039D2A46FEF7FAF803222046FD
:103470003146FEF7F5F8322000F034FF954805603C
:103480001D481E49016001F0C3FD38680128FAD1CA
:10349000009A3A608F48026093480299016001994E
:1034A0000161049D914805606326914C2046314698
:1034B000FEF7D6F8204631462A46FEF7D1F802221A
:1034C00020463146FEF7CCF8032220463146FEF76F
:1034D000C7F805B0F0BDC046500620206406202085
:1034E000700620200000B4423005202090120A40CF
:1034F0001405202000008640680620200000A0421D
:103500002405202000003443000034C3100520208F
:10351000F0B587B06F48012101606F4806910160E6
:103520006E49844808606E486E490160844D01F020
:103530006FFD28680128FAD100262E6065480660D4
:10354000069CA1056848059101606105049101612F
:10355000664804606648632739463246FEF780F8BD
:10356000634839462246FEF77BF80222604C20462B
:1035700039460392FEF774F8032220463946FEF7D7
:103580006FF8322000F0AEFE5A48502102910160DF
:10359000042001904F49086057485A21009101606A
:1035A0005648076001F034FD28680128FAD12E60E2
:1035B000484806604C4805990160049901614B48F0
:1035C0000699016063274A4C204639463246FEF789
:1035D00047F820463946069AFEF742F82046394613
:1035E000039C2246FEF73CF8032241483946FEF789
:1035F00037F83C2000F076FE41487F21C90542C0E3
:1036000006604660344804603248069901603D48CF
:103610003249086032483349016001F0F9FC2868FA
:103620000128FAD12E602B4806602F4805990160C9
:10363000049901613246069E2C4806602C4C2046B7
:1036400039460392FEF70CF8204639463246FEF71B
:1036500007F8022220463946FEF702F803222046E8
:103660003946FDF7FDFF322000F03CFE214802996B
:1036700001600198174908601F48076000981F49BA
:10368000086001F0C5FC28680128FAD1039A2A6075
:103690001048026014480599016004990161069D73
:1036A000124805606327124C20463946FDF7D8FFC3
:1036B000204639462A46FDF7D3FF022220463946E6
:1036C000FDF7CEFF032220463946FDF7C9FF07B0BC
:1036D000F0BDC0465006202054062020640620205D
:1036E000700620200000704290120A40140520202D
:1036F000000086406C062020580620205C06202012
:103700000000202000005442F0B589B0064801278F
:1037100007600648076006490648086006480749EA
:103720000160074C0EE0C0465006202054062020C1
:1037300064062020000010C27006202000007042A5
:103740003005202001F064FC20680128FAD1002611
:1037500026601A480660B905194808910160790584
:1037600007910161174807601748632529463246CB
:10377000FDF776FF1448294606973A46FDF770FF95
:1037800002221148074629460192FDF769FF0322EC
:1037900038462946FDF764FF322000F0A3FD0B48B0
:1037A00050210591016004200490044908600848F4
:1037B0005A2103910160074805600DE05006202062
:1037C00090120A4014052020000086406C0620203C
:1037D000580620205C06202001F01AFC20680128F1
:1037E000FAD126601A4806601A48089901600799BC
:1037F0000161069D1848056063271848394632461E
:10380000FDF72EFF154839462A46FDF729FF1348D4
:103810003946019D2A46FDF723FF03220F4839460A
:10382000FDF71EFF3C2000F05DFD0D497F20C00527
:10383000029041C10E604E600A480560069D044832
:10384000056009490948016009480A49016013E017
:103850005006202090120A401405202000008640C7
:10386000000020205406202000005442640620203E
:10387000700620200000704201F0CAFB2068012879
:10388000FAD1266015480660154808990160079925
:10389000016114480560144839463246FDF7E0FEE0
:1038A000114839462A46FDF7DBFE02220E4839460A
:1038B000FDF7D6FE03220C483946FDF7D1FE322033
:1038C00000F010FD0948059901600498034908605B
:1038D000074807600398074908600DE0500620205C
:1038E00090120A4014052020000086406C0620201B
:1038F000580620205C06202001F08AFB2068012861
:10390000FAD126601848066018480899016007999E
:103910000161174805606327164839463246FDF7AE
:103920009FFE144839462A46FDF79AFE02221148A6
:103930003946FDF795FE03220E483946FDF790FE05
:103940003C2000F0CFFC0C48029942C00660466063
:103950000A4805600448056009490A4801600A48A8
:103960000A49016014E0C0465006202090120A4027
:10397000140520200000864000002020540620204E
:10398000000048C26406202070062020000070421B
:1039900001F03EFB20680128FAD126601648066037
:1039A0001648089901600799016115480560154896
:1039B00039463246FDF754FE124839462A46FDF78D
:1039C0004FFE02220F48054639460192FDF748FE98
:1039D000032228463946FDF743FE322000F082FCE0
:1039E000094805990160049803490860074803994C
:1039F0000160074807600DE05006202090120A4041
:103A000014052020000086406C0620205806202047
:103A10005C06202001F0FCFA20680128FAD126601B
:103A20001948066019480899016007990161069DC7
:103A3000174805606327174839463246FDF710FEE0
:103A4000144839462A46FDF70BFE12483946019DB7
:103A50002A46FDF705FE03220E483946FDF700FE13
:103A60003C2000F03FFC0C48029942C006604660D2
:103A70000A480560069D0448056009480949016037
:103A800009480A49016013E05006202090120A40BC
:103A9000140520200000864000002020540620202D
:103AA000640620200000544270062020000070426E
:103AB00001F0AEFA20680128FAD1266015480660A8
:103AC000FC480899016007990161FB480560FB48C3
:103AD00039463246FDF7C4FDF84839462A46FDF717
:103AE000BFFD0222FD483946FDF7BAFD0322FB481F
:103AF0003946FDF7B5FD322000F0F4FBF848059992
:103B000001600498EE490860F64807600398F6499A
:103B1000086001E05006202001F07AFA20680128B0
:103B2000FAD12660E6480660EA48089901600799DC
:103B30000161E94805606327E84839463246FDF7E8
:103B40008FFDE64839462A46FDF78AFD0222E34802
:103B50003946FDF785FD0322E0483946FDF780FD33
:103B60003C2000F0BFFBE148029942C0066046607D
:103B7000D4480560D2480560D348DE490160D34887
:103B8000D349016001F044FA20680128FAD1266087
:103B9000CB480660CF480899016007990161CE487B
:103BA0000560CE4839463246FDF75AFDCB483946C6
:103BB0002A46FDF755FD0222C848054639460192BE
:103BC000FDF74EFD032228463946FDF749FD322018
:103BD00000F088FBC248059901600498B849086064
:103BE000C04803990160C048076001F011FA2068DD
:103BF0000128FAD12660B2480660B64808990160EB
:103C000007990161069DB44805606327B3483946AA
:103C10003246FDF725FDB14839462A46FDF720FD1D
:103C2000AE483946019D2A46FDF71AFD0322AB48EE
:103C30003946FDF715FD3C2000F054FBAB480299D6
:103C400042C0066046609F480560069D9C4805602E
:103C50009D48A74901609D489D49016001F0D8F940
:103C600020680128FAD1266095480660994808998D
:103C700001600799016198480560984839463246C5
:103C8000FDF7EEFC954839462A46FDF7E9FC02228D
:103C900092483946FDF7E4FC032290483946FDF787
:103CA000DFFC322000F01EFB8D480599016004986E
:103CB000834908608B48076003988B49086001F0CE
:103CC000A7F920680128FAD126607D48066081485E
:103CD00008990160079901617F48056063277F4863
:103CE00039463246FDF7BCFC7C4839462A46FDF78A
:103CF000B7FC022279483946FDF7B2FC0322774827
:103D00003946FDF7ADFC3C2000F0ECFA774802990B
:103D100042C0066046606B480560694805606A48B5
:103D20007449016069486A49016001F071F92068CD
:103D30000128FAD126606248066066480899016049
:103D40000799016164480560644839463246FDF7C9
:103D500087FC624839462A46FDF782FC02225F480A
:103D6000054639460192FDF77BFC03222846394679
:103D7000FDF776FC322000F0B5FA5948059901604C
:103D800004984F49086057480399016056480760F6
:103D900001F03EF920680128FAD126604848066003
:103DA0004C480899016007990161069D4A480560E1
:103DB00063274A4839463246FDF752FC47483946A0
:103DC0002A46FDF74DFC45483946019D2A46FDF738
:103DD00047FC032241483946FDF742FC3C2000F0F5
:103DE00081FA4248029942C0066046603548056043
:103DF000069D3348056034483D49016033483449E5
:103E0000016001F005F920680128FAD126602C48EC
:103E10000660304808990160079901612E480560E5
:103E20002E4839463246FDF71BFC2C4839462A46B7
:103E3000FDF716FC022229483946FDF711FC032242
:103E400026483946FDF70CFC322000F04BFA244896
:103E5000059901600498F4490860FE4807600398DA
:103E6000FD49086001F0D4F820680128FAD12660E5
:103E7000ED480660F3480899016007990161F2482E
:103E800005602C466325F14F384629463246FDF73A
:103E9000E7FB384629462246FDF7E2FB0222384678
:103EA0002946FDF7DDFB032238462946FDF7D8FBFE
:103EB00009B0F0BD90120A40140520200000864091
:103EC0005006202054062020640620207006202062
:103ED0000000704290120A40140520200000864025
:103EE0006C062020580620205C06202000002020A0
:103EF00000005442000048C28AB0CB4D0120286027
:103F0000CA4909900860CA49CA480860CA48CB49EA
:103F10000160CB4C01F07CF820680128FAD1002226
:103F200022602A60099DA805C649079008606805B7
:103F300006900861C4480560C44F63263846314680
:103F40000892FDF78DFB384631462A46FDF788FB7F
:103F50000222384631460192FDF782FB03223846A1
:103F60003146FDF77DFB322000F0BCF9B848502106
:103F70000591016004200490AB490860B5485A21BE
:103F800003910160B448066001F042F820680128FE
:103F9000FAD1089D2560A44E35600798A9490860AC
:103FA00006980861A848099901606327A74E304622
:103FB00039462A46FDF754FB30463946099AFDF743
:103FC0004FFB30463946019E3246FDF749FB03223E
:103FD0009E483946FDF744FB3C2000F083F99F4999
:103FE0007F20C005029021C10D604D608F480660A2
:103FF0008D48099901609A498D4801608E488F4922
:10400000016001F005F820680128FAD1089A2260C1
:104010008548026007988B49086006980861099DE9
:1040200089480560894E30463946FDF719FB304610
:1040300039462A46FDF714FB022230463946FDF781
:104040000FFB032230463946FDF70AFB322000F011
:1040500049F97F48059901600498734908607D48D3
:10406000076003987C49086000F0D2FF20680128AF
:10407000FAD1089D25606C48056007987149086071
:1040800006980861099E7048066063276F483946A4
:104090002A46FDF7E5FA6D4839463246FDF7E0FA63
:1040A00002226A483946FDF7DBFA0322674839469F
:1040B000FDF7D6FA3C2000F015F96848029922C0B5
:1040C000056045605948066057480660584865498C
:1040D000016059485949016000F09AFF20680128A1
:1040E000FAD1089A22605048026007985549086042
:1040F00006980861099D54480560544E304639467B
:10410000FDF7AEFA304639462A46FDF7A9FA0222F3
:10411000304639460192FDF7A3FA0322304639466C
:10412000FDF79EFA322000F0DDF84948059901605C
:1041300004983D4908604748039901604648076074
:1041400000F066FF20680128FAD1089E26603648F4
:10415000066007983B49086006980861099D3A483F
:1041600005606327394839463246FDF779FA374802
:1041700039462A46FDF774FA34483946019D2A46E5
:10418000FDF76EFA032231483946FDF769FA3C2003
:1041900000F0A8F8D248029942C006604660234861
:1041A000056021480999016021482D490160224894
:1041B0002249016000F02CFF20680128FAD1089AFA
:1041C00022601948026007981E4908600698086135
:1041D000099D1D4805601D4E30463946FDF740FAE1
:1041E000304639462A46FDF73BFA02223046394628
:1041F000FDF736FA032230463946FDF731FA322010
:1042000000F070F8124805990160049806490860AA
:104210001048076003981049086000F0F9FE206814
:104220000128FAD125E7C046500620205406202058
:1042300064062020000010C270062020000070429A
:104240003005202090120A401405202000008640EE
:104250006C062020580620205C062020000020202C
:1042600000005442000048C2F0B581B01B4801680C
:104270000568036802681A4C266800962468066878
:104280000768080402D4192001B0F0BD1820C0430B
:10429000790101D401B0F0BDE90302D4142001B0CA
:1042A000F0BDB10102D4401D01B0F0BD990302D4AC
:1042B0000F2001B0F0BDA10502D40A3001B0F0BD5D
:1042C000110102D4052001B0F0BD0099C90502D545
:1042D000002001B0F0BD143001B0F0BD80130A40E1
:1042E00080330A40B0B57D21090241431E4803686E
:1042F000262206E0E41A051F2D686419A2188A42D6
:1043000010D21C460368A34208D10368A34205D11A
:104310000368A34202D10368A342F3D09C42E9D9C7
:10432000E41AEBE7B0BDC046B0B50F490B684001D9
:10433000262206E0E41A0D1F2D686419A218824295
:1043400010D21C460B68A34208D10B68A34205D1CA
:104350000B68A34202D10B68A342F3D09C42E9D977
:10436000E41AEBE7B0BDC04618E000E0F0B589B054
:1043700000F0C0F800F042F900F080FC574800F06F
:104380006BFA574E3068014601F004FC074674682A
:104390002046214601F0FEFB01460690F06807909A
:1043A00001F0BCFC0546B66838460497314601F07A
:1043B000B5FC294601F00AFDFCF794FD01F07EF8FA
:1043C00000220892474BFCF769FC474A474BFCF731
:1043D000DFF9FBF7F3FF464908603046314601F04C
:1043E000D9FB05463846214601F098FC0746284689
:1043F000079901F093FC394601F0CCFBFCF772FD04
:1044000002900191032081070391204601F086FC70
:1044100007463046294601F081FC054638462146CC
:1044200001F07CFC294601F0D1FC7F21C9050591F2
:1044300001F0B0FBFCF756FD02460B4602980199CD
:1044400001F084FA089A274BFCF728FC264A274BF0
:10445000FCF79EF9FBF7B2FF254948600498079FD7
:10446000394601F05BFC04460698314601F056FCE3
:10447000214601F08FFBFCF735FD06900491304694
:10448000039C214601F04AFC05463846214601F0CE
:1044900045FC0146384601F041FC044628463146B9
:1044A00001F03CFC214601F075FB059901F072FB1F
:1044B000FCF718FD02460B460698049901F046FAEF
:1044C000089A084BFCF7EAFB074A084BFCF760F92F
:1044D000FBF774FF0649886009B0F0BD2406202070
:1044E00000002020008066404AD8124DFB21094080
:1044F00024052020F0B585B0D54804210491016140
:10450000D44CBB212046FCF773FF2046FCF754FF38
:10451000002520462946FCF76BFF2046FCF74CFFA0
:10452000039020462946FCF763FF2046FCF744FF32
:10453000029020462946FCF75BFF2046FCF73CFF33
:10454000019020462946FCF753FF2046FCF734FF34
:10455000074620462946FCF74BFF2046FCF72CFF78
:10456000064620462946FCF743FF2046FCF724FF79
:104570000499B74A116003990902029A8D181949E2
:104580000A880D8018490A8001990902CF19174934
:104590000B880F8016490B8031020C1815480188D2
:1045A0000480154E31802DB216B2AD1BEE1775404A
:1045B000AE1B1DB2272E01D80A4E32800AB23EB27F
:1045C000751BEE177540AD1B272D01D8074D2B80AD
:1045D00023B29A1AD3175A40D21A272A00D8018038
:1045E00005B0F0BD180620201A0620201C06202049
:1045F0001E0620202006202022062020F0B585B0AF
:104600009348042104910161924DC3212846FCF78F
:10461000EFFE2846FCF7D0FE002428462146FCF792
:10462000E7FE2846FCF7C8FE039028462146FCF723
:10463000DFFE2846FCF7C0FE029028462146FCF724
:10464000D7FE2846FCF7B8FE019028462146FCF725
:10465000CFFE2846FCF7B0FE074628462146FCF769
:10466000C7FE2846FCF7A8FE064628462146FCF76A
:10467000BFFE2846FCF7A0FE0499754A1160039915
:104680000902029A8A18124D2A8001990902CB194F
:10469000104F3B80310209180F48018016B2F61303
:1046A0007240921B92B2132A00D82C801AB2D213F5
:1046B00053409A1A92B2132A00D83C800AB2D213FD
:1046C0005140891A89B2132900D8048005B0F0BD81
:1046D0003C0620203E06202040062020F0B581B078
:1046E0000A20FFF7FFFD0025594E5A4C0427376179
:1046F000F5212046FCF77CFE2046FCF75DFEE9B282
:104700002046FCF775FE2046FCF756FE054637604E
:104710000A20FFF7E7FD122DE8D137616B21204613
:10472000FCF766FE2046FCF747FE80212046FCF79A
:104730005FFE2046FCF740FE37600220FFF7D2FD07
:1047400000253761EB212046FCF752FE2046FCF79E
:1047500033FEE9B22046FCF74BFE2046FCF72CFE68
:10476000054637604128ECD137616B212046FCF7C4
:104770003FFE2046FCF720FE012520462946FCF797
:1047800037FE2046FCF718FE376037616C21204663
:10479000FCF72EFE2046FCF70FFE00212046FCF71A
:1047A00027FE2046FCF708FE376037611A212046B5
:1047B000FCF71EFE2046FCF7FFFD20462946FCF7CD
:1047C00017FE2046FCF7F8FD3760376119212046B7
:1047D000FCF70EFE2046FCF7EFFD07212046FCF714
:1047E00007FE2046FCF7E8FD376037611B212046B5
:1047F000FCF7FEFD2046FCF7DFFD18212046FCF704
:10480000F7FD2046FCF7D8FD376037611C212046B4
:10481000FCF7EEFD2046FCF7CFFD10212046FCF70B
:10482000E7FD2046FCF7C8FD376037611D212046B3
:10483000FCF7DEFD2046FCF7BFFD03212046FCF718
:10484000D7FD2046FCF7B8FD376001B0F0BDC0468B
:1048500090320A4000804640F0B58FB00446C768E9
:1048600005693846294601F059FA6669314601F072
:1048700055FA002100F0F6FD002801D00FB0F0BD80
:104880002846294601F04AFA059404463846394636
:1048900001F044FA214601F07DF9044630463146E4
:1048A00001F03CFA214601F075F90C974710BF2141
:1048B0000906079101F032FA0E90E849CF1B3946FC
:1048C00001F02CFA394601F029FAFF218C05214626
:1048D000069401F05FF9394601F020FA07460E9878
:1048E000394601F01BFA394601F018FA214601F069
:1048F00051F90146384601F011FA04460190284664
:10490000214601F00BFA08903046214601F006FAE4
:1049100007460990D24DA9680D91EE68304601F026
:10492000FDF9044629680A916D68284601F0F6F9F8
:104930000146204601F02EF9014601F02BF90490C2
:10494000394601F0EBF903900E963046314601F0FE
:10495000E5F906460D98014601F0E0F904460B958D
:104960002846294601F0DAF907460A98014601F07F
:10497000D5F9394601F02AFA214601F027FA014615
:10498000304601F007F906460898314601F0C6F9AD
:10499000039901F01BFA0290B2490F4601F0BEF9EB
:1049A000B14C216801F0F6F8039020600C98019951
:1049B00001F0B4F904463046214601F0AFF905464E
:1049C0000E980B9901F0AAF906460D980A9901F084
:1049D000A5F90146304601F0F9F9014601F0DAF88F
:1049E00006460998314601F099F9294601F0EEF999
:1049F0000190394601F092F99C4D296801F0CAF8FE
:104A000028603046089E314601F088F90546204668
:104A1000049901F083F9294601F0D8F90490394648
:104A200001F07CF9924D296801F0B4F828609148B2
:104A30000068029901F072F9059F396801F0AAF83F
:104A400005468D480068039901F068F9294601F090
:104A5000A1F80C903860FC603E6109987861854847
:104A600004682046019901F059F9796801F092F83B
:104A70000646814805687D480168284601F04EF9E0
:104A8000314601F087F80646786008902046049980
:104A900001F044F9B96801F07DF8044674480168F2
:104AA000284601F03BF9214601F074F80546B8604C
:104AB0000120C0070B9948400C9901F02FF90446DA
:104AC00030460D9E314601F029F90146204601F09D
:104AD0007DF904460E9F38460995294601F01EF9D6
:104AE0000146204601F072F95E4901F017F90146CE
:104AF0000A9801F04FF80A900C9901F00FF904465A
:104B00003046294601F00AF90146204601F042F8F4
:104B100004463846089D294601F000F90146204622
:104B200001F054F94F4901F0F9F801460B9801F0F2
:104B300031F80646099831460B9601F0EFF8044625
:104B40000A9F3846294601F0E9F8214601F03EF96E
:104B500004460E980C9901F0E1F8214601F01AF88C
:104B6000404901F0DBF801460D9801F013F80446C6
:104B70002846314601F0D2F806463846099901F038
:104B8000CDF8314601F006F8054620460C9901F0B3
:104B9000C5F80146284601F019F9324901F0BEF87E
:104BA00001460E9800F0F6FF05460B98014601F00D
:104BB000B5F806463846394601F0B0F8314600F0FF
:104BC000E9FF06460D942046214601F0A7F831463C
:104BD00000F0E0FF06462846294601F09FF83146DE
:104BE00000F0D8FF4710079901F098F806461B48D7
:104BF000C71B3046394601F091F8394601F08EF86E
:104C0000069C214600F0C6FF394601F087F80746AA
:104C10003046394601F082F8394601F07FF82146E6
:104C200000F0B8FF0146384601F078F806462846FD
:104C3000314601F073F80A4CE0600D98314601F0FE
:104C40006DF8A0600B98314601F068F860600A9832
:104C5000314601F063F820600FB0F0BD865A375F2F
:104C6000000020200AD7A33B8400202088002020B9
:104C70008C0020201400202010002020F0B581B0EE
:104C800000244648005FFCF7A1F9454901F046F8C9
:104C90007321CE05314601F041F80546414FF868D1
:104CA000414901F03BF8294600F074FFF8603F48A5
:104CB000005FFCF78BF93A4901F030F8314601F01A
:104CC0002DF805463869384901F028F8294600F0E2
:104CD00061FF38613648005FFCF778F9304901F030
:104CE0001DF8314601F01AF8054678692E4901F0A1
:104CF00015F8294600F04EFF78613E462D48005FCA
:104D0000FCF764F92C49096801F060F8FCF7EAF84F
:104D10002A4A2B4BFBF7C2FF2A4B2246FBF738FDF2
:104D200003225507284F2A463B46FBF731FDFBF788
:104D300045FB30602548005FFCF748F91E4949688B
:104D400001F044F8FCF7CEF81C4A1D4BFBF7A6FF18
:104D500022461C4BFBF71CFD2A463B46FBF718FD81
:104D6000FBF72CFB70601A48005FFCF72FF9124923
:104D7000896801F02BF8FCF7B5F8104A104BFBF7E7
:104D80008DFF22460F4BFBF703FD2A463B46FBF700
:104D9000FFFCFBF713FBB06001B0F0BD180620204C
:104DA0009A99993E240620203333333F1C06202055
:104DB000200620203C062020780020204AD8124DD2
:104DC000FB21094000806640666630403E06202098
:104DD0004006202001204005014908607047C04678
:104DE00090120A4084B0FDF7B9FEFEF7B1F8FCF767
:104DF000A5FFFCF779FCFFF771FC0120039000048C
:104E00003E4908603E490860404D0120C1053D4CC7
:104E100022680A400306216819403B4B1B78002B8F
:104E200013D14B424B41002A039C00D01C46012C5D
:104E30000BD1039B344C2370002A01D000290BD1E5
:104E4000002900D10220286007E0002A04D00029B0
:104E500002D000202C49087028682D4909680128D3
:104E600007D100202860042900DC481C284908607C
:104E700000E00846274908600124009400263027F6
:104E8000102530463946244A2B46FDF7F3FC2148CD
:104E9000026800950194042338463946FDF78CFCDE
:104EA000FDF7EAFA00F0B4F8184D28680228ACD1F2
:104EB0002E60009430211023304618A2FDF7DAFC52
:104EC000FDF7DAFA13480068401E04289DD8C04652
:104ED000784400794000874405080B0E0200FFF774
:104EE0000BF892E7FEF7F2F98FE7FEF723FA8CE76B
:104EF000FEF70EFB89E7FEF707FC86E780E200E09D
:104F000000E100E080130A404C06202048062020E3
:104F10004406202018052020387A00006973206F8D
:104F20006B000000B0B50121CA038A480368134032
:104F30005A425A410B0404681C40634263411343C4
:104F40004A0404681440624262411A43CB06046872
:104F50001C406342634113430A027F4C256815409D
:104F60006A426A411A434B0224681C40634263410F
:104F700013434A0604681440624262411A438B0696
:104F800004681C406042604110430840B0BDC04608
:104F900070B5704A14681368116810686E4D2E68F9
:104FA0002D68156812680122D50325406C426C41BA
:104FB00015041D406B426B41234354040C40614275
:104FC00061411943D206024050425041084370BD2E
:104FD00010B56048016801680168016801210A0292
:104FE0005D4B1C681440624262414C021B682340C6
:104FF0005C425C4114434A06036813405A425A41DA
:105000002243890603680B4058425841104310BDA3
:10501000F0B58DB005A8039006A8029007A80190EE
:1050200008A800900CA80BA90AAA09AB00F06AF81E
:105030000C9A012410250095019400263046314633
:105040002346FDF7B9FB0B9A00950194284631469B
:105050002346FDF7B1FB0A9A0095019420200490A5
:1050600031462346FDF7A8FB099A009501943020AC
:1050700031462346FDF7A0FB089A00950194402095
:1050800031462346FDF798FB079A0095019450207E
:1050900031462346FDF790FB069A00950194602067
:1050A00031462346FDF788FB059A00950194702050
:1050B00031462346FDF780FB0F488068FBF73CFF35
:1050C00007460094002801DA0D4A00E00B4A3046FA
:1050D000049E31462B46FDF7CDFB00950194F81751
:1050E00047403A1A082004233146FDF765FBFDF7D7
:1050F000C3F90DB0F0BDC04624052020347A00006D
:10510000367A0000B0B5134C25682D04ED0F05600C
:105110002068C003C00F086020688003C00F1060C3
:1051200020680001C00F18600B480168C905C90F4D
:10513000049A116000688005C00F05990860206816
:105140008001C00F0699086020684001C00F0799D0
:105150000860B0BD80130A4080330A4043088B4288
:105160001AD3002203098B4279D3030A8B425ED300
:10517000030B8B4242D3030C8B4227D30902FF223D
:1051800012BA030C8B4202D31212090203D0030B92
:105190008B4233D31AE0D3E0411A8041401C704760
:1051A00003460B4371D443088B42F5D30022030915
:1051B0008B4254D3030A8B4239D3030B8B421DD34A
:1051C000030C8B4202D394466EE0090AC30B8B4258
:1051D00001D3CB03C01A5241830B8B4201D38B0303
:1051E000C01A5241430B8B4201D34B03C01A5241A8
:1051F000030B8B4201D30B03C01A5241C30A8B42EB
:1052000001D3CB02C01A5241830A8B4201D38B02D5
:10521000C01A5241430A8B4201D34B02C01A524179
:10522000030A8B4201D30B02C01A5241CDD2C309EB
:105230008B4201D3CB01C01A524183098B4201D367
:105240008B01C01A524143098B4201D34B01C01A52
:10525000524103098B4201D30B01C01A5241C308CA
:105260008B4201D3CB00C01A524183088B4201D339
:105270008B00C01A524143088B4201D34B00C01A25
:105280005241411A524110007047CA0F00D04942A2
:10529000031000D34042534000229C4603098B4236
:1052A0002DD3030A8B4212D38901FC2212BA030ABE
:1052B0008B420CD3890192118B4208D38901921140
:1052C0008B4204D3890137D0921100E08909C309C8
:1052D0008B4201D3CB01C01A524183098B4201D3C7
:1052E0008B01C01A524143098B4201D34B01C01AB2
:1052F000524103098B4201D30B01C01A5241C3082A
:105300008B4201D3CB00C01A524183088B4201D398
:105310008B00C01A5241D9D243088B4201D34B00B3
:10532000C01A5241411A00D201465241104663460A
:105330005B1000D34042704763465B1000D340428D
:1053400001B50021004201D0C9430846C046C0460D
:1053500002BD00004900CA020243100000D0042030
:105360004A0D01D001221043044A490D914201D156
:1053700002210843012800D105207047FF070000E3
:10538000F8B504464F1EC8000838211815461E46B9
:10539000086849683A4606239A4310D02A4633469D
:1053A000FBF77CFC3A46D200083AA3181A687F1E25
:1053B0005B68FBF7BDF906223B469343EED1022F13
:1053C00023D0042F11D0062F2FD12A463346FBF7C6
:1053D00065FCE36AA26AFBF7ABF92A463346FBF7A2
:1053E0005DFC636A226AFBF7A3F92A463346FBF7A2
:1053F00055FCE369A269FBF79BF92A463346FBF7A4
:105400004DFC63692269FBF793F92A463346FBF7A3
:1054100045FCE368A268FBF78BF92A463346FBF7A5
:105420003DFC63682268FBF783F9F8BD10B50122E3
:10543000FBF7E2FD10BD10B5FBF77AF910BD0022B5
:1054400010B5134610461146FBF7A2F910BD000037
:10545000034A10B500201107FBF7CEFD10BD000078
:1054600001FDFFFF10B500F0DBFBEFF30080400013
:1054700001D5012010BD002010BD10B500F0FAFBD1
:10548000EFF30080800001D5012010BD002010BD89
:1054900010B500F0EFFBEFF300804000800F012813
:1054A00000D0002010BD10B500F00EFCEFF300801E
:1054B000800001D4012010BD002010BDF0B50446CD
:1054C0004F008E488FB07F080D460D91874228DB34
:1054D0004042381820430CD08948874203DC874279
:1054E00018D1002C16D020462946FFF79FFF0FB099
:1054F000F0BD844A844B20462946FBF7CFFB074684
:105500000E46824A824B20462946FBF7C7FB3A46A5
:10551000334649E00120FBF769FDFFF790FF0FB02C
:10552000F0BD7C48874243DAF920800587420BDAD8
:1055300020462946FFF70EFF042801D1FFF788FF18
:10554000204629460FB0F0BD22462B46104629467C
:10555000FBF7A4FB064602466F480F460B460621A2
:105560007844FFF70DFF32463B46FBF797FB06906A
:105570006A48079132463B4604217844FFF700FF12
:1055800032463B46FBF78AFB00225C4BFBF7D0F828
:1055900002460B4607990698FBF7FAF822462B4677
:1055A000FBF77CFB22462B46FBF7C2F80FB0F0BDA1
:1055B0002046524C6900490800222346FBF7D0F8E8
:1055C0000022D243FBF718FD0546024654480E461A
:1055D0000B4606217844FFF7D3FE2A463346FBF7F5
:1055E0005DFB06904F4807912A46334604217844D4
:1055F000FFF7C6FE2A463346FBF750FB0022234640
:10560000FBF796F8059104902846314600F06CFAB5
:10561000089045480C46874219DB059B049A079978
:105620000698FBF7B5F802460B4621460898FBF7AB
:1056300035FB2346089AFBF77BF80122FBF7DCFCDD
:10564000304A314BFBF781F8304A314B4AE00027B2
:105650003A460B460898FBF76BF83A4623460A9100
:105660000E9010461946FBF719FB2A463346FBF706
:1056700077F80A9B0E9AFBF78BF805460E46059BBA
:10568000049A07990698FBF783F800910490012289
:1056900028463146FBF7B0FC1A4A1B4BFBF760F873
:1056A0000E460546012221460898FBF7A5FC009B03
:1056B000049AFBF7F3FA2A463346FBF746F8054609
:1056C0000E46012238462146FBF796FC0F4C174F39
:1056D00022463B46FBF744F82A463346FBF740F8A0
:1056E00022463B46FBF73CF80D9A002A00DD5DE7B9
:1056F0000122D20751400FB0F0BD00000000F03F82
:105700000000F07F075C143326A6913C182D44540A
:10571000FB21F93F0000E03FBC090000D209000076
:10572000480900005E0900003333EF3FFB21E93FE9
:10573000F0B589B004460D4648000691724940080C
:10574000884215DB7149884203DC884207D1002C6E
:1057500005D020462946FFF769FE09B0F0BD6C4828
:10576000002D02DD6B4909B0F0BD6B4909B0F0BDF9
:105770006A49884211DA6A4988420BDA204629468A
:10578000FFF7E8FD042801D1FFF762FE2046294615
:1057900009B0F0BD0026F6435DE06D0061496D087B
:1057A000884232DA6049884219DA002601233246FB
:1057B0009B0720462946FAF7BBFF074601910122C5
:1057C00020462946FBF718FC0022584BFAF7BDFF8C
:1057D0003A46019BFAF7DCFF04460D463BE0012602
:1057E0000022524B20462946FAF7A2FF07460091B5
:1057F00000224E4B20462946FAF7A7FF3A46009B67
:10580000FAF7C6FF04460D4625E04949884219DAF1
:1058100002260022474B20462946FBF73FFA00228A
:10582000424BFAF785FF074602910022414B204682
:105830002946FAF78AFF3A46029BFAF7A9FF04467F
:105840000D4608E0032622462B4600203A49FAF787
:105850009FFF04460D4622462B4610461946FBF78D
:105860001DFA07460B4602460191FBF717FA02465E
:10587000029032480B46039106217844FFF780FDE1
:105880003A46019BFBF70AFA00902D480191052149
:105890007844039B029AFFF773FD039B029AFBF780
:1058A000FDF902460B4601990098002E0BDAFAF733
:1058B0003FFF22462B46FBF7F1F922462B46FAF72B
:1058C0004FFF09B0F0BDFAF733FF22462B46FBF736
:1058D000E5F91C4AF6007A4493191A685B68FAF7EE
:1058E00034FF22462B46FAF730FF174A7A449319C1
:1058F0001A685B68FAF734FF069A002AE1DA012297
:10590000D207514009B0F0BD000010440000F07F04
:10591000182D4454FB21F93FFB21F9BF0000DC3F67
:105920000000203E0000F33F0000E63F0000F03F93
:10593000008003400000F83F0000F0BF5A0700005D
:105940001C070000B606000080060000F0B51FB47A
:10595000039A029D53006E422E439446F40F5B0857
:105960004A00574E52081C438E46B44205D847425F
:105970000743FC0F1443B44205D92A466346FFF798
:105980005AFD05B0F0BD4F4E66442E430AD0CC0FF1
:105990006646B61702273E40264304464A4F144344
:1059A00004D00BE0FFF7C4FE05B0F0BD002EFBD025
:1059B000012EF9D0022E32D0032E34D01C462C43B7
:1059C0000BD03F4CA34216D1A2420AD10121890734
:1059D0008B438A43114603930DE0704600280FDB8A
:1059E00025E03A4D7D44002E0ED0012E10D0022E1F
:1059F00015D0032E17D0A2421DD17046002816DA0A
:105A00003148334905B0F0BD6968286805B0F0BD7C
:105A100001226968D2072868514005B0F0BD3846B8
:105A20002C4905B0F0BD38462B4905B0F0BD2648DD
:105A30002A4905B0F0BDD21A12153C2A02DD224DCA
:105A4000264C12E06346002B05DA3C23DA4202DAE8
:105A500000252C4609E0039B029AFAF799FE4900BB
:105A60004908FFF765FE05460C46002E12D0012EB0
:105A70000DD01B4A1B4B022E2846214618D0FAF7A0
:105A800064FE3A46134BFAF760FE05B0F0BD012004
:105A9000C0074440002213462846214600F048F83B
:105AA00002D10220FBF7A2FA2846214605B0F0BD3C
:105AB000FAF74BFE3A46074BFAF752FE05B0F0BD37
:105AC0000000F07F000010C0182D44542006000094
:105AD000FB21F9BFFB210940FB2109C0FB21F93F54
