:020000040800F2
:1000000030C60120ED6A000871040008730400087E
:10001000770400087B0400087F040008000000004B
:100020000000000000000000000000008304000841
:100030008504000800000000870400088904000807
:10004000076B0008076B0008076B0008076B0008C8
:10005000076B0008076B0008076B0008076B0008B8
:10006000076B0008076B0008076B0008076B0008A8
:10007000076B0008076B0008076B00082D64000879
:10008000076B0008076B0008076B0008076B000888
:10009000076B0008076B0008076B0008076B000878
:1000A000076B0008076B0008076B0008076B000868
:1000B000076B0008076B0008619E0008076B0008CB
:1000C000076B0008076B0008076B0008076B000848
:1000D000076B0008636A0008076B0008076B0008DD
:1000E000076B0008076B0008076B0008076B000828
:1000F000076B0008076B0008076B0008076B000818
:10010000076B0008815E0008076B0008076B00089A
:10011000076B0008076B0008076B0008076B0008F7
:10012000076B0008076B0008076B0008076B0008E7
:10013000076B0008076B0008076B0008076B0008D7
:10014000076B0008076B0008076B0008076B0008C7
:10015000076B0008076B0008076B0008076B0008B7
:10016000076B0008076B0008076B0008076B0008A7
:10017000076B0008076B0008076B0008076B000897
:10018000076B0008076B000800F002F800F06DF83C
:100190000AA090E8000C82448344AAF10107DA45E2
:1001A00001D100F062F8AFF2090EBAE80F0013F0C7
:1001B000010F18BFFB1A43F001031847C81B0100C9
:1001C000E81B01000A444FF0000C10F8013B13F04B
:1001D000070408BF10F8014B1D1108BF10F8015BA0
:1001E000641E05D010F8016B641E01F8016BF9D193
:1001F00013F0080F1EBF10F8014BAD1C0C1B09D1EA
:100200006D1E58BF01F801CBFAD505E014F8016B5B
:1002100001F8016B6D1EF9D59142D6D370470000ED
:100220000023002400250026103A28BF78C1FBD8FF
:10023000520728BF30C148BF0B60704764290FF0D8
:10024000FB8075290FF0F88078290FF03181632940
:100250000FF0D08373290FF0D583002070471FB5AE
:100260000FF0ACFD1FBD10B510BD0FF02FFC1146F7
:10027000FFF7F5FF00F010F80FF04DFC03B4FFF7A7
:10028000F2FF03BC06F08EFB30BF72B6704762B659
:10029000704780F3088870470EB54FF4A06006F0F1
:1002A00045FCA82006F0FCFA4FF4E13006F087FB8D
:1002B00000F0F4F9494841685420884700F07FFE77
:1002C00003F03EFD03F06AFE06F000F9282108461F
:1002D00006F035FA322006F049FA002009F087F9D5
:1002E000022009F084F90DF07DFD3D4901220868E6
:1002F0003CA10BF00FFF4FF478403B49088018E019
:100300003AA010210B46C822CDE9001032211E2050
:1003100003F0D7FCC82006F025FB4FF6FF70422300
:10032000F022322100901E2003F070FAC82006F05F
:1003300019FB0EF03AF90028E2D14FF478402A492F
:100340000880002010212CA20B46CDE9002102904C
:10035000C82232213C200EF034FA002010212CA2B9
:100360000B46CDE900210290C82246213C200EF028
:1003700028FA002010212AA20B46CDE90021029084
:10038000C8225A213C200EF01CFA0020102129A27C
:100390000B46CDE900210290C8226E213C200EF0D0
:1003A00010FA0020102127A20B46CDE9002102906F
:1003B000C82282213C200EF004FA0020102127A23E
:1003C0000B46CDE900210290C82296213C200EF078
:1003D000F8F901E00EF059FEFCE70000680100208A
:1003E0002CBF0120303A000014000020466F6E74CC
:1003F000204572726F7221004578706C6F72657261
:100400002053544D33324634BFAAB7A2B0E50000A2
:10041000D2F4C0D6B2A5B7C5C6F7CAB5D1E90000B7
:10042000D5FDB5E3D4ADD7D340414C49454E5445F5
:100430004B00000032303134C4EA35D4C23234C803
:10044000D50000004B4559303A4E455854202020E5
:100450004B4559323A505245560000004B45595FC2
:1004600055503A50415553452F504C4159000000CA
:10047000704700BFFEE700BFFEE700BFFEE700BF1A
:10048000FEE7704770477047704700000CB50020CA
:10049000019000907648006840F48030744908600C
:1004A00000BF7348006800F4003000900198401CC1
:1004B0000190009818B90198B0F5A04FF1D16C489F
:1004C000006800F4003010B10120009001E000202D
:1004D00000900098012846D165484030006840F0FF
:1004E00080506349403108606248006840F44040F1
:1004F000604908605E48083000685D49083108605E
:100500000846006840F4004008600846006840F46F
:10051000A05008605848091F0860081F006840F094
:100520008070091F086000BF5148006800F000702B
:100530000028F9D040F20570504908604C48083056
:10054000006820F003004A49083108600846006846
:1005500040F00200086000BF45480830006800F025
:100560000C000828F8D10CBD10B54548006840F4CF
:100570007000434908603E48006840F001003C4973
:10058000086000203A4908310860394800683D4950
:100590000840374908603C48091D0860081F00688A
:1005A00020F48020091F0860002031490C310860C8
:1005B000FFF76CFF4FF0006031498039086010BDD3
:1005C00070B500200022022300240221284D0835A6
:1005D0002D6805F00C0020B1042806D0082834D17D
:1005E00007E02A4D2A4E356033E02A4D284E35600B
:1005F0002FE01F4D2D1D2D68C5F380541C4D2D1D62
:100600002D6805F03F0154B1224DB5FBF1F5184EB0
:10061000361D3668C6F3881605FB06F209E01B4D49
:10062000B5FBF1F5124E361D3668C6F3881605FB8C
:1006300006F20F4D2D1D2D68C5F301456D1C6B0095
:10064000B2FBF3F5124E356003E0104D104E3560ED
:1006500000BF00BF064D08352D68C5F303150E4ECB
:10066000705D0B4D2D68C540094E356070BD0000B2
:10067000003802400070004008544007003C02402F
:1006800088ED00E0FFFFF6FE103000240024F400A7
:100690000000002000127A00040000201CB5012197
:1006A000202007F0BBF84FF4C060009001208DF8C7
:1006B000040000208DF8060003208DF805000120BD
:1006C0008DF807006946044806F026FB4FF4C06128
:1006D000014806F09DFB1CBD0014024001B5BDF8A9
:1006E00000000090BDF80000FE49088008BD01B57B
:1006F000BDF800000090BDF80000FA49891C088090
:1007000008BD08B5F748801C00880090BDF80000BF
:1007100008BDF44A10804FF0D842A2F8801070470C
:1007200010B504462046FFF7D9FF052006F0D2F8A1
:10073000FFF7E7FF10BDEC480089EA4908807047E1
:10074000E849891C0880704730B5014601F01F0454
:10075000C1F34513CA0AE50205EB43151544A8B2D7
:1007600030BD00BF011EA0F10102D0B2FAD1704726
:1007700010B502460C46DC48808841F66311884279
:1007800047D1D9488079A8B9D7480088401E801A37
:1007900082B2D5494889FFF7A1FF0020FFF7A7FFE4
:1007A0000020FFF7A4FF1012FFF7A1FFD0B2FFF760
:1007B0009EFF16E0CC494889FFF790FF1012FFF723
:1007C00096FFD0B2FFF793FFC7490988491EC1F3CE
:1007D0000F20FFF78CFFC4490978491EC8B2FFF704
:1007E00086FFC1498889FFF779FF2012FFF77FFF55
:1007F000E0B2FFF77CFFBC494988491EC1F30F20D6
:10080000FFF775FFB8498978491EC8B2FFF76FFF37
:100810003AE0B548808845F21051884220D1B2496B
:100820004889FFF75BFF1012FFF761FFAE49498966
:10083000491C88B2FFF752FFD0B2FFF758FFAA4910
:100840008889FFF74BFF2012FFF751FFA6498989DE
:10085000491C88B2FFF742FFE0B2FFF748FF13E000
:10086000A1494889FFF73AFF1012FFF740FFD0B2C5
:10087000FFF73DFF9C498889FFF730FF2012FFF703
:1008800036FFE0B2FFF733FF10BD2DE9F04105461A
:100890000E4600240027A04693480088A84203DDA6
:1008A00091484088B04202DC0020BDE8F08131462A
:1008B0002846FFF75DFF8C48808845F2105188423A
:1008C00004D14FF43850FFF709FF02E02E20FFF764
:1008D00005FFFFF716FF04468348808841F6631141
:1008E000884201D12046E0E7FFF70BFF0446FFF7FF
:1008F00008FF8046E7B24FF6FF7000EA0727E012D4
:10090000C002B91240EA411040EAE820CDE700B544
:100910007548808845F21051884204D14FF4245024
:10092000FFF7DCFE02E02920FFF7D8FE00BD00B58E
:100930006D48808845F21051884204D14FF4205010
:10094000FFF7CCFE02E02820FFF7C8FE00BDF0B59F
:1009500005460024002764488079012805D16248B3
:10096000808841F66311884208D15F488079F0B9E8
:100970005D48808841F66311884218D1082D15D250
:10098000DFE805F00406080A0C0E101206250DE03B
:1009900007250BE0042509E0052507E0012505E012
:1009A000002503E0032501E0022500BF00BF082D5C
:1009B0001CD2DFE805F00406090C0F12151800BF61
:1009C00014E044F0800411E044F040040EE044F0F0
:1009D000C0040BE044F0200408E044F0600405E0AB
:1009E00044F0A00402E044F0E00400BF00BF3E4831
:1009F000808845F21051884202D14FF4585700E0E8
:100A000036273948808849F24131884205D0364836
:100A1000808847F28971884201D144F00804214658
:100A20003846FFF776FE3048808841F663118842E9
:100A30001DD004F0200068B12B4800882A4949885D
:100A4000884214DA284806884088274908800846E2
:100A500046800CE02448008823494988884206DD06
:100A600021480688408820490880084646801E485C
:100A7000808845F21051884257D11B494889FFF7B9
:100A80002DFE0020FFF733FE17494989491C88B223
:100A9000FFF724FE0020FFF72AFE13494989891C2D
:100AA00088B2FFF71BFE10490988491EC1F30F20C9
:100AB000FFF71DFE0C494989C91C88B2FFF70EFEDD
:100AC00009490978491EC8B2FFF711FE064988890D
:100AD000FFF704FE0020FFF70AFE03498989491C3D
:100AE00088B203E07E00006C78020020FFF7F6FD7C
:100AF0000020FFF7FCFDFE498989891C88B2FFF7B9
:100B0000EDFDFB494988491EC1F30F20FFF7EFFDBA
:100B1000F7498989C91C88B2FFF7E0FDF449897853
:100B2000491EC8B2FFF7E3FD2DE0F1494889FFF700
:100B3000D5FD0020FFF7DBFD0020FFF7D8FDEC49D5
:100B40000988491EC1F30F20FFF7D1FDE849097854
:100B5000491EC8B2FFF7CBFDE5498889FFF7BEFD06
:100B60000020FFF7C4FD0020FFF7C1FDE0494988E0
:100B7000491EC1F30F20FFF7BAFDDD498978491EF0
:100B8000C8B2FFF7B4FDF0BD30B504460D462946A6
:100B90002046FFF7EDFDFFF7CEFDD6480088D64989
:100BA000088030BD30B504460D46D148808845F2F6
:100BB0001051884220D1CE494889FFF78FFD20127D
:100BC000FFF795FDCA494989491C88B2FFF786FDA0
:100BD000E0B2FFF78CFDC6498889FFF77FFD281238
:100BE000FFF785FDC2498989491C88B2FFF776FD68
:100BF000E8B2FFF77CFD42E0BD48808841F6631112
:100C0000884228D1BA48807920B9B9480088401E66
:100C1000001B84B2B6494889FFF760FD2012FFF738
:100C200066FDE0B2FFF763FD2012FFF760FDE0B262
:100C3000FFF75DFDAE498889FFF750FD2812FFF7E9
:100C400056FDE8B2FFF753FD2812FFF750FDE8B25A
:100C5000FFF74DFD13E0A6494889FFF73FFD20123D
:100C6000FFF745FDE0B2FFF742FDA1498889FFF794
:100C700035FD2812FFF73BFDE8B2FFF738FD9C4831
:100C800000899D49891E08804FF0D840A0F8802037
:100C900030BD70B52DED048B0446BE20FFF71EFD60
:100CA0000520FFF724FD20460EF077FF41EC190BDD
:100CB0009FED920B53EC102B0EF082FF41EC180BC2
:100CC0000EF03EFF85B22846FFF711FD0120FFF729
:100CD0000EFDFF20FFF70BFD0020FFF708FD0020B1
:100CE000FFF705FDBDEC048B70BD10B504468048D0
:100CF0008471002C45D1F0207D4908804FF4A0700C
:100D000048800846808845F21051884210D14FF43F
:100D10003050774908814FF4285048814FF42C50C7
:100D200088814FF4F07008804FF4487048801AE0D2
:100D30006F48808841F6631188420DD12C206C49A0
:100D400008812B2048812A2088814FF4F070088088
:100D50004FF44870488006E02C20654908812A201D
:100D600048812B2088816248808845F21031884272
:100D70004CD14FF4A0705E4908804FF4F070488069
:100D800044E04FF4A0705A490880F020488008469B
:100D9000808845F21051884210D14FF430505449A8
:100DA00008814FF4285048814FF42C5088814FF42B
:100DB000487008804FF4F07048801AE04C488088F2
:100DC00041F6631188420DD12C20494908812A201F
:100DD00048812B2088814FF4487008804FF4F070D0
:100DE000488006E02C20424908812A2048812B2097
:100DF00088813F48808845F21031884206D14FF4FF
:100E0000F0703B4908804FF4A07048800020FFF745
:100E10009EFD10BD2DE9F04104460D461E46A0186A
:100E2000401E87B2A819401E1FFA80F830488088FB
:100E300041F66311884231D12D48807901282DD0A7
:100E40002B480088801A001B84B2A819401E86B265
:100E500027494889FFF742FC2012FFF748FCE0B21F
:100E6000FFF745FCA118491EC1F30F20FFF73FFC17
:100E7000A118491EC8B2FFF73AFC1D498889FFF73F
:100E80002DFC2812FFF733FCE8B2FFF730FC3012DC
:100E9000FFF72DFCF0B2FFF72AFC79E014488088B8
:100EA00045F21051884251D111494889FFF716FC8B
:100EB0002012FFF71CFC0E494989491C88B2FFF734
:100EC0000DFCE0B2FFF713FC09494989891C88B27F
:100ED000FFF704FC3812FFF70AFC05494989C91CD1
:100EE00088B2FFF7FBFBF8B2FFF701FC004909E00D
:100EF00078020020140000208000006C66666666A0
:100F0000666604408889FFF7E9FB2812FFF7EFFBCC
:100F1000FD498989491C88B2FFF7E0FBE8B2FFF779
:100F2000E6FBF9498989891C88B2FFF7D7FB4FEAAC
:100F30002820FFF7DCFBF4498989C91C88B2FFF738
:100F4000CDFB08F0FF00FFF7D2FB21E0EE49488916
:100F5000FFF7C4FB2012FFF7CAFBE0B2FFF7C7FBA5
:100F60003812FFF7C4FBF8B2FFF7C1FBE6498889E6
:100F7000FFF7B4FB2812FFF7BAFBE8B2FFF7B7FBA5
:100F80004FEA2820FFF7B3FB08F0FF00FFF7AFFBA5
:100F9000BDE8F08170B504460026DB48058840882E
:100FA000454300210846FFF7E3FBFFF7C4FB00BF02
:100FB00002E0D6480480761CAE42FAD370BD00B57C
:100FC000A1B00020209001217A2006F027FC012109
:100FD000084606F05BFC4FF400401E9001208DF89F
:100FE0007C0000208DF87E0002208DF87D0001201D
:100FF0008DF87F001EA9C64805F08EFE4CF23370B6
:101000001E9002208DF87C0000208DF87E000320C9
:101010008DF87D0001208DF87F001EA9BD4805F0E8
:101020007BFE4FF680701E9002208DF87C00002021
:101030008DF87E0003208DF87D0001208DF87F0063
:101040001EA9B54805F068FE4FF480501E9002209E
:101050008DF87C0000208DF87E0003208DF87D0047
:1010600001208DF87F001EA9AC4805F055FE4FF415
:1010700080501E9002208DF87C0000208DF87E00AC
:1010800003208DF87D0001208DF87F001EA9A44863
:1010900005F042FE0C2200219E4805F0C8FE0C22FD
:1010A00001219C4805F0C3FE0C220421994805F05B
:1010B000BEFE0C220521974805F0B9FE0C2208213E
:1010C000944805F0B4FE0C220921924805F0AFFEC9
:1010D0000C220A218F4805F0AAFE0C220E218D4811
:1010E00005F0A5FE0C220F218A4805F0A0FE0C2277
:1010F0000721894805F09BFE0C220821864805F04F
:1011000096FE0C220921844805F091FE0C220A214A
:10111000814805F08CFE0C220B217F4805F087FEEC
:101120000C2211467C4805F082FE0C220D217A48E3
:1011300005F07DFE0C220E21774805F078FE0C228A
:101140000F21754805F073FE0C221146734805F017
:101150006EFE0C221146724805F069FE0F200890C1
:10116000002009903C200A9000200B900C900D90DC
:101170000E9009200190002002900820039000208A
:10118000049005900690079006200F900020109084
:10119000119010201290002013901590149016902A
:1011A00017904FF480501890002019904FF4804011
:1011B0001A9000201B9008A81C9001A81D900FA851
:1011C00005F089FE0121062005F010FF322005F010
:1011D000C9FBD320FFF782FAFFF793FA4A498880C8
:1011E000FFF78FFA48498880FFF78BFA46498880D5
:1011F000084680884FF6FF7101EA00204249888046
:10120000FFF77FFA4049898808433F4988800846AC
:10121000808849F24131884275D00420FFF75EFA98
:10122000FFF76FFA38498880FFF76BFA36498880F4
:10123000FFF767FA34498880084680884FF6FF71C7
:1012400001EA002030498880FFF75BFA2E4989883F
:1012500008432D4988800846808848F252518842C8
:1012600003D147F28970284988802748808847F24F
:1012700089718842D0D0D420FFF730FAFFF741FAC5
:1012800021498880FFF73DFA1F498880FFF739FA26
:101290001D498880084680884FF6FF7101EA0020CA
:1012A00019498880FFF72DFA17498988084316499C
:1012B00088800846808845F21031884279D05521CF
:1012C0004FF47040FFF725FAAA214FF20100FFF713
:1012D00020FA52214FF20200FFF71BFA08214FF2C9
:1012E0000300FFF716FA01214FF20400FFF711FA8D
:1012F0004FF44540FFF7F2F9FFF703FA02498880FF
:10130000084680880EE054E0780200208000006CDF
:1013100000040240000C0240001002400014024091
:10132000001802404FF6FF7101EA0020FE49888054
:101330004CF20150FFF7D2F9FFF7E3F9FA49898837
:101340000843F9498880052005F00CFBF6488088A1
:10135000B0F5004F03D145F21050F3498880F248B0
:10136000808845F21051884223D0A120FFF7B6F9BA
:10137000FFF7C7F9EC498880FFF7C3F9EA4988808D
:10138000084680884FF6FF7101EA0020E649888010
:10139000FFF7B7F9E44989880843E349888008469C
:1013A000808845F26171884203D141F66310DE49BD
:1013B0008880DD48808849F24131884217D0DA4878
:1013C000808847F28971884211D0D748808845F2D9
:1013D000103188420BD0D448808845F210518842A1
:1013E00005D0D148808841F6631188422CD1CF487E
:1013F000006820F00F004FF02041C1F81C010846A2
:10140000D0F81C0120F47060C1F81C010846D0F827
:101410001C0140F00300C1F81C01C348808847F25A
:101420008971884208D1C148006840F440704FF08B
:101430002041C1F81C0107E0BC48006840F400707E
:101440004FF02041C1F81C01B7488188B8A00DF0C9
:1014500097FFB548808849F2413188427ED1CF203C
:10146000FFF73CF90020FFF742F9C120FFF73FF9F1
:101470003020FFF73CF9ED20FFF730F96420FFF74B
:1014800036F90320FFF733F91220FFF730F98120F6
:10149000FFF72DF9E820FFF721F98520FFF727F95D
:1014A0001020FFF724F97A20FFF721F9CB20FFF76E
:1014B00015F93920FFF71BF92C20FFF718F9002048
:1014C000FFF715F93420FFF712F90220FFF70FF9A3
:1014D000F720FFF703F92020FFF709F9EA20FFF7CB
:1014E000FDF80020FFF703F90020FFF700F9C02006
:1014F000FFF7F4F81B20FFF7FAF8C120FFF7EEF82A
:101500000120FFF7F4F8C520FFF7E8F83020FFF7D7
:10151000EEF83020FFF7EBF8C720FFF7DFF8B72031
:10152000FFF7E5F83620FFF7D9F84820FFF7DFF896
:101530003A20FFF7D3F85520FFF7D9F8B120FFF78D
:10154000CDF80020FFF7D3F81A20FFF7D0F8B62027
:10155000FFF7C4F80A20FFF7CAF800E097E0A220DE
:10156000FFF7C5F8F220FFF7B9F80020FFF7BFF842
:101570002620FFF7B3F80120FFF7B9F8E020FFF7C6
:10158000ADF80F20FFF7B3F82A20FFF7B0F82820B6
:10159000FFF7ADF80820FFF7AAF80E20FFF7A7F82D
:1015A0000820FFF7A4F85420FFF7A1F8A920FFF7BF
:1015B0009EF84320FFF79BF80A20FFF798F80F20CA
:1015C000FFF795F80020FFF792F80020FFF78FF85B
:1015D0000020FFF78CF80020FFF789F8E120FFF7E3
:1015E0007DF80020FFF783F81520FFF780F817201B
:1015F000FFF77DF80720FFF77AF81120FFF777F85B
:101600000620FFF774F82B20FFF771F85620FFF73C
:101610006EF83C20FFF76BF80520FFF768F8102004
:10162000FFF765F80F20FFF762F83F20FFF75FF83C
:101630003F20FFF75CF80F20FFF759F82B20FFF74A
:101640004DF80020FFF753F80020FFF750F8012075
:10165000FFF74DF83F20FFF74AF82A20FFF73EF842
:101660000020FFF744F80020FFF741F80020FFF7C3
:101670003EF8EF20FFF73BF81120FFF72FF8782016
:1016800005F070F92920FFF729F802F0B3B82648D1
:10169000808847F2897188427DD11120FFF71EF8BA
:1016A000782005F05FF93620FFF718F80020FFF7E3
:1016B0001EF83A20FFF712F80520FFF718F8B220BD
:1016C000FFF70CF80C20FFF712F80C20FFF70FF8CB
:1016D0000020FFF70CF83320FFF709F83320FFF75D
:1016E00006F8B720FEF7FAFF3520FFF700F8BB2019
:1016F000FEF7F4FF3220FEF7FAFFC020FEF7EEFF00
:101700000C20FEF7F4FFC220FEF7E8FF0120FEF7F1
:10171000EEFFC320FEF7E2FF1020FEF7E8FFC42033
:10172000FEF7DCFF20200BE0780200201C0100A067
:10173000204C43442049443A25780D0A000000001B
:10174000FEF7D5FFC620FEF7C9FF0F20FEF7CFFF3B
:10175000D020FEF7C3FFA420FEF7C9FFA120FEF7AB
:10176000C6FFE020FEF7BAFFD020FEF7C0FF002042
:10177000FEF7BDFF0220FEF7BAFF0720FEF7B7FF16
:101780000A20FEF7B4FF2820FEF7B1FF3220FEF753
:10179000AEFF442000E062E0FEF7A9FF4220FEF722
:1017A000A6FF0620FEF7A3FF0E20FEF7A0FF1220E3
:1017B000FEF79DFF1420FEF79AFF1720FEF797FF14
:1017C000E120FEF78BFFD020FEF791FF0020FEF70F
:1017D0008EFF0220FEF78BFF0720FEF788FF0A200E
:1017E000FEF785FF2820FEF782FF3120FEF77FFFFE
:1017F0005420FEF77CFF4720FEF779FF0E20FEF70E
:1018000076FF1C20FEF773FF1720FEF770FF1B20EA
:10181000FEF76DFF1E20FEF76AFF2A20FEF75EFF2F
:101820000020FEF764FF0020FEF761FF0020FEF7B6
:101830005EFFEF20FEF75BFF2B20FEF74FFF00203F
:10184000FEF755FF0020FEF752FF0120FEF74FFF85
:101850003F20FEF74CFF2920FEF740FF15E7FE482A
:10186000808845F21031884240F07C87ED20FEF7F9
:1018700035FF0120FEF73BFFFE20FEF738FFEE208C
:10188000FEF72CFFDE20FEF732FF2120FEF72FFFB0
:10189000F120FEF723FF0120FEF729FFDF20FEF7EE
:1018A0001DFF1020FEF723FFC420FEF717FF8F2037
:1018B000FEF71DFFC620FEF711FF0020FEF717FF01
:1018C000E220FEF714FFE220FEF711FFE220FEF710
:1018D0000EFFBF20FEF702FFAA20FEF708FFB02090
:1018E000FEF7FCFE0D20FEF702FF0020FEF7FFFED4
:1018F0000D20FEF7FCFE0020FEF7F9FE1120FEF79A
:10190000F6FE0020FEF7F3FE1920FEF7F0FE0020A1
:10191000FEF7EDFE2120FEF7EAFE0020FEF7E7FECF
:101920002D20FEF7E4FE0020FEF7E1FE3D20FEF74D
:10193000DEFE0020FEF7DBFE5D20FEF7D8FE002075
:10194000FEF7D5FE5D20FEF7D2FE0020FEF7CFFEAB
:10195000B120FEF7C3FE8020FEF7C9FE0020FEF78F
:10196000C6FE8B20FEF7C3FE0020FEF7C0FE9620C9
:10197000FEF7BDFE0020FEF7BAFEB220FEF7AEFE77
:101980000020FEF7B4FE0020FEF7B1FE0220FEF7B5
:10199000AEFE0020FEF7ABFE0320FEF7A8FE0020FF
:1019A000FEF7A5FEB320FEF799FE0020FEF79FFE8E
:1019B0000020FEF79CFE0020FEF799FE0020FEF7B7
:1019C00096FE0020FEF793FE0020FEF790FE00201A
:1019D000FEF78DFE0020FEF78AFE0020FEF787FE50
:1019E0000020FEF784FE0020FEF781FE0020FEF7B7
:1019F0007EFE0020FEF77BFE0020FEF778FE002032
:101A0000FEF775FE0020FEF772FE0020FEF76FFE67
:101A10000020FEF76CFE0020FEF769FE0020FEF7B6
:101A200066FE0020FEF763FE0020FEF760FE002049
:101A3000FEF75DFE0020FEF75AFEB420FEF74EFED4
:101A40008B20FEF754FE0020FEF751FE9620FEF795
:101A50004EFE0020FEF74BFEA120FEF748FE0020C0
:101A6000FEF745FEB520FEF739FE0220FEF73FFEE9
:101A70000020FEF73CFE0320FEF739FE0020FEF7B3
:101A800036FE0420FEF733FE0020FEF730FEB620BF
:101A9000FEF724FE0020FEF72AFE0020FEF727FEB8
:101AA000B720FEF71BFE0020FEF721FE0020FEF708
:101AB0001EFE3F20FEF71BFE0020FEF718FE5E20F4
:101AC000FEF715FE0020FEF712FE6420FEF70FFE63
:101AD0000020FEF70CFE8C20FEF709FE0020FEF72A
:101AE00006FEAC20FEF703FE0020FEF700FEDC2021
:101AF000FEF7FDFD0020FEF7FAFD7020FEF7F7FD72
:101B00000020FEF7F4FD9020FEF7F1FD0020FEF727
:101B1000EEFDEB20FEF7EBFD0020FEF7E8FDDC20FC
:101B2000FEF7E5FD0020FEF7E2FDB820FEF7D6FD4A
:101B30000020FEF7DCFD0020FEF7D9FD0020FEF7B7
:101B4000D6FD0020FEF7D3FD0020FEF7D0FD0020DB
:101B5000FEF7CDFD0020FEF7CAFD0020FEF7C7FD11
:101B6000BA20FEF7BBFD2420FEF7C1FD0020FEF7E2
:101B7000BEFD0020FEF7BBFD0020FEF7B8FDC12032
:101B8000FEF7ACFD2020FEF7B2FD0020FEF7AFFD12
:101B90005420FEF7ACFD0020FEF7A9FDFF20FEF764
:101BA000A6FD0020FEF7A3FDC220FEF797FD0A2048
:101BB000FEF79DFD0020FEF79AFD0420FEF797FD3D
:101BC0000020FEF794FDC320FEF788FD3C20FEF7C1
:101BD0008EFD0020FEF78BFD3A20FEF788FD0020E9
:101BE000FEF785FD3920FEF782FD0020FEF77FFD20
:101BF0003720FEF77CFD0020FEF779FD3C20FEF744
:101C000076FD0020FEF773FD3620FEF770FD002004
:101C1000FEF76DFD3220FEF76AFD0020FEF767FD3E
:101C20002F20FEF764FD0020FEF761FD2C20FEF75B
:101C30005EFD0020FEF75BFD2920FEF758FD002029
:101C4000FEF755FD2620FEF752FD0020FEF74FFD62
:101C50002420FEF74CFD01E0780200200020FEF772
:101C600046FD2420FEF743FD0020FEF740FD232023
:101C7000FEF73DFD0020FEF73AFD3C20FEF737FD64
:101C80000020FEF734FD3620FEF731FD0020FEF780
:101C90002EFD3220FEF72BFD0020FEF728FD2F2021
:101CA000FEF725FD0020FEF722FD2C20FEF71FFD8C
:101CB0000020FEF71CFD2920FEF719FD0020FEF78D
:101CC00016FD2620FEF713FD0020FEF710FD242050
:101CD000FEF70DFD0020FEF70AFD2420FEF707FDAC
:101CE0000020FEF704FD2320FEF701FD0020FEF793
:101CF000FEFCC420FEF7F2FC6220FEF7F8FC002098
:101D0000FEF7F5FC0520FEF7F2FC0020FEF7EFFCE5
:101D10008420FEF7ECFC0020FEF7E9FCF020FEF743
:101D2000E6FC0020FEF7E3FC1820FEF7E0FC0020B4
:101D3000FEF7DDFCA420FEF7DAFC0020FEF7D7FC5E
:101D40001820FEF7D4FC0020FEF7D1FC5020FEF74F
:101D5000CEFC0020FEF7CBFC0C20FEF7C8FC0020D8
:101D6000FEF7C5FC1720FEF7C2FC0020FEF7BFFC03
:101D70009520FEF7BCFC0020FEF7B9FCF320FEF72F
:101D8000B6FC0020FEF7B3FCE620FEF7B0FC002016
:101D9000FEF7ADFCC520FEF7A1FC3220FEF7A7FC44
:101DA0000020FEF7A4FC4420FEF7A1FC0020FEF773
:101DB0009EFC6520FEF79BFC0020FEF798FC762039
:101DC000FEF795FC0020FEF792FC8820FEF78FFCC2
:101DD0000020FEF78CFCC620FEF780FC2020FEF7DA
:101DE00086FC0020FEF783FC1720FEF780FC002015
:101DF000FEF77DFC0120FEF77AFC0020FEF777FC61
:101E0000C720FEF76BFC0020FEF771FC0020FEF7F8
:101E10006EFC0020FEF76BFC0020FEF768FCC8207B
:101E2000FEF75CFC0020FEF762FC0020FEF75FFC82
:101E30000020FEF75CFC0020FEF759FCC920FEF7ED
:101E40004DFC0020FEF753FC0020FEF750FC002064
:101E5000FEF74DFC0020FEF74AFC0020FEF747FC91
:101E60000020FEF744FC0020FEF741FC0020FEF7B6
:101E70003EFC0020FEF73BFC0020FEF738FC002073
:101E8000FEF735FC0020FEF732FC0020FEF72FFCA9
:101E90000020FEF72CFC0020FEF729FC0020FEF7B6
:101EA00026FCE020FEF71AFC1620FEF720FC00209E
:101EB000FEF71DFC1C20FEF71AFC0020FEF717FCA5
:101EC0002120FEF714FC0020FEF711FC3620FEF75F
:101ED0000EFC0020FEF70BFC4620FEF708FC00205D
:101EE000FEF705FC5220FEF702FC0020FEF7FFFB88
:101EF0006420FEF7FCFB0020FEF7F9FB7A20FEF7DA
:101F0000F6FB0020FEF7F3FB8B20FEF7F0FB002032
:101F1000FEF7EDFB9920FEF7EAFB0020FEF7E7FB5A
:101F2000A820FEF7E4FB0020FEF7E1FBB920FEF756
:101F3000DEFB0020FEF7DBFBC420FEF7D8FB002011
:101F4000FEF7D5FBCA20FEF7D2FB0020FEF7CFFB41
:101F5000D220FEF7CCFB0020FEF7C9FBD920FEF70C
:101F6000C6FB0020FEF7C3FBE020FEF7C0FB00200D
:101F7000FEF7BDFBF320FEF7BAFB0020FEF7B7FB30
:101F8000E120FEF7ABFB1620FEF7B1FB0020FEF7C9
:101F9000AEFB1C20FEF7ABFB0020FEF7A8FB2220C7
:101FA000FEF7A5FB0020FEF7A2FB3620FEF79FFB05
:101FB0000020FEF79CFB4520FEF799FB0020FEF772
:101FC00096FB5220FEF793FB0020FEF790FB642067
:101FD000FEF78DFB0020FEF78AFB7A20FEF787FBD9
:101FE0000020FEF784FB8B20FEF781FB0020FEF72C
:101FF0007EFB9920FEF77BFB0020FEF778FBA820F4
:10200000FEF775FB0020FEF772FBB920FEF76FFBB1
:102010000020FEF76CFBC420FEF769FB0020FEF7F2
:1020200066FBCA20FEF763FB0020FEF760FBD220B0
:10203000FEF75DFB0020FEF75AFBD820FEF757FBAA
:102040000020FEF754FBE020FEF751FB0020FEF7D6
:102050004EFBF320FEF74BFB0020FEF748FBE2208F
:10206000FEF73CFB0520FEF742FB0020FEF73FFB9E
:102070000B20FEF73CFB0020FEF739FB1B20FEF790
:1020800036FB0020FEF733FB3420FEF730FB002048
:10209000FEF72DFB4420FEF72AFB0020FEF727FB6E
:1020A0004F20FEF724FB0020FEF721FB6120FEF706
:1020B0001EFB0020FEF71BFB7920FEF718FB00201B
:1020C000FEF715FB8820FEF712FB0020FEF70FFB42
:1020D0009720FEF70CFB0020FEF709FBA620FEF779
:1020E00006FB0020FEF703FBB720FEF700FB0020F5
:1020F000FEF7FDFAC220FEF7FAFA0020FEF7F7FA23
:10210000C720FEF7F4FA0020FEF7F1FAD120FEF71F
:10211000EEFA0020FEF7EBFAD620FEF7E8FA0020F0
:10212000FEF7E5FADD20FEF7E2FA0020FEF7DFFA1F
:10213000F320FEF7DCFA0020FEF7D9FAE320FEF7E1
:10214000CDFA0520FEF7D3FA0020FEF7D0FA0A20D8
:10215000FEF7CDFA0020FEF7CAFA1C20FEF7C7FAF8
:102160000020FEF7C4FA3320FEF7C1FA0020FEF784
:10217000BEFA4420FEF7BBFA0020FEF7B8FA502062
:10218000FEF7B5FA0020FEF7B2FA6220FEF7AFFACA
:102190000020FEF7ACFA7820FEF7A9FA0020FEF73F
:1021A000A6FA8820FEF7A3FA0020FEF7A0FA9720EF
:1021B000FEF79DFA0020FEF79AFAA620FEF797FA9E
:1021C0000020FEF794FAB720FEF791FA0020FEF700
:1021D0008EFAC220FEF78BFA0020FEF788FAC7209D
:1021E000FEF785FA0020FEF782FAD120FEF77FFA8B
:1021F0000020FEF77CFAD520FEF779FA0020FEF7E2
:1022000076FADD20FEF773FA0020FEF770FAF3206D
:10221000FEF76DFA0020FEF76AFAE420FEF75EFA98
:102220000120FEF764FA0020FEF761FA0120FEF7B4
:102230005EFA0020FEF75BFA0220FEF758FA002053
:10224000FEF755FA2A20FEF752FA0020FEF74FFA61
:102250003C20FEF74CFA0020FEF749FA4B20FEF72F
:1022600046FA0020FEF743FA5D20FEF740FA002010
:10227000FEF73DFA7420FEF73AFA0020FEF737FA2F
:102280008420FEF734FA0020FEF731FA9320FEF79F
:102290002EFA0020FEF72BFAA220FEF728FA0020E3
:1022A000FEF725FAB320FEF722FA0020FEF71FFA08
:1022B000BE20FEF71CFA0020FEF719FAC420FEF734
:1022C00016FA0020FEF713FACD20FEF710FA0020D0
:1022D000FEF70DFAD320FEF70AFA0020FEF707FA00
:1022E000DD20FEF704FA0020FEF701FAF320FEF7E6
:1022F000FEF90020FEF7FBF9E520FEF7EFF90020DC
:10230000FEF7F5F90020FEF7F2F90020FEF7EFF9ED
:102310000020FEF7ECF90220FEF7E9F90020FEF7B5
:10232000E6F92920FEF7E3F90020FEF7E0F93C206A
:10233000FEF7DDF90020FEF7DAF94B20FEF7D7F9BA
:102340000020FEF7D4F95D20FEF7D1F90020FEF75A
:10235000CEF97420FEF7CBF90020FEF7C8F98420EF
:10236000FEF7C5F90020FEF7C2F99320FEF7BFF98A
:102370000020FEF7BCF9A220FEF7B9F90020FEF715
:10238000B6F9B320FEF7B3F90020FEF7B0F9BE208E
:10239000FEF7ADF90020FEF7AAF9C420FEF7A7F971
:1023A0000020FEF7A4F9CD20FEF7A1F90020FEF7EA
:1023B0009EF9D320FEF79BF90020FEF798F9DC2068
:1023C000FEF795F90020FEF792F9F320FEF78FF95A
:1023D0000020FEF78CF9E620FEF780F91120FEF7C9
:1023E00086F90020FEF783F93420FEF780F90020FB
:1023F000FEF77DF95620FEF77AF90020FEF777F90F
:102400007620FEF774F90020FEF771F97720FEF7C9
:102410006EF90020FEF76BF96620FEF768F90020E0
:10242000FEF765F98820FEF762F90020FEF75FF9F4
:102430009920FEF75CF90020FEF759F9BB20FEF762
:1024400056F90020FEF753F99920FEF750F90020C5
:10245000FEF74DF96620FEF74AF90020FEF747F92E
:102460005520FEF744F90020FEF741F95520FEF70C
:102470003EF90020FEF73BF94520FEF738F9002031
:10248000FEF735F94320FEF732F90020FEF72FF969
:102490004420FEF72CF90020FEF729F9E720FEF78B
:1024A0001DF93220FEF723F90020FEF720F9552010
:1024B000FEF71DF90020FEF71AF97620FEF717F94E
:1024C0000020FEF714F96620FEF711F90020FEF750
:1024D0000EF96720FEF70BF90020FEF708F96720D8
:1024E000FEF705F90020FEF702F98720FEF7FFF856
:1024F0000020FEF7FCF89920FEF7F9F80020FEF71F
:10250000F6F8BB20FEF7F3F80020FEF7F0F899206C
:10251000FEF7EDF80020FEF7EAF87720FEF7E7F87F
:102520000020FEF7E4F84420FEF7E1F80020FEF773
:10253000DEF85620FEF7DBF80020FEF7D8F823205F
:10254000FEF7D5F80020FEF7D2F83320FEF7CFF8DB
:102550000020FEF7CCF84520FEF7C9F80020FEF772
:10256000C6F8E820FEF7BAF80020FEF7C0F8002011
:10257000FEF7BDF89920FEF7BAF80020FEF7B7F88D
:102580008720FEF7B4F80020FEF7B1F88820FEF7A8
:10259000AEF80020FEF7ABF87720FEF7A8F8002091
:1025A000FEF7A5F86620FEF7A2F80020FEF79FF8D8
:1025B0008820FEF79CF80020FEF799F8AA20FEF785
:1025C00096F80020FEF793F8BB20FEF790F8002065
:1025D000FEF78DF89920FEF78AF80020FEF787F8BD
:1025E0006620FEF784F80020FEF781F85520FEF7FC
:1025F0007EF80020FEF77BF85520FEF778F80020E3
:10260000FEF775F84420FEF772F80020FEF76FF829
:102610004420FEF76CF80020FEF769F85520FEF71D
:1026200066F80020FEF763F8E920FEF757F8AA20C5
:10263000FEF75DF80020FEF75AF80020FEF757F885
:102640000020FEF754F80020FEF748F8AA20FEF715
:102650004EF8CF20FEF742F80020FEF748F80020A1
:10266000FEF745F80020FEF742F80020FEF73FF89D
:102670000020FEF73CF80020FEF739F80020FEF7B6
:1026800036F80020FEF733F80020FEF730F800207F
:10269000FEF72DF80020FEF72AF80020FEF727F8B5
:1026A0000020FEF724F80020FEF721F80020FEF7B6
:1026B0001EF80020FEF71BF80020FEF718F8F020A7
:1026C000FEF70CF80020FEF712F85020FEF70FF886
:1026D0000020FEF70CF80020FEF709F80020FEF7B6
:1026E00006F8F320FDF7FAFF0020FEF700F8F920C6
:1026F000FDF7F4FF0620FDF7FAFF1020FDF7F7FFC6
:102700002920FDF7F4FF0020FDF7F1FF3A20FDF747
:10271000E5FF5520FDF7EBFF1120FDF7DFFF6420FB
:1027200004F020F92920FDF7D9FF3520FDF7D6FF69
:102730000020FDF7DCFF5120FDF7D0FFFF20FDF763
:10274000D6FF5320FDF7CAFF2C20FDF7D0FF552000
:10275000FDF7C4FF8220FDF7CAFF2C20FDF7BEFF66
:1027600001F048B8FE48808845F2105188427DD17A
:1027700055214FF47040FDF7CCFFAA214FF2010024
:10278000FDF7C7FF52214FF20200FDF7C2FF0821FB
:102790004FF20300FDF7BDFF01214FF20400FDF7EA
:1027A000B8FF0D214FF43040FDF7B3FF0D214BF280
:1027B0000100FDF7AEFF0D214BF20200FDF7A9FF6E
:1027C00034214FF43640FDF7A4FF34214BF2016071
:1027D000FDF79FFF34214BF20260FDF79AFF0D21B8
:1027E0004FF43140FDF795FF0D214BF20110FDF73D
:1027F00090FF0D214BF20210FDF78BFF34214FF4B7
:102800003740FDF786FF34214BF20170FDF781FF61
:1028100034214BF20270FDF77CFF00214FF432406F
:10282000FDF777FF00214BF20120FDF772FF002139
:102830004BF20220FDF76DFF24214FF43840FDF7E5
:1028400068FF24214BF60100FDF763FF24214BF6BE
:102850000200FDF75EFF01214FF43F40FDF759FFF5
:102860000F214FF43340FDF754FF00E0FDE30F214B
:102870004BF20130FDF74DFF0F214BF20230FDF717
:1028800048FF34214FF43940FDF743FF34214BF624
:102890000110FDF73EFF34214BF60210FDF739FF22
:1028A00008214FF43540FDF734FF08214BF2015069
:1028B000FDF72FFF08214BF20250FDF72AFF0321FD
:1028C0004FF44240FDF725FF24214FF43A40FDF735
:1028D00020FF24214BF60120FDF71BFF24214BF69E
:1028E0000220FDF716FF00214FF43C40FDF711FFD9
:1028F00078214BF60140FDF70CFF00214BF602401A
:10290000FDF707FF00214FF43D40FDF702FF78215E
:102910004BF60150FDF7FDFE00214BF60250FDF78E
:10292000F8FE00214FF43E40FDF7F3FE64214BF624
:102930000160FDF7EEFE00214FF45140FDF7E9FE86
:1029400033214DF20110FDF7E4FE00214DF202109B
:10295000FDF7DFFE34214DF20310FDF7DAFE002112
:102960004DF20410FDF7D5FE3A214DF20510FDF7AA
:10297000D0FE00214DF20610FDF7CBFE4A214DF2AC
:102980000710FDF7C6FE00214DF20810FDF7C1FE4D
:102990005C214DF20910FDF7BCFE00214DF20A103A
:1029A000FDF7B7FE81214DF20B10FDF7B2FE0021BD
:1029B0004DF20C10FDF7ADFEA6214DF20D10FDF706
:1029C000A8FE00214DF20E10FDF7A3FEE5214DF209
:1029D0000F10FDF79EFE01214DF21010FDF799FE3C
:1029E00013214DF21110FDF794FE01214DF212104A
:1029F000FDF78FFE54214DF21310FDF78AFE0121E1
:102A00004DF21410FDF785FE82214DF21510FDF7F1
:102A100080FE01214DF21610FDF77BFECA214DF21A
:102A20001710FDF776FE02214DF21810FDF771FE2A
:102A300000214DF21910FDF76CFE02214DF21A1023
:102A4000FDF767FE01214DF21B10FDF762FE02212A
:102A50004DF21C10FDF75DFE34214DF21D10FDF707
:102A600058FE02214DF21E10FDF753FE67214DF274
:102A70001F10FDF74EFE02214DF22010FDF749FE1A
:102A800084214DF22110FDF744FE02214DF2221067
:102A9000FDF73FFEA4214DF22310FDF73AFE02217F
:102AA0004DF22410FDF735FEB7214DF22510FDF74C
:102AB00030FE02214DF22610FDF72BFECF214DF204
:102AC0002710FDF726FE02214DF22810FDF721FE0A
:102AD000DE214DF22910FDF71CFE02214DF22A10D5
:102AE000FDF717FEF2214DF22B10FDF712FE022129
:102AF0004DF22C10FDF70DFEFE214DF22D10FDF7CD
:102B000008FE03214DF22E10FDF703FE10214DF2B9
:102B10002F10FDF7FEFD03214DF23010FDF7F9FDFA
:102B200033214DF23110FDF7F4FD03214DF2321047
:102B3000FDF7EFFD6D214DF23310FDF7EAFD0021A9
:102B40004FF45240FDF7E5FD33214DF20120FDF732
:102B5000E0FD00214DF20220FDF7DBFD342101E014
:102B6000780200204DF20320FDF7D3FD00214DF245
:102B70000420FDF7CEFD3A214DF20520FDF7C9FDF9
:102B800000214DF20620FDF7C4FD4A214DF2072039
:102B9000FDF7BFFD00214DF20820FDF7BAFD5C21D5
:102BA0004DF20920FDF7B5FD00214DF20A20FDF799
:102BB000B0FD81214DF20B20FDF7ABFD00214DF260
:102BC0000C20FDF7A6FDA6214DF20D20FDF7A1FD7D
:102BD00000214DF20E20FDF79CFDE5214DF20F2066
:102BE000FDF797FD01214DF21020FDF792FD132115
:102BF0004DF21120FDF78DFD01214DF21220FDF760
:102C000088FD54214DF21320FDF783FD01214DF283
:102C10001420FDF77EFD82214DF21520FDF779FD90
:102C200001214DF21620FDF774FDCA214DF2172047
:102C3000FDF76FFD02214DF21820FDF76AFD00211E
:102C40004DF21920FDF765FD02214DF21A20FDF726
:102C500060FD01214DF21B20FDF75BFD02214DF2CD
:102C60001C20FDF756FD34214DF21D20FDF751FDCE
:102C700002214DF21E20FDF74CFD67214DF21F2071
:102C8000FDF747FD02214DF22020FDF742FD842192
:102C90004DF22120FDF73DFD02214DF22220FDF7EE
:102CA00038FDA4214DF22320FDF733FD02214DF222
:102CB0002420FDF72EFDB7214DF22520FDF729FD3B
:102CC00002214DF22620FDF724FDCF214DF22720D1
:102CD000FDF71FFD02214DF22820FDF71AFDDE2130
:102CE0004DF22920FDF715FD02214DF22A20FDF7B6
:102CF00010FDF2214DF22B20FDF70BFD02214DF2CC
:102D00002C20FDF706FDFE214DF22D20FDF701FDE3
:102D100003214DF22E20FDF7FCFC10214DF22F2057
:102D2000FDF7F7FC03214DF23020FDF7F2FC3321D3
:102D30004DF23120FDF7EDFC03214DF23220FDF77D
:102D4000E8FC6D214DF23320FDF7E3FC00214FF448
:102D50005340FDF7DEFC33214DF20130FDF7D9FC85
:102D600000214DF20230FDF7D4FC34214DF2033046
:102D7000FDF7CFFC00214DF20430FDF7CAFC3A21EB
:102D80004DF20530FDF7C5FC00214DF20630FDF790
:102D9000C0FC4A214DF20730FDF7BBFC00214DF28B
:102DA0000830FDF7B6FC5C214DF20930FDF7B1FCAF
:102DB00000214DF20A30FDF7ACFC81214DF20B30C1
:102DC000FDF7A7FC00214DF20C30FDF7A2FCA62177
:102DD0004DF20D30FDF79DFC00214DF20E30FDF758
:102DE00098FCE5214DF20F30FDF793FC01214DF2E7
:102DF0001030FDF78EFC13214DF21130FDF789FCE8
:102E000001214DF21230FDF784FC54214DF21330B4
:102E1000FDF77FFC01214DF21430FDF77AFC822191
:102E20004DF21530FDF775FC01214DF21630FDF71E
:102E300070FCCA214DF21730FDF76BFC02214DF2F8
:102E40001830FDF766FC00214DF21930FDF761FCEA
:102E500002214DF21A30FDF75CFC01214DF21B30CE
:102E6000FDF757FC02214DF21C30FDF752FC3421D6
:102E70004DF21D30FDF74DFC02214DF21E30FDF7E5
:102E800048FC67214DF21F30FDF743FC02214DF253
:102E90002030FDF73EFC84214DF22130FDF739FC56
:102EA00002214DF22230FDF734FCA4214DF22330F3
:102EB000FDF72FFC02214DF22430FDF72AFCB7214B
:102EC0004DF22530FDF725FC02214DF22630FDF7AD
:102ED00020FCCF214DF22730FDF71BFC02214DF2E3
:102EE0002830FDF716FCDE214DF22930FDF711FCEC
:102EF00002214DF22A30FDF70CFCF2214DF22B306D
:102F0000FDF707FC02214DF22C30FDF702FCFE21FB
:102F10004DF22D30FDF7FDFB03214DF22E30FDF774
:102F2000F8FB10214DF22F30FDF7F3FB03214DF29A
:102F30003030FDF7EEFB33214DF23130FDF7E9FB88
:102F400003214DF23230FDF7E4FB6D214DF23330B9
:102F5000FDF7DFFB00214FF45440FDF7DAFB33218E
:102F60004DF20140FDF7D5FB00214DF20240FDF787
:102F7000D0FB34214DF20340FDF7CBFB00214DF295
:102F80000440FDF7C6FB3A214DF20540FDF7C1FBB9
:102F900000214DF20640FDF7BCFB4A214DF20740EF
:102FA000FDF7B7FB00214DF20840FDF7B2FB5C21B5
:102FB0004DF20940FDF7ADFB00214DF20A40FDF74F
:102FC000A8FB81214DF20B40FDF7A3FB00214DF240
:102FD0000C40FDF79EFBA6214DF20D40FDF799FB3D
:102FE00000214DF20E40FDF794FBE5214DF20F401C
:102FF000FDF78FFB01214DF21040FDF78AFB1321F5
:103000004DF21140FDF785FB01214DF21240FDF715
:1030100080FB54214DF21340FDF77BFB01214DF263
:103020001440FDF776FB82214DF21540FDF771FB50
:1030300001214DF21640FDF76CFBCA214DF21740FD
:10304000FDF767FB02214DF21840FDF762FB0021FE
:103050004DF21940FDF75DFB02214DF21A40FDF7DC
:1030600058FB01214DF21B4000E005E3FDF751FB49
:1030700002214DF21C40FDF74CFB34214DF21D4066
:10308000FDF747FB02214DF21E40FDF742FB672191
:103090004DF21F40FDF73DFB02214DF22040FDF7B0
:1030A00038FB84214DF22140FDF733FB02214DF224
:1030B0002240FDF72EFBA4214DF22340FDF729FB12
:1030C00002214DF22440FDF724FBB7214DF22540AB
:1030D000FDF71FFB02214DF22640FDF71AFBCF2121
:1030E0004DF22740FDF715FB02214DF22840FDF778
:1030F00010FBDE214DF22940FDF70BFB02214DF2C2
:103100002A40FDF706FBF2214DF22B40FDF701FBB3
:1031100002214DF22C40FDF7FCFAFE214DF22D402C
:10312000FDF7F7FA03214DF22E40FDF7F2FA1021D8
:103130004DF22F40FDF7EDFA03214DF23040FDF73F
:10314000E8FA33214DF23140FDF7E3FA03214DF265
:103150003240FDF7DEFA6D214DF23340FDF7D9FA2A
:1031600000214FF45540FDF7D4FA33214DF20150C0
:10317000FDF7CFFA00214DF20250FDF7CAFA3421D3
:103180004DF20350FDF7C5FA00214DF20450FDF752
:10319000C0FA3A214DF20550FDF7BBFA00214DF27D
:1031A0000650FDF7B6FA4A214DF20750FDF7B1FA85
:1031B00000214DF20850FDF7ACFA5C214DF20950A8
:1031C000FDF7A7FA00214DF20A50FDF7A2FA81217E
:1031D0004DF20B50FDF79DFA00214DF20C50FDF71A
:1031E00098FAA6214DF20D50FDF793FA00214DF209
:1031F0000E50FDF78EFAE5214DF20F50FDF789FADA
:1032000001214DF21050FDF784FA13214DF21150B7
:10321000FDF77FFA01214DF21250FDF77AFA5421A1
:103220004DF21350FDF775FA01214DF21450FDF7E0
:1032300070FA82214DF21550FDF76BFA01214DF223
:103240001650FDF766FACA214DF21750FDF761FAE4
:1032500002214DF21850FDF75CFA00214DF2195091
:10326000FDF757FA02214DF21A50FDF752FA0121EB
:103270004DF21B50FDF74DFA02214DF21C50FDF7A7
:1032800048FA34214DF21D50FDF743FA02214DF268
:103290001E50FDF73EFA67214DF21F50FDF739FA37
:1032A00002214DF22050FDF734FA84214DF22150D5
:1032B000FDF72FFA02214DF22250FDF72AFAA42140
:1032C0004DF22350FDF725FA02214DF22450FDF76F
:1032D00020FAB7214DF22550FDF71BFA02214DF2DD
:1032E0002650FDF716FACF214DF22750FDF711FABF
:1032F00002214DF22850FDF70CFADE214DF2295043
:10330000FDF707FA02214DF22A50FDF702FAF221E9
:103310004DF22B50FDF7FDF902214DF22C50FDF737
:10332000F8F9FE214DF22D50FDF7F3F903214DF28E
:103330002E50FDF7EEF910214DF22F50FDF7E9F96F
:1033400003214DF23050FDF7E4F933214DF23150B5
:10335000FDF7DFF903214DF23250FDF7DAF96D2167
:103360004DF23350FDF7D5F900214FF45640FDF7EB
:10337000D0F933214DF20160FDF7CBF900214DF278
:103380000260FDF7C6F934214DF20360FDF7C1F983
:1033900000214DF20460FDF7BCF93A214DF20560C1
:1033A000FDF7B7F900214DF20660FDF7B2F94A21A9
:1033B0004DF20760FDF7ADF900214DF20860FDF711
:1033C000A8F95C214DF20960FDF7A3F900214DF247
:1033D0000A60FDF79EF981214DF20B60FDF799F926
:1033E00000214DF20C60FDF794F9A6214DF20D601D
:1033F000FDF78FF900214DF20E60FDF78AF9E52106
:103400004DF20F60FDF785F901214DF21060FDF7D7
:1034100080F913214DF21160FDF77BF901214DF286
:103420001260FDF776F954214DF21360FDF771F942
:1034300001214DF21460FDF76CF982214DF2156007
:10344000FDF767F901214DF21660FDF762F9CA2117
:103450004DF21760FDF75DF902214DF21860FDF79E
:1034600058F900214DF21960FDF753F902214DF290
:103470001A60FDF74EF901214DF21B60FDF749F985
:1034800002214DF21C60FDF744F934214DF21D601C
:10349000FDF73FF902214DF21E60FDF73AF9672171
:1034A0004DF21F60FDF735F902214DF22060FDF766
:1034B00030F984214DF22160FDF72BF902214DF204
:1034C0002260FDF726F9A4214DF22360FDF721F9D2
:1034D00002214DF22460FDF71CF9B7214DF2256061
:1034E000FDF717F902214DF22660FDF712F9CF2101
:1034F0004DF22760FDF70DF902214DF22860FDF72E
:1035000008F9DE214DF22960FDF703F902214DF2A1
:103510002A60FDF7FEF8F2214DF22B60FDF7F9F875
:1035200002214DF22C60FDF7F4F8FE214DF22D60E2
:10353000FDF7EFF803214DF22E60FDF7EAF81021B8
:103540004DF22F60FDF7E5F803214DF23060FDF7F5
:10355000E0F833214DF23160FDF7DBF803214DF245
:103560003260FDF7D6F86D214DF23360FDF7D1F8EA
:1035700055214FF47040FDF7CCF8AA214FF201001D
:10358000FDF7C7F852214FF20200FDF7C2F80821FB
:103590004FF20300FDF7BDF800214FF20400FDF7E4
:1035A000B8F8CC214FF43140FDF7B3F800214BF2CD
:1035B0000110FDF7AEF805214FF43640FDF7A9F8EC
:1035C00070214FF43740FDF7A4F870214BF20170E1
:1035D000FDF79FF801214FF43840FDF79AF80321D9
:1035E0004BF60100FDF795F803214BF60200FDF7BD
:1035F00090F803214BF60300FDF78BF802214FF4FE
:103600003C40FDF786F800214BF60140FDF781F8BC
:1036100000214BF60240FDF77CF8D0214FF44940E1
:10362000FDF777F802214CF60110FDF772F85021F2
:103630004CF60210FDF76DF850214CF60310FDF723
:1036400068F850214CF60410FDF763F800214FF4A0
:103650005450FDF75EF855214FF46850FDF759F8C6
:103660004FF48850FDF73AF8782003F033F94FF41F
:103670002450FDF733F8BDE0FE48808841F6631121
:103680008842F8D1E220FDF729F81D20FDF72FF838
:103690000220FDF72CF80420FDF729F8642003F040
:1036A00019F9E020FDF71AF80120FDF720F80A20AB
:1036B00003F058F9E020FDF711F80320FDF717F8A3
:1036C0000C2003F04FF90120FDF708F80A2003F061
:1036D00049F9E620FDF702F82F20FDF708F8FF2052
:1036E000FDF705F8FF20FDF702F8B020FCF7F6FF24
:1036F0002020FCF7FCFF0020FCF7F9FF0320FCF77B
:10370000F6FF40F21F30FCF7F2FF0120FCF7EFFF5D
:1037100040F2DF10FCF7EBFF0020FCF7E8FFB420DD
:10372000FCF7DCFF0420FCF7E2FF40F21F40FCF74F
:10373000DEFF0020FCF7DBFF2E20FCF7D8FF002087
:10374000FCF7D5FF0020FCF7D2FF0020FCF7CFFFED
:103750000020FCF7CCFFB620FCF7C0FF0220FCF7EE
:10376000C6FF4FF40370FCF7C2FF0020FCF7BFFF59
:103770001720FCF7BCFF1520FCF7B9FF0020FCF771
:10378000B6FF0020FCF7B3FFF020FCF7A7FF0320F3
:10379000FCF7ADFF2920FCF7A1FFD020FCF79EFF2E
:1037A0000020FCF7A4FFBE20FCF798FF0520FCF7E3
:1037B0009EFFFE20FCF79BFF0120FCF798FF0020F6
:1037C000FCF795FF0020FCF792FF0020FCF78FFF2D
:1037D000B820FCF783FF0320FCF789FF0120FCF7EA
:1037E00086FFBA20FCF77AFF0120FCF780FF6420F7
:1037F000FDF74FFA0020FDF778FA01209E49086096
:103800004FF6FF70FDF7C6FB21B000BD2DE9F04F6C
:1038100005460E4617469846DDF824A04FF0000BEB
:10382000781B401C1FFA80FB344614E021462846D2
:10383000FCF79EFFFCF77FFF4FF0000907E04FF019
:10384000D840A0F880A009F101001FFA80F9D945FD
:10385000F5DB601C84B24445E8DDBDE8F08F2DE95E
:10386000F84F07460D4690469946DDF828B0A8EB7C
:103870000700401C1FFA80FAA9EB0500401C80B22B
:103880000090002414E0281981B23846FCF770FF3C
:10389000FCF751FF002607E004FB0A603BF810002C
:1038A00076490880701C86B25645F5DB601C84B2F0
:1038B00000988442E7DBBDE8F88F2DE9FF4F84B024
:1038C00081468A460020039002900698A0EB0905E5
:1038D0000798A0EB0A06CDF80490CDF800A0002DC3
:1038E00001DD012705E00DB9002702E04FF0FF37A9
:1038F0006D42002E02DD4FF0010806E016B94FF0D0
:10390000000802E04FF0FF387642B54201DD2C4658
:1039100000E034464FF0000B21E0009A91B2019A8A
:1039200090B2FDF731F9039828440390029830448F
:1039300002900398A04205DD0398001B03900198B4
:10394000384401900298A04205DD0298001B0290C5
:103950000098404400900BF101001FFA80FB601CAE
:103960008345DADD08B0BDE8F08FF0B504460D46BA
:1039700016461F462B46324629462046FFF79DFF36
:103980003B46224629462046FFF797FF3B463246F4
:1039900039462046FFF791FF3B46324629463046DE
:1039A000FFF78BFFF0BD2DE9F04306460F4690462A
:1039B000002445460320A0EB48093CE07A1B91B265
:1039C000321990B2FDF7E0F83A1B91B2721990B239
:1039D000FDF7DAF83A1991B2721990B2FDF7D4F8FE
:1039E0007A1991B2321990B2FDF7CEF87A1991B2E4
:1039F000321B90B2FDF7C8F83A1991B2721B90B21F
:103A0000FDF7C2F87A1B91B2321B90B2FDF7BCF8F9
:103A10003A1B91B2721B90B2FDF7B6F8641CB9F173
:103A2000000F03DAA000801D814404E0601B8000C9
:103A30000A3081446D1EAC42C0DDBDE8F0832DE943
:103A4000F84F80460E4617461C46B3462046E317FD
:103A500004EB5373DB1021464FEAE47C04EB5C7CFF
:103A60004FEAEC0CA4EBCC0CBCF1000F08D04FF0EB
:103A7000010C07E078020020BC8240428000006C0C
:103A80004FF0000C6344224604EBD27C4FEA6C0CEE
:103A900003FB0CF3DBB20093A7F12000C7B20025B3
:103AA00056E00C2C07D107EB47009F4901EB800043
:103AB00010F8059013E0102C05D19C4800EB07107E
:103AC00010F805900BE0182C07D107EBC7009849B8
:103AD00001EB800010F8059001E0BDE8F88F4FF091
:103AE000000A2FE009F0800030B192480288314688
:103AF0004046FDF757F807E00A9828B98E48028833
:103B000031464046FDF74EF84FEA49604FEA1069EA
:103B1000701C86B289484088B04200DCDDE7A6EB25
:103B20000B00A0420AD15E4608F101001FFA80F89E
:103B300082480088404500DCCFE706E00AF101003A
:103B400000F0FF0ABAF1080FCCDB00BF681CC5B259
:103B500000988542A5DB00BFBFE710B502460120F3
:103B600000E050430B1EA1F10104E1B2F9D110BDF8
:103B70002DE9FF4F81B0074691461E460E9D4FF03E
:103B8000000A002439E0301B401EC1B20A20FFF7B2
:103B9000E4FFB9FBF0F00A21B0FBF1F201FB1208DF
:103BA000BAF1000F16D1701EA04213DDB8F1000F5C
:103BB0000ED10020AB4605EBDB71491001FB04710F
:103BC000009088B22B4620220299FFF738FF12E0BE
:103BD0004FF0010A0020AB4605EBDB71491001FBF9
:103BE0000471009088B208F13001CAB22B460299E4
:103BF000FFF725FF00BF601CC4B2B442C3DB05B0B1
:103C0000BDE8F08F2DE9FF4F82B0064692461F4671
:103C1000DDE90F480020019000254DE0781B401E93
:103C2000C1B20A20FFF799FFBAFBF0F00A21B0FBFE
:103C3000F1F201FB1209019850BB781EA84227DD62
:103C4000B9F1000F22D108F0800078B108F001002E
:103C5000A34604EBDB71491001FB0561009088B2BB
:103C6000234630220399FFF7EAFE0EE008F0010038
:103C7000A34604EBDB71491001FB0561009088B29B
:103C8000234620220399FFF7DAFE13E0012001907A
:103C900008F00100A34604EBDB71491001FB05614C
:103CA000009088B209F13001CAB223460399FFF7A8
:103CB000C6FE00BF681CC5B2BD42AFDB06B0BDE8A2
:103CC000F08F2DE9F84704460D4690469946DDE908
:103CD000096704F0FF0A08EB04001FFA80F809EBFB
:103CE00005001FFA80F916E0444502DB5446A81986
:103CF00085B24D4500DB14E0002000903A78334651
:103D000029462046FFF79BFE304606EBD07104EBB8
:103D100061018CB27F1C38787E2802DC387820283C
:103D2000E2DA00BFBDE8F887C6FD00083A020108E4
:103D30002A08010814000020160000207802002044
:103D40001CB50121112003F069FD1C20009000200A
:103D50008DF8040003208DF8050001208DF8070080
:103D60006946354802F0D8FF0120009002208DF806
:103D700007006946314802F0CFFF1CBD10B504466C
:103D800014B101202E4908702D480078002837D042
:103D90001021294803F022F878B10821264803F0C1
:103DA0001DF850B10421244803F018F828B101216E
:103DB000224803F013F8012822D10A2002F0D2FD94
:103DC00000201F49087010211B4803F007F808B9AC
:103DD000012010BD0821184803F000F808B902209E
:103DE000F7E70421144802F0F9FF08B90320F0E7CF
:103DF0000121124802F0F2FF01281BD10420E8E75C
:103E000010210D4802F0EAFF012813D108210A48C9
:103E100002F0E4FF01280DD10421074802F0DEFF83
:103E2000012807D10121054802F0D8FF10B901206F
:103E3000034908700020CCE7001002400000024057
:103E40001800002010B5044600BF0221414805F0CB
:103E5000C5F80028F9D021463E4805F076F800BFA5
:103E600001213C4805F0BAF80028F9D0394805F09E
:103E700069F8C0B210BD00B587B00121084603F053
:103E8000CDFC0121080303F023FD3820059002201A
:103E90008DF8180000208DF81A0003208DF8190005
:103EA00001208DF81B0005A92B4802F035FF0522E3
:103EB0000321294802F0BBFF05220421264802F015
:103EC000B6FF05221146244802F0B1FF0121080384
:103ED00003F053FD00214FF4805003F04EFD00200D
:103EE000ADF800004FF48270ADF802000020ADF88C
:103EF00004000220ADF806000120ADF808004002E1
:103F0000ADF80A003820ADF80C000020ADF80E0026
:103F10000720ADF8100069460E4804F09BFE012111
:103F20000C4804F091FFFF20FFF78CFF07B000BDA5
:103F300010B50446074800884FF6C7710840054988
:103F4000088008460088204308800121014804F0C9
:103F50007BFF10BD003001400004024010B500247A
:103F60000020D84908609020FFF76CFF0020FFF781
:103F700069FF0020FFF766FF0020FFF763FFFF20C7
:103F8000FFF760FF44EA0024FF20FFF75BFF0443D4
:103F90000120CD49C1F8B802204610BD1CB5012151
:103FA000022003F03BFC0121402003F037FC4FF4DA
:103FB0008040009001208DF8040000208DF806005C
:103FC00003208DF8050001208DF807006946BF48E1
:103FD00002F0A2FE802000906946BD4802F09CFEDF
:103FE0008021BB4802F014FF0120B6490860FFF7AA
:103FF00042FF0820FFF79CFFFFF7B0FFB54908809C
:104000001CBD10B500240020AE4908600520FFF754
:1040100019FFFF20FFF716FF04460120AA49C1F847
:10402000B802204610BD10B504460020A54908601E
:104030000120FFF707FF2046FFF704FF0120A249F8
:10404000C1F8B80210BD10B500209E4908600620D6
:10405000FFF7F8FE01209C49C1F8B80210BD10B569
:104060000020984908600420FFF7ECFE01209649E3
:10407000C1F8B80210BD2DE9F04106460C461746BE
:104080000020904908600320FFF7DCFEC4F30740DE
:10409000FFF7D8FEC4F30720FFF7D4FEE0B2FFF726
:1040A000D1FE002505E0FF20FFF7CCFE7055681C0F
:1040B00085B2BD42F7DB012082490860BDE8F0818E
:1040C00010B500BFFFF79DFF00F001000028F9D1F7
:1040D00010BD2DE9F04106460C461746FFF7B3FF29
:1040E0000020784908600220FFF7ACFEC4F30740C7
:1040F000FFF7A8FEC4F30720FFF7A4FEE0B2FFF726
:10410000A1FE002504E0705DFFF79CFE681C85B2EF
:10411000BD42F8DB01206B490860FFF7D1FFBDE825
:10412000F0812DE9F04107460E461446F0B2C0F585
:104130008075AC4200DC254612E02A4631463846FE
:10414000FFF7C7FFAC4200D10BE02F442E44601BA9
:1041500084B2B4F5807F02DD4FF4807500E025461F
:10416000EBE700BFBDE8F08110B5044621465AA038
:104170000BF006F92403FFF766FFFFF7A1FF00200D
:10418000504908602020FFF75DFEC4F30740FFF7A9
:1041900059FEC4F30720FFF755FEE0B2FFF752FEC9
:1041A00001204949C1F8B802FFF78AFF10BD2DE987
:1041B000F05F81460F461646DFF824B14FEA173804
:1041C000C7F30B0ACAF58054A64200DC344644E02B
:1041D0004FEA08314FF480525846FFF74CFF002554
:1041E00008E00AEB05001BF80000FF2800D003E000
:1041F000681C85B2A542F4DB00BFA54216DA404632
:10420000FFF7B2FF002507E019F8050005EB0A01EA
:104210000BF80100681C85B2A542F5DB4FEA0831B6
:104220004FF480525846FFF77CFF04E0224639469F
:104230004846FFF776FFA64200D10FE008F10108DB
:104240004FF0000AA1442744301B86B2B6F5805FC8
:1042500002DD4FF4805400E03446B9E700BFBDE80A
:10426000F09F10B5FFF7EFFEFFF72AFF002015497A
:104270000860C720FFF7E6FD01201349C1F8B80226
:10428000FFF71EFF10BD10B500200E490860B920D1
:10429000FFF7D8FD01200C49C1F8B802032002F055
:1042A00019FB10BD10B5002006490860AB20FFF7D0
:1042B000C9FD01200449C1F8B802032002F00AFB3D
:1042C00010BD0000B882404200804042000402401D
:1042D000001802401A00002066653A25780D0A0091
:1042E000860200200020FE490860091D0860091DA3
:1042F0000860091D0860FA4924310860091D08603A
:10430000091D0860F748F649383108600020091D8A
:104310000860704701460020012900D011B9F24B16
:10432000197000E0262070470146ED4A121D106802
:1043300020F0FF0008431060704770B5044606E0A7
:10434000E7483430056805F0450000B100E0F7E7C4
:1043500000BF042004F03AFF20B1042004F041FF24
:10436000032070BD012004F031FF20B1012004F0D2
:1043700038FF0120F5E7DA4810300068A04201D08C
:104380001020EEE740F2FF5004F02BFFD448143029
:10439000006808210840C0B2E3E72DE9FC41074668
:1043A0000D46002600240020009001900820CF49EF
:1043B000086010204860402088600020C8604FF4EA
:1043C00080600861084604F06EFE1020FFF7B5FF1C
:1043D000044614B12046BDE8FC81C54800880004AD
:1043E000C249086037204860402088600020C860CB
:1043F0004FF480600861084604F055FE3720FFF74F
:104400009CFF04460CB12046E5E74FF0FF30B94968
:10441000086008204860302088600220C8600020C2
:10442000086101204861084604F069FE0020AF4998
:10443000086033204860402088600020C8604FF446
:1044400080600861084604F02EFE3320FFF775FFF8
:1044500004460CB12046BEE70DE04FF4001004F016
:10446000B5FE40B19E48803000684DF82600761CAD
:10447000022E00D307E09A483430006840F22A61E7
:1044800008400028E9D000BF082004F09FFE20B1BA
:10449000082004F0A6FE04209DE7022004F096FE0A
:1044A00020B1022004F09DFE022094E7202004F0B9
:1044B0008DFE20B1202004F094FE06208BE74FF4FF
:1044C000007004F083FE28B14FF4007004F089FE00
:1044D000072080E740F2FF5004F083FE00980006BA
:1044E000009901F47F4140EA0120009901F47F0125
:1044F00040EA1120009940EA1160686001980006C6
:10450000019901F47F4140EA0120019901F47F0102
:1045100040EA1120019940EA1160286020465AE7DC
:104520007CB50546002400200090019000260DB1C6
:10453000022600E000266A481430006800F000708F
:1045400008B10E207CBD6A49098888B26946FFF728
:1045500024FF04460CB12046F4E7019800F48020C3
:1045600060B36348008800046049086037204860F1
:10457000402088600020C8604FF4806008610846D1
:1045800004F091FD3720FFF7D8FE04460CB1204619
:10459000D8E75648066006205449486040208860A5
:1045A0000020C8604FF480600861084604F07BFD7D
:1045B0000620FFF7C2FE04462046C3E72520C1E7D8
:1045C00070B5044600254C480078032802D1272501
:1045D000284670BD4848007838B14748007801281F
:1045E00003D045480078022819D1B4F5805F02D184
:1045F00027252846EDE7E0B2FFF792FF054675B99B
:104600003748001D006820F4C0503549091D086076
:10461000084600682043086008460068086028468D
:10462000D7E710B504463148046007202F49486099
:10463000402088600020C8604FF480600861084610
:1046400004F031FD0720FFF778FE10BDF0B50146FC
:1046500000200022284B1B7881F85630244B1B8801
:10466000A1F85430254B1B681A0E93090B70C2F346
:1046700083034B7002F003038B70204B1B68C3F362
:104680000742CA701D4B1B88C3F307220A711B4BDC
:104690001A784A715B681A0E1301CB80174B5B685E
:1046A000C3F30742CB8843EA1213CB8002F00F0317
:1046B0000B72124B9B88C3F30722D3094B72C2F3D0
:1046C00080138B72C2F34013CB72C2F300130B73CF
:1046D00000234B73084B1B78C3B1074B1B780FE0CB
:1046E000002C0140FF07C00024000020A012002081
:1046F00020000020B41200201C000020CC1200205A
:10470000012B03D0FE4B1B78032B4FD193071B0DBE
:104710000B61FC4B1A790B6943EA82030B61F94B7D
:104720009B681A0E0B6943EA92130B61C2F3C20332
:104730000B7502F007034B75F24B9B68C3F30742FE
:1047400053098B75C2F38203CB7593075B0F0B760E
:10475000EC4B1B89C3F307220B7E43EAD2130B7683
:104760000B695B1C0024C1E912340B7E9B1C0126E3
:1047700006FA03F3DE17D1E91245A4FB037C05FB1F
:1047800003C304FB0633C1E912730C7A0123A3406F
:104790000B650024D1E912560B6DA5FB037C06FBCB
:1047A00003C305FB0433C1E912732CE0D44B1B781F
:1047B000022B28D1D34B1A7993069B0A0B61D14B5C
:1047C0009B681A0E0B6943EA02230B61CD4B9B6871
:1047D000C3F307420B6913430B61CA4B1B89C3F335
:1047E00007220B695B1C4FF40074A3FB04356600C1
:1047F0000027A3FB064C05FB06C503FB0753C1E9D5
:10480000124373100B65C2F3801301F8193F93062E
:104810005B0E4B70BB4B1A7A4B7843EAD2134B704A
:1048200002F07F038B70B74BDB681A0ED309CB7095
:10483000C2F341130B71C2F382034B7193071B0F39
:104840008B71B04BDB68C3F307428B7943EA921359
:104850008B71C2F34013CB7100230B7202F0010382
:104860004B72A84B9B89C3F30722D3098B72C2F307
:104870008013CB72C2F340130B73C2F300134B735C
:10488000C2F381038B7302F00303CB739D4B1A7B3E
:1048900053080B7401234B749B4B1B681A0ECA748C
:1048A0001939994B1B68C3F307421402CC85964B08
:1048B0001B88C3F30722CB8D1343CB85924B1A7809
:1048C00014060C635B681A0E0B6B43EA02440C631C
:1048D0008D4B5B68C3F307420B6B43EA02240C6306
:1048E000894B9B88C3F307220B6B13430B63864BE7
:1048F0001A7934235A54844B9B681A0E35235A5420
:10490000814B9B68C3F3074214068C637E4B1B8963
:10491000C3F307228B6B43EA02448C637A4B1A7A07
:104920008B6B43EA02248C63774BDB681A0E8B6B2C
:1049300013438B63744BDB68C3F307423C235B5C1C
:1049400043EA12143C235C5413071C0DCC876E4BB6
:104950009B89C3F30722CB8F1343CB876A4B1A7B08
:10496000540840235C54012441235C54F0BD70B5CD
:1049700000264FF4803505E06448046804F04500E3
:1049800000B103E0281EA5F10105F5D100BF15B166
:1049900004F0040028B10326042004F022FC304671
:1049A00070BD012004F012FC18B10126012004F0B2
:1049B00018FC40F2FF5004F014FC3046F0E72DE9FB
:1049C000F04105460E464FF0000805E04F480768E5
:1049D00007F0450000B100E0F8E700BF042004F054
:1049E000F5FB28B1042004F0FCFB0320BDE8F081B6
:1049F000012004F0EBFB20B1012004F0F2FB0120C8
:104A0000F4E7424824380068A84201D01020EDE7BE
:104A100040F2FF5004F0E5FB3C482038046804F401
:104A2000604018B9200C30804046DFE704F40050A5
:104A300008B11320DAE704F4804008B11020D5E76C
:104A400004F4004008B10F20D0E74046CEE738B567
:104A500000240120009004F020FB10B925242046FA
:104A600038BD27480078042825D000202849086050
:104A700002204860C02088600020C8604FF4806039
:104A80000861084604F00FFBFFF771FF04460CB104
:104A90002046E5E71D48203800681B4908601B4890
:104AA0001C38006848601948183800688860174842
:104AB00014380068C8601248007858B1104800786F
:104AC000012807D00E480078062803D00C4800784B
:104AD000022821D100200E490860032048604020B0
:104AE00088600020C8604FF480600861084604F0C8
:104AF000DAFA69460320FFF762FF044664B109E071
:104B00001C000020CC120020DC120020342C0140BC
:104B1000A01200202046A3E7FE480078032816D103
:104B2000BDF800000004FC490860032048604020F4
:104B300088600020C8604FF480600861084604F077
:104B4000B2FAFFF714FF04460CB1204688E7F1489B
:104B5000007804282AD0BDF80000F0490860BDF8AC
:104B600000000004EC49086009204860C02088600B
:104B70000020C8604FF480600861084604F093FA92
:104B8000FFF7F5FE04460CB1204669E7E4480068EB
:104B9000E4490860E248001D00684860E0480830C9
:104BA00000688860DE480C300068C860002057E765
:104BB00010B506E0DA482030046804F0450000B182
:104BC00000E0F7E700BF042004F000FB20B1042060
:104BD00004F007FB032010BD40F2FF5004F001FB7E
:104BE0000020F8E770B500264FF4803506E0CC4889
:104BF0002030046804F0450000B103E0281EA5F150
:104C00000105F4D100BF15B104F0040028B103265A
:104C1000042004F0E6FA304670BD04F0400018B1FC
:104C20000026402004F0DDFA3046F5E770B5002597
:104C30004FF4803404E0802004F0C8FA00B103E0AF
:104C4000201EA4F10104F6D100BF0CB9032070BDF1
:104C500040F2FF5004F0C5FA2846F8E72DE9F04786
:104C60000027002400260025A046A1467620AE4954
:104C700008750020086048608860C86008610846C0
:104C800004F0E7F9032004F004FAA548103800689E
:104C900040F48070A2491039086000BF12E0002083
:104CA0009D49086048608860C8604FF48060086172
:104CB000084604F0F8F9FFF7B9FF044604B903E029
:104CC000781CC7B24A2FEADB00BF14B12046BDE80A
:104CD000F0874FF4D5709049086008204860402064
:104CE00088600020C8604FF480600861084604F0C6
:104CF000DAF9FFF777FF044624B9012085490870E7
:104D00004FF08049002084490860372048604020E7
:104D100088600020C8604FF480600861084604F095
:104D2000C2F93720FFF709FB0446002C4BD134E0D1
:104D300000207949086037204860402088600020C2
:104D4000C8604FF480600861084604F0ACF9372071
:104D5000FFF7F3FA04460CB12046B8E7734849EA76
:104D600000006D49086029204860402088600020CC
:104D7000C8604FF480600861084604F094F9FFF7BA
:104D800017FF04460CB12046A1E7654806680120DC
:104D900080EAD67080F001086D1CB8F1000F03D1D5
:104DA0004FF6FF708542C3D34FF6FF70854202D3A2
:104DB0001B2420468BE706F08040061E32D00220DE
:104DC000544908702EE01CE05948534908600120FE
:104DD0004860402088600020C8604FF4806008610F
:104DE000084604F060F9FFF7E3FE04460CB12046E4
:104DF0006DE74B480668012080EAD67080F0010814
:104E00006D1CB8F1000F03D14FF6FF708542DBD364
:104E10004FF6FF70854202D31B24204657E703203C
:104E20003C490870204652E73EB500240025012188
:104E3000404802F0F3FC0121C80202F049FD0121C3
:104E4000C80202F09AFD4FF4F850019002208DF84C
:104E500008008DF8090000208DF80A0001208DF867
:104E60000B0001A9344801F057FF0420019001A96B
:104E7000324801F051FF0C2208212F4801F0D7FFE2
:104E80000C2209212C4801F0D2FF0C220A212A48C9
:104E900001F0CDFF0C220B21274801F0C8FF0C22A6
:104EA0001146254801F0C3FF0C220221234801F0DE
:104EB000BEFF00214FF4006002F05FFDFFF712FA21
:104EC00031208DF8000000208DF801008DF80200DF
:104ED00001208DF80300684601F02DFEFFF7BEFEAD
:104EE000044614B9FFF7B3FD04461CB91448FFF794
:104EF000ADFB044634B91249B1F854100804FFF769
:104F000090FB044624B94FF40060FFF759FB0446B8
:104F1000E4B117E01C000020A012002020000020B7
:104F2000142C0140CC1200208812002000001080B8
:104F30000080FF800C00400000080240000C02408E
:104F4000F0120020FE480078032812D1FD4890F8A6
:104F5000560020B1FB4890F85600012801D10225E7
:104F600000E000252846FFF7DFF90020FFF7D2F91F
:104F7000044620463EBD10B5002004F08AF800200B
:104F800010BD70B590B004460E46154600BFEE4801
:104F900004F06BFA0028FAD1EB4804F03DF94FF029
:104FA00000600190E9480290039404950020059068
:104FB00006904FF480600790800008908000099070
:104FC00000200A904FF440300B9004200C900320F6
:104FD0000D904FF400000E9080100F9001A9DA4858
:104FE00004F0BCF92021D84804F008FA0121D64881
:104FF00004F0EEF910B070BD0146002002E0491047
:10500000421CD0B20129FAD170472DE9F84F8146F0
:10501000174698460A9C4FF0000AD3464D464FF07B
:10502000FF36B9F1000F02D12620BDE8F88F00202D
:10503000C64954390860C2480078022805D10402E4
:10504000780A40EAC8574FEA68280020C0498860BB
:105050004860401E0860012048610020C860086167
:10506000084604F04CF8B9486C38006800F000704D
:1050700008B10E20D9E7002C21DDB4F5006F1EDC4D
:10508000601E2040D8B92046FFF7B6FF0090B14817
:1050900004601020AF494860402088600020C8604C
:1050A0004FF480600861084603F0FDFF1020FFF711
:1050B00044F98246BAF1000F03D05046B5E72620E6
:1050C000B3E700980001A2498860084644604FF0A9
:1050D000FF300860012048610220C860002008619C
:1050E000084604F00CF89B48076011209949486075
:1050F000402088600020C8604FF480600861084646
:1051000003F0D1FF1120FFF718F98246BAF1000F22
:1051100001D0504689E79048007800285AD1FBF723
:10512000B4F817E04FF4004004F050F870B14FF0BD
:10513000000B05E08548006845F82B000BF1010BDA
:10514000BBF1080FF6D32035844E03E00EB90420DE
:105150006BE7761E7D484C38006840F22A610840B3
:105160000028DFD0082004F031F820B1082004F036
:1051700038F8042059E7022004F028F820B1022072
:1051800004F02FF8022050E7202004F01FF820B18F
:10519000202004F026F8062047E74FF4007004F0C2
:1051A00015F828B14FF4007004F01BF807203CE715
:1051B00003E06648006828602D1D4FF4001004F0DD
:1051C00005F80028F5D1FBF762F840F2FF5004F033
:1051D00008F839E060480078012835D1002060499E
:1051E0000870604908706049087058484438006881
:1051F00040F22A310843554944390860534854382D
:10520000006840F0080051495439086000222146E6
:105210004846FFF7B6FE00E0761E4B485838006857
:1052200000F0006038B95048007820B94C48007848
:1052300008B9002EF0D10EB90420F6E648480078EF
:1052400010B1474890F800A05046EEE62DE9FF5F08
:1052500017469846DDE90E464FF00009CA464FF062
:10526000FF354249009808600020384954390860E9
:1052700033480078022805D10402780A40EAC8576A
:105280004FEA68280020324988604860401E086064
:10529000012048610020C8600861084603F02FFF24
:1052A0002A486C38006800F0007018B10E2004B075
:1052B000BDE8F09F002C21DDB4F5006F1EDC601E00
:1052C0002040D8B92046FFF797FE83462148046066
:1052D000102020494860402088600020C8604FF4BA
:1052E00080600861084603F0DEFE1020FFF725F815
:1052F0008146B9F1000F03D04846D8E72620D6E70B
:10530000012E6ED906FB04F0B0F1007F01D32620F8
:10531000CDE74FEA0B100E49886006FB04F04860A9
:105320004FF0FF300860012048610220C860002073
:105330000861084603F0E3FE06480760122017E004
:105340001C000020F012002058640240802C014014
:10535000B4120020A012002024000020FFFF7F00D4
:105360002600002025000020270000202800002023
:10537000F9494860402088600020C8604FF4806090
:105380000861084603F08FFE1220FEF7D6FF814623
:10539000B9F1000F01D0484689E7F04800780028AD
:1053A0007ED1FAF772FF1EE04FF4004003F00EFFCB
:1053B000A0B14FF0000A07E0E9480068E949096830
:1053C00041F82A000AF1010ABAF1080FF4D3E548BE
:1053D00000682030E3490860E34D04E015B904207B
:1053E00065E7AEE06D1EDE484C38006840F22A31B9
:1053F00008400028D8D0082003F0E8FE20B108209B
:1054000003F0EFFE042052E7022003F0DFFE20B19C
:10541000022003F0E6FE022049E7202003F0D6FE3A
:1054200020B1202003F0DDFE062040E74FF400709D
:1054300003F0CCFE28B14FF4007003F0D2FE072039
:1054400035E709E0C6480068C64909680860C548EC
:105450000068001DC34908604FF4001003F0B6FE59
:105460000028EFD14FF4807003F0B0FE20B3BF48A6
:10547000007838B1BD480078012803D0BB480078D7
:10548000022819D10020B44908600C20486040204F
:1054900088600020C8604FF480600861084600E022
:1054A00011E003F000FE0C20FEF747FF8146B9F142
:1054B000000F01D04846FAE6FAF7E9FE40F2FF5045
:1054C00003F08FFE3DE0A5480078012839D1002087
:1054D000A74908700120A74908700020A649087054
:1054E0009F484438006840F22A3108439C494439B7
:1054F00008609B485438006840F0080098495439C7
:10550000086006FB04F100220098FFF73AFD00E076
:105510006D1E9A48006800F0006008B9002DF7D1B0
:105520000DB90420C3E600BF9348007818B990482D
:1055300000780028F8D08E48007810B18C4890F898
:1055400000904846B3E61CB5044600200190009048
:105550008B4800880004804908600D204860402086
:1055600088600020C8604FF480600861084603F03E
:105570009AFD7B484C380068009003E078484C382E
:1055800000680090009800F045000028F6D0012047
:1055900003F01CFE20B1012003F023FE01201CBDFE
:1055A000042003F013FE20B1042003F01AFE0320B0
:1055B000F5E76B48703800680D2801D01020EEE741
:1055C00040F2FF5003F00DFE65486C380068019012
:1055D0000198C0F3432020700020E0E72DE9FF5F31
:1055E00086B017469846149D00260020059004902A
:1055F000002481460390824602900195DDF818B0A0
:10560000DDF818B0BBF1000F03D126200AB0BDE8C9
:10561000F09F00205249543908605A498860486018
:10562000401E0860012048610020C86008610846EB
:1056300003F065FD4A486C38006800F0007008B15E
:105640000E20E3E749480078022805D10502780AD0
:1056500040EAC8574FEA6828002D1FDDB5F5006FF6
:105660001CDC681E2840C8B92846FFF7C5FC059019
:105670003948056010203849486040208860002083
:10568000C8604FF480600861084603F00CFD1020EC
:10569000FEF753FE06461EB13046B7E72620B5E7B3
:1056A0003748008800042C4908600D2048604020DD
:1056B00088600020C8604FF480600861084603F0ED
:1056C000F2FC0D20FEF739FE06460EB130469DE78E
:1056D00023486C38006803904FF0FF341CE0641ED0
:1056E0002748008800041C4908600D2048604020BD
:1056F00088600020C8604FF480600861084603F0AD
:10570000D2FC0D20FEF719FE06460EB130467DE7AD
:1057100013486C3800680390039800F4807008B94F
:10572000002CDCD10CB9292070E70B480760182049
:1057300009494860402088600020C8604FF48060BC
:105740000861084603F0AFFC1820FEF7F6FD064698
:10575000D6B130465AE70000A012002024000020F5
:10576000802C014028000020FFFF7F001C0000204B
:1057700026000020250000202700002000640240B1
:1057800020000020B41200200020F849087005987D
:105790000001F7498860084645604FF0FF30086017
:1057A000012048610020C8600861084603F0A7FC9A
:1057B0004FF0FF34EF48007800287CD1FAF765FD00
:1057C00043E04FF4804003F001FDC8B30198A0EB23
:1057D0000900202821D20198A0EB090000F0030065
:1057E00020B90198A0EB0900800804E00198A0EB23
:1057F00009008008401C02904FF0000A09E0DE49D1
:10580000DBF8000008600AF1010A0BF1040B09F152
:10581000040902988245F2D30FE04FF0000A05E038
:105820005BF82A00D44908600AF1010ABAF1080FAE
:10583000F6D30BF1200B09F120096FF0404404E08E
:10584000FFE70CB90420E1E6641ECB484C38006841
:1058500040F21A6108400028B3D0082003F0B6FCDB
:1058600020B1082003F0BDFC0420CFE6022003F0A5
:10587000ADFC20B1022003F0B4FC0220C6E61020EB
:1058800003F0A4FC20B1102003F0ABFC0520BDE622
:105890004FF4007003F09AFC30B14FF4007003F045
:1058A000A0FC0720B2E606E0FAF7F1FC40F2FF5058
:1058B00003F097FC43E0AF48007801283FD1002077
:1058C000AE490870A9490870AD490870AA48443823
:1058D000006840F21A310843A74944390860402261
:1058E00029460698FFF74DFBA3485438006840F05E
:1058F0000800A1495439086000E0641EA14800680E
:1059000000F0006008B9002CF7D11CB9FFF78CFA41
:1059100004207BE64FF0FF3400E0641E98480078D6
:1059200020B99648007808B9002CF6D10CB90420AB
:105930006CE69248007810B19048007866E640F234
:10594000FF5003F04EFC04A8FFF7FDFD064603E000
:1059500004A8FFF7F8FD06463EB99DF81000072899
:10596000F6D09DF810000628F2D030464EE62DE91C
:10597000FF5F84B0DDE9124700260020039002900B
:10598000002580468146019007FB04FBDDF810A04E
:10599000DDF810A0BAF1000F03D1262008B0BDE851
:1059A000F09F00207449543908607149886048604C
:1059B000401E0860012048610020C8600861084658
:1059C00003F09DFB6C486C38006800F0007008B173
:1059D0000E20E3E76C480078022808D10402DDE9D4
:1059E0000601400A40EAC1504912CDE90601002CE7
:1059F0001FDDB4F5006F1CDC601E2040C8B92046D6
:105A0000FFF7FAFA03906148046010205F4948608C
:105A1000402088600020C8604FF48060086108461C
:105A200003F041FB1020FEF788FC06461EB130460D
:105A3000B4E72620B2E7012F6FD907FB04F0B0F1DD
:105A4000007F01D32620A9E74F48007838B14E489F
:105A50000078012803D04C48007802282DD14C480A
:105A60000088000449490860372048604020886069
:105A70000020C8604FF480600861084603F013FB03
:105A80003720FEF75AFC06460EB1304686E73F48FF
:105A9000076017203D494860402088600020C860AA
:105AA0004FF480600861084603F0FDFA1720FEF706
:105AB00044FC06460EB1304670E73449069808604B
:105AC00019204860402088600020C8604FF4806042
:105AD0000861084603F0E7FA1920FEF72EFC064697
